:020000040800F2
:1000000000000220F94F000841500008415000084C
:100010004150000841500008415000080000000015
:100020000000000000000000000000004150000837
:1000300041500008000000004150000841500008F5
:1000400000000000000000000000000000000000B0
:1000500000000000000000000000000000000000A0
:100060000000000000000000000000000000000090
:100070000000000000000000000000000000000080
:100080000000000000000000000000000000000070
:100090000000000000000000000000000000000060
:1000A0000000000000000000000000000000000050
:1000B0000000000000000000000000000000000040
:1000C0000000000000000000000000000000000030
:1000D0000000000000000000000000000000000020
:1000E0000000000000000000000000000000000010
:1000F0000000000000000000000000000000000000
:1001000000000000000000000000000000000000EF
:1001100000000000000000000000000000000000DF
:1001200000000000000000000000000000000000CF
:1001300000000000000000000000000000000000BF
:1001400000000000000000000000000000000000AF
:10015000000000000000000000000000000000009F
:10016000000000000000000000000000000000008F
:10017000000000000000000000000000000000007F
:08018000000000000000000077
:1001880010B5054C237833B9044B13B10448AFF3C9
:1001980000800123237010BD4408001000000000F7
:1001A800EC5A000808B5034B1BB103490348AFF3E9
:1001B800008008BD0000000048080010EC5A000844
:1001C8002DE9F04FDDF824E00EF5807CD1F80870B9
:1001D800D1F80C80DEF80490D1F8045051F8104B97
:1001E8005EF8086B14FB26FA5AFB12FB0BFB13AAEA
:1001F800C4EA0A44C6F1000615FB26FA5AFB12FBAC
:100208000BFB13AAC5EA0A45C0F8045040F8084B8E
:1002180017FB29FA5AFB12FB0BFB13AAC7EA0A477A
:10022800C9F1000918FB29FA5AFB12FB0BFB13AAA8
:10023800C8EA0A48C0F8048040F8087BBEEB0C0FF7
:100248007FF4C4AFBDE8F08F2DE9F04F00F5806C66
:10025800D1F8047051F8084BD2F8048052F8085BC2
:10026800D3F8049053F8086B24FB06FA24FB15FB1B
:10027800C0F804B040F808AB27FB09FA27FB18FBC5
:10028800C0F804B040F808ABB0EB0C0F7FF4E0AF57
:10029800BDE8F08F2DE9F04F2DED0C8A0DEE901A88
:1002A80000F1800CD0F80040D0F88050D0F8006100
:1002B800D0F88071D0F80082D0F88092D0F800A3EE
:1002C800D0F880B304EB0814A4EB481805EB091523
:1002D800A5EB491906EB0A16A6EB4A1A07EB0B170A
:1002E800A7EB4B1B04EB8604A4EBC60605EB8705BE
:1002F800A5EBC70708EB8A18A8EBCA1A09EB8B19F4
:10030800A9EBCB1B04EB4504A4EB850506EB4716CC
:10031800A6EB871708EBC908A8EB09190AEBCB1A53
:10032800AAEB0B2BC0F80082C0F88092C0F800A39B
:10033800C0F880B3C0F88050C0F80061C0F8807180
:1003480040F8044BB0EB0C0F7FF4ACAFA0F1800089
:1003580000F5806C0CEE90CA1DEE901AB1EC0F1AE5
:100368000DEE901AD0F80840D0F81850D0F8286050
:10037800D0F83870D0F84880D0F85890D0F868A0F5
:10038800D0F878B011EE10EA08FB0E4108FB1E48C1
:1003980009FB0E5409FB1E590AFB0E650AFB1E6A6F
:1003A8000BFB0E760BFB1E7B51FB12F707FB1311A1
:1003B80054FB12F707FB134455FB12F707FB1355C1
:1003C80056FB12F707FB136658FB12F707FB138857
:1003D80059FB12F707FB13995AFB12F707FB13AAED
:1003E8005BFB12F707FB13BB11EE90EA05FB0E1C33
:1003F80005FB1E1706FB0E4106FB1E4412EE10EA13
:100408000AFB0E860AFB1E850BFB0E9A0BFB1E9B36
:1004180013EE90EA0AFB0E680AFB1E6914EE10EA56
:100428000BFB0E5A0BFB1E5B13EE10EA04FB0E7659
:1004380004FB1E7712EE90EA01FB0EC401FB1EC5F9
:1004480045EC384A47EC396A49EC3A8A4BEC3BAA06
:10045800D0F80040D0F81050D0F82060D0F83070B4
:10046800D0F84080D0F85090D0F860A0D0F870B0A4
:1004780011EE10EA08FB0E4108FB1E4809FB0E545A
:1004880009FB1E590AFB0E650AFB1E6A0BFB0E765A
:100498000BFB1E7B51FB12F707FB131154FB12F7E2
:1004A80007FB134455FB12F707FB135556FB12F7CE
:1004B80007FB136658FB12F707FB138859FB12F763
:1004C80007FB13995AFB12F707FB13AA5BFB12F7FA
:1004D80007FB13BB11EE90EA05FB0E1C05FB1E176C
:1004E80006FB0E4106FB1E4412EE10EA0AFB0E86BE
:1004F8000AFB1E850BFB0E9A0BFB1E9B13EE90EA64
:100508000AFB0E680AFB1E6914EE10EA0BFB0E5A72
:100518000BFB1E5B13EE10EA04FB0E7604FB1E7742
:1005280012EE90EA01FB0EC401FB1EC519EE10CABB
:1005380015EE10EA0CFB0E510CFB1E5C51FB12FE73
:100548000EFB13115CFB12FE0EFB13CCC0F818C097
:10055800C0F8101019EE90CA15EE90EA0CFB0E6167
:100568000CFB1E6C51FB12FE0EFB13115CFB12FE02
:100578000EFB13CCC0F828C0C0F820101AEE10CA21
:1005880016EE10EA0CFB0E710CFB1E7C51FB12FEE2
:100598000EFB13115CFB12FE0EFB13CCC0F838C027
:1005A800C0F830101AEE90CA16EE90EA0CFB0E81D5
:1005B8000CFB1E8C51FB12FE0EFB13115CFB12FE92
:1005C8000EFB13CCC0F848C0C0F840101BEE10CA90
:1005D80017EE10EA0CFB0E910CFB1E9C51FB12FE51
:1005E8000EFB13115CFB12FE0EFB13CCC0F858C0B7
:1005F800C0F850101BEE90CA17EE90EA0CFB0EA143
:100608000CFB1EAC51FB12FE0EFB13115CFB12FE21
:100618000EFB13CCC0F868C0C0F860101CEE10CAFE
:1006280018EE10EA0CFB0EB10CFB1EBC51FB12FEBF
:100638000EFB13115CFB12FE0EFB13CCC0F878C046
:10064800C0F8701018EE90CA14EE90EA0CFB0E4138
:100658000CFB1E4C51FB12FE0EFB13115CFB12FE31
:100668000EFB13CCC0F808C040F8041BD0F80840B3
:10067800D0F81850D0F82860D0F83870D0F84880F2
:10068800D0F85890D0F868A0D0F878B011EE10EAF9
:1006980008FB0E4108FB1E4809FB0E5409FB1E59B6
:1006A8000AFB0E650AFB1E6A0BFB0E760BFB1E7B14
:1006B80051FB12F707FB131154FB12F707FB134406
:1006C80055FB12F707FB135556FB12F707FB13668A
:1006D80058FB12F707FB138859FB12F707FB13990E
:1006E8005AFB12F707FB13AA5BFB12F707FB13BBB6
:1006F80011EE90EA05FB0E1C05FB1E1706FB0E41CA
:1007080006FB1E4412EE10EA0AFB0E860AFB1E8543
:100718000BFB0E9A0BFB1E9B13EE90EA0AFB0E686E
:100728000AFB1E6914EE10EA0BFB0E5A0BFB1E5B4C
:1007380013EE10EA04FB0E7604FB1E7712EE90EA25
:1007480001FB0EC401FB1EC545EC384A47EC396A6B
:1007580049EC3A8A4BEC3BAAD0F80040D0F810504C
:10076800D0F82060D0F83070D0F84080D0F85090A1
:10077800D0F860A0D0F870B011EE10EA08FB0E4176
:1007880008FB1E4809FB0E5409FB1E590AFB0E659F
:100798000AFB1E6A0BFB0E760BFB1E7B51FB12F746
:1007A80007FB131154FB12F707FB134455FB12F711
:1007B80007FB135556FB12F707FB136658FB12F796
:1007C80007FB138859FB12F707FB13995AFB12F71B
:1007D80007FB13AA5BFB12F707FB13BB11EE90EAAA
:1007E80005FB0E1C05FB1E1706FB0E4106FB1E44EF
:1007F80012EE10EA0AFB0E860AFB1E850BFB0E9A08
:100808000BFB1E9B13EE90EA0AFB0E680AFB1E699F
:1008180014EE10EA0BFB0E5A0BFB1E5B13EE10EAEC
:1008280004FB0E7604FB1E7712EE90EA01FB0EC461
:1008380001FB1EC519EE10CA15EE10EA0CFB0E518D
:100848000CFB1E5C51FB12FE0EFB13115CFB12FE2F
:100858000EFB13CCC0F818C0C0F8101019EE90CADF
:1008680015EE90EA0CFB0E610CFB1E6C51FB12FEA0
:100878000EFB13115CFB12FE0EFB13CCC0F828C054
:10088800C0F820101AEE10CA16EE10EA0CFB0E7112
:100898000CFB1E7C51FB12FE0EFB13115CFB12FEBF
:1008A8000EFB13CCC0F838C0C0F830101AEE90CA4E
:1008B80016EE90EA0CFB0E810CFB1E8C51FB12FE0F
:1008C8000EFB13115CFB12FE0EFB13CCC0F848C0E4
:1008D800C0F840101BEE10CA17EE10EA0CFB0E9180
:1008E8000CFB1E9C51FB12FE0EFB13115CFB12FE4F
:1008F8000EFB13CCC0F858C0C0F850101BEE90CABD
:1009080017EE90EA0CFB0EA10CFB1EAC51FB12FE7D
:100918000EFB13115CFB12FE0EFB13CCC0F868C073
:10092800C0F860101CEE10CA18EE10EA0CFB0EB1ED
:100938000CFB1EBC51FB12FE0EFB13115CFB12FEDE
:100948000EFB13CCC0F878C0C0F8701018EE90CA2F
:1009580014EE90EA0CFB0E410CFB1E4C51FB12FEF0
:100968000EFB13115CFB12FE0EFB13CCC0F808C083
:1009780040F8041B00F178001CEE90CAB0EB0C0F95
:100988007FF4EAACA0F580604FEA0001D0F80430AB
:10099800D0F80840D0F80C50D0F81060D0F8147097
:1009A800D0F81880D0F81C9050F8202BA1F802300D
:1009B800A1F80440A1F80650A1F80860A1F80A704F
:1009C800A1F80C80A1F80E9021F8102BB0EB0C0FB9
:1009D8007FF4DCAFBDEC0C8ABDE8F08F2DE9F04F59
:1009E8002DED098A00F5806C00EE90CAB1EC0F1A63
:1009F800D0F84040D0F84850D0F85060D0F858703F
:100A0800D0F86080D0F86890D0F870A0D0F878B0AE
:100A18002C443E44C844DA44A4EB4505A6EB4707FA
:100A2800A8EB4909AAEB4B0B13EE10EA05FB0EF5F0
:100A380014EE10EA09FB0EF93444D044A4EB460640
:100A4800A8EB4A0A13EE90EA07FB0E5C07FB1E5759
:100A580014EE90EA0BFB0E950BFB1E9B16EE10EAAC
:100A680006FB0EF607FB0EF716EE90EA0AFB0EFAE7
:100A78000BFB0EFB54FB12FE0EFB13445CFB12FE39
:100A88000EFB13CC56FB12FE0EFB136657FB12FE31
:100A98000EFB137758FB12FE0EFB138855FB12FE54
:100AA8000EFB13555AFB12FE0EFB13AA5BFB12FE3C
:100AB8000EFB13BB44445644AC445F44A4EB4808C3
:100AC800A6EB4A0AACEB4505A7EB4B0B4CEC384AB6
:100AD80047EC396A45EC3A8A4BEC3BAAD0F800401F
:100AE800D0F80850D0F81060D0F81870D0F82080EE
:100AF800D0F82890D0F830A0D0F838B02C443E4434
:100B0800C844DA44A4EB4505A6EB4707A8EB490916
:100B1800AAEB4B0B11EE10EA05FB0EF512EE10EAEC
:100B280009FB0EF93444D044A4EB4606A8EB4A0A64
:100B380011EE90EA07FB0E5C07FB1E5712EE90EAD7
:100B48000BFB0E950BFB1E9B15EE10EA06FB0EF633
:100B580007FB0EF715EE90EA0AFB0EFA0BFB0EFBED
:100B680054FB12FE0EFB13445CFB12FE0EFB13CC6F
:100B780056FB12FE0EFB136657FB12FE0EFB137795
:100B880058FB12FE0EFB138855FB12FE0EFB135585
:100B98005AFB12FE0EFB13AA5BFB12FE0EFB13BBE5
:100BA80044445644AC445F44A4EB4808A6EB4A0AC4
:100BB800ACEB4505A7EB4B0B17EE10EA08FB0EF85C
:100BC80005FB0EF50AFB0EFA0BFB0EFB18EE10EAFE
:100BD80019EE109A0CEB090CACEB49090EFB09F95C
:100BE800C0F808C0C0F8489019EE909A06EB0906BC
:100BF800A6EB49090EFB09F9C0F81060C0F850903F
:100C08001AEE109A07EB0907A7EB49090EFB09F939
:100C1800C0F81870C0F8589017EE90CA1AEE909A5B
:100C28000CFB09860CFB19890EFB09F9C0F820603A
:100C3800C0F860901BEE109A0CFB09560CFB195972
:100C48000EFB09F9C0F82860C0F868901BEE909A6E
:100C58000CFB09A60CFB19A90EFB09F9C0F83060BA
:100C6800C0F870901CEE109A0CFB09B60CFB19B971
:100C78000EFB09F9C0F83860C0F8789018EE909A21
:100C880004EB0904A4EB49090EFB09F9C0F84090EC
:100C980040F8044BD0F84040D0F84850D0F85060A5
:100CA800D0F85870D0F86080D0F86890D0F870A06C
:100CB800D0F878B02C443E44C844DA44A4EB450547
:100CC800A6EB4707A8EB4909AAEB4B0B13EE10EA72
:100CD80005FB0EF514EE10EA09FB0EF93444D04476
:100CE800A4EB4606A8EB4A0A13EE90EA07FB0E5C53
:100CF80007FB1E5714EE90EA0BFB0E950BFB1E9B91
:100D080016EE10EA06FB0EF607FB0EF716EE90EA53
:100D18000AFB0EFA0BFB0EFB54FB12FE0EFB1344F0
:100D28005CFB12FE0EFB13CC56FB12FE0EFB136689
:100D380057FB12FE0EFB137758FB12FE0EFB1388AF
:100D480055FB12FE0EFB13555AFB12FE0EFB13AA9F
:100D58005BFB12FE0EFB13BB44445644AC445F4499
:100D6800A4EB4808A6EB4A0AACEB4505A7EB4B0BEE
:100D78004CEC384A47EC396A45EC3A8A4BEC3BAACA
:100D8800D0F80040D0F80850D0F81060D0F81870AB
:100D9800D0F82080D0F82890D0F830A0D0F838B01B
:100DA8002C443E44C844DA44A4EB4505A6EB470767
:100DB800A8EB4909AAEB4B0B11EE10EA05FB0EF55F
:100DC80012EE10EA09FB0EF93444D044A4EB4606AF
:100DD800A8EB4A0A11EE90EA07FB0E5C07FB1E57C8
:100DE80012EE90EA0BFB0E950BFB1E9B15EE10EA1C
:100DF80006FB0EF607FB0EF715EE90EA0AFB0EFA55
:100E08000BFB0EFB54FB12FE0EFB13445CFB12FEA5
:100E18000EFB13CC56FB12FE0EFB136657FB12FE9D
:100E28000EFB137758FB12FE0EFB138855FB12FEC0
:100E38000EFB13555AFB12FE0EFB13AA5BFB12FEA8
:100E48000EFB13BB44445644AC445F44A4EB48082F
:100E5800A6EB4A0AACEB4505A7EB4B0B17EE10EADD
:100E680008FB0EF805FB0EF50AFB0EFA0BFB0EFB52
:100E780018EE10EA19EE109A0CEB090CACEB4909C4
:100E88000EFB09F9C0F808C0C0F8489019EE909A0E
:100E980006EB0906A6EB49090EFB09F9C0F8106034
:100EA800C0F850901AEE109A07EB0907A7EB49090A
:100EB8000EFB09F9C0F81870C0F8589017EE90CAE0
:100EC8001AEE909A0CFB09860CFB19890EFB09F99E
:100ED800C0F82060C0F860901BEE109A0CFB095611
:100EE8000CFB19590EFB09F9C0F82860C0F8689086
:100EF8001BEE909A0CFB09A60CFB19A90EFB09F92D
:100F0800C0F83060C0F870901CEE109A0CFB09B65F
:100F18000CFB19B90EFB09F9C0F83860C0F87890D5
:100F280018EE909A04EB0904A4EB49090EFB09F9A1
:100F3800C0F8409040F87C4B10EE90CAB0EB0C0F14
:100F48007FF454ADA0F580604FF0000E00F18001F1
:100F5800D0F80040D0F88050D0F80061D0F8807107
:100F6800D0F80082D0F88092D0F800A3D0F880B3EF
:100F78002C443E44C844DA44A4EB4505A6EB470795
:100F8800A8EB4909AAEB4B0B3444D044A4EB460622
:100F9800A8EB4A0AA5EB071505EB4717A9EB0B19B0
:100FA80009EB4B1B04EB0804A4EB480859FB12FCA3
:100FB8000CFB1399A5EB891505EBC919A6EB0A16C5
:100FC80006EB4A1AA7EB8B0707EBCB0B56FB12FC79
:100FD8000CFB136657FB12FC0CFB1377AEEB4404B7
:100FE800C5F100054FEAC6164FEA87174FEA4818B9
:100FF8004FEA09194FEACA0A4FEA8B0B54FB12FC55
:101008000CFB134455FB12FC0CFB135556FB12FC4E
:101018000CFB136657FB12FC0CFB137758FB12FCF6
:101028000CFB138859FB12FC0CFB13995AFB12FC9E
:101038000CFB13AA5BFB12FC0CFB13BBC0F8008271
:10104800C0F88092C0F800A3C0F880B3C0F8805000
:10105800C0F80061C0F8807140F8044BD0F8004037
:10106800D0F88050D0F80061D0F88071D0F80082B4
:10107800D0F88092D0F800A3D0F880B32C443E4436
:10108800C844DA44A4EB4505A6EB4707A8EB490991
:10109800AAEB4B0B3444D044A4EB4606A8EB4A0A0F
:1010A800A5EB071505EB4717A9EB0B1909EB4B1B2C
:1010B80004EB0804A4EB480859FB12FC0CFB139939
:1010C800A5EB891505EBC919A6EB0A1606EB4A1A12
:1010D800A7EB8B0707EBCB0B56FB12FC0CFB13663D
:1010E80057FB12FC0CFB1377AEEB4404C5F100056B
:1010F8004FEAC6164FEA87174FEA48184FEA091908
:101108004FEACA0A4FEA8B0B54FB12FC0CFB134440
:1011180055FB12FC0CFB135556FB12FC0CFB13661B
:1011280057FB12FC0CFB137758FB12FC0CFB1388C3
:1011380059FB12FC0CFB13995AFB12FC0CFB13AA6B
:101148005BFB12FC0CFB13BBC0F80082C0F880925A
:10115800C0F800A3C0F880B3C0F88050C0F80061A0
:10116800C0F8807140F8044BB0EB010F7FF4F0AE8B
:10117800BDEC098ABDE8F08F20FB00002DE9F04F97
:10118800DFF8F029DFF8F039DFF8B415B1EC071A09
:1011980000EE101A00F1800A04EE90AAD0F8005070
:1011A800D0F88060D0F80071D0F88081D0F8004283
:1011B800D0F880B2D0F800C3D0F880E311EE101A4E
:1011C80084FB019409FB02FACAFB03948BFB019B85
:1011D80009FB02FACAFB039B8CFB019C09FB02FA80
:1011E800CAFB039C8EFB019E09FB02FACAFB039E05
:1011F80025445E446744F044A5EB4404A6EB4B0B3E
:10120800A7EB4C0CA8EB4E0E11EE901A87FB01973A
:1012180009FB02FACAFB039788FB019809FB02FA4B
:10122800CAFB039812EE101A8CFB019C09FB02FA08
:10123800CAFB039C8EFB019E09FB02FACAFB039EB4
:101248003D4446446444F344A5EB4707A6EB4808ED
:10125800A4EB4C0CABEB4E0E12EE901A86FB0196EB
:1012680009FB02FACAFB039613EE101A88FB0198D1
:1012780009FB02FACAFB039813EE901A8BFB019B39
:1012880009FB02FACAFB039B14EE101A8EFB019E9F
:1012980009FB02FACAFB039E354447445C44F44404
:1012A800A5EB4606A7EB4808A4EB4B0BACEB4E0EA0
:1012B800C0F88060C0F80071C0F88081C0F80042B2
:1012C800C0F880B2C0F800C3C0F880E340F8045BFF
:1012D800D0F80050D0F88060D0F80071D0F8808144
:1012E800D0F80042D0F880B2D0F800C3D0F880E33C
:1012F80011EE101A84FB019409FB02FACAFB03944D
:101308008BFB019B09FB02FACAFB039B8CFB019C2C
:1013180009FB02FACAFB039C8EFB019E09FB02FA39
:10132800CAFB039E25445E446744F044A5EB44048D
:10133800A6EB4B0BA7EB4C0CA8EB4E0E11EE901A3C
:1013480087FB019709FB02FACAFB039788FB019800
:1013580009FB02FACAFB039812EE101A8CFB019CD7
:1013680009FB02FACAFB039C8EFB019E09FB02FAE9
:10137800CAFB039E3D4446446444F344A5EB470737
:10138800A6EB4808A4EB4C0CABEB4E0E12EE901AF1
:1013980086FB019609FB02FACAFB039613EE101AA4
:1013A80088FB019809FB02FACAFB039813EE901A0E
:1013B8008BFB019B09FB02FACAFB039B14EE101A74
:1013C8008EFB019E09FB02FACAFB039E3544474483
:1013D8005C44F444A5EB4606A7EB4808A4EB4B0B8A
:1013E800ACEB4E0EC0F88060C0F80071C0F8808188
:1013F800C0F80042C0F880B2C0F800C3C0F880E36B
:1014080040F8045B14EE90AAB0EB0A0F7FF4C6AE66
:10141800A0F1800000F5806A04EE90AA00F1100A9D
:1014280005EE10AA10EE101AB1EC071A00EE101A09
:10143800D0F80050D0F81060D0F82070D0F8308084
:10144800D0F84040D0F850B0D0F860C0D0F870E084
:1014580011EE101A84FB019409FB02FACAFB0394EB
:101468008BFB019B09FB02FACAFB039B8CFB019CCB
:1014780009FB02FACAFB039C8EFB019E09FB02FAD8
:10148800CAFB039E25445E446744F044A5EB44042C
:10149800A6EB4B0BA7EB4C0CA8EB4E0E11EE901ADB
:1014A80087FB019709FB02FACAFB039788FB01989F
:1014B80009FB02FACAFB039812EE101A8CFB019C76
:1014C80009FB02FACAFB039C8EFB019E09FB02FA88
:1014D800CAFB039E3D4446446444F344A5EB4707D6
:1014E800A6EB4808A4EB4C0CABEB4E0E12EE901A90
:1014F80086FB019609FB02FACAFB039613EE101A43
:1015080088FB019809FB02FACAFB039813EE901AAC
:101518008BFB019B09FB02FACAFB039B14EE101A12
:101528008EFB019E09FB02FACAFB039E3544474421
:101538005C44F444A5EB4606A7EB4808A4EB4B0B28
:10154800ACEB4E0EC0F81060C0F82070C0F83080C8
:10155800C0F84040C0F850B0C0F860C0C0F870E0B3
:1015680040F8045BD0F80050D0F81060D0F8207034
:10157800D0F83080D0F84040D0F850B0D0F860C0F3
:10158800D0F870E011EE101A84FB019409FB02FAFE
:10159800CAFB03948BFB019B09FB02FACAFB039B62
:1015A8008CFB019C09FB02FACAFB039C8EFB019E83
:1015B80009FB02FACAFB039E25445E446744F044D3
:1015C800A5EB4404A6EB4B0BA7EB4C0CA8EB4E0E7B
:1015D80011EE901A87FB019709FB02FACAFB0397E1
:1015E80088FB019809FB02FACAFB039812EE101A4D
:1015F8008CFB019C09FB02FACAFB039C8EFB019E33
:1016080009FB02FACAFB039E3D4446446444F34482
:10161800A5EB4707A6EB4808A4EB4C0CABEB4E0E2A
:1016280012EE901A86FB019609FB02FACAFB039692
:1016380013EE101A88FB019809FB02FACAFB0398FB
:1016480013EE901A8BFB019B09FB02FACAFB039B62
:1016580014EE101A8EFB019E09FB02FACAFB039EC8
:10166800354447445C44F444A5EB4606A7EB4808D8
:10167800A4EB4B0BACEB4E0EC0F81060C0F820701A
:10168800C0F83080C0F84040C0F850B0C0F860C022
:10169800C0F870E040F8045B15EE10AAB0EB0A0F32
:1016A8007FF4C6AE00F1700014EE90AAB0EB0A0FFA
:1016B8007FF4B4AEA0F5806010EE101A00F58064D7
:1016C800D1F804C0D1F808E051F80CBBD0F80050AC
:1016D800D0F80460D0F80870D0F80C8087FB0B971E
:1016E80009FB02FACAFB039788FB0B9809FB02FA6D
:1016F800CAFB03983D444644A5EB4707A6EB4808B8
:1017080086FB0C9609FB02FACAFB039688FB0E9827
:1017180009FB02FACAFB039835444744A5EB460681
:10172800A7EB4808C0F80460C0F80870C0F80C803F
:1017380040F8105BB4EB000F7FF4C2AFBDE8F08F48
:10174800C85F00082DE9F04FDFF82824DFF82834B7
:10175800DFF82814B1EC071A00EE101A00F5806AB9
:1017680004EE90AAD0F81040D0F81460D0F818C051
:10177800D0F81C803444C444A4EB4606ACEB4808BB
:1017880004EB0C04A4EB4C0C13EE109A14EE10AA04
:1017980086FB095BC8FB0A5B05FB02F1C1FB035B27
:1017A80086FB0A7EC8FB097E07FB02F1C1FB037EAC
:1017B800D0F80050D0F80460D0F80870D0F80C8049
:1017C80035444744A5EB4606A7EB480812EE101A25
:1017D80088FB019809FB02FACAFB03983D4446447A
:1017E800A5EB4707A6EB48088CFB019C09FB02FA0E
:1017F800CAFB039C25445E446744F044A5EB4404BB
:10180800A6EB4B0BA7EB4C0CA8EB4E0EC0F80460F4
:10181800C0F80870C0F80C80C0F81040C0F814B0C8
:10182800C0F818C0C0F81CE040F8205B14EE90AA7D
:10183800B0EB0A0F7FF496AFA0F5806040F2040A7F
:1018480000F5806A05EE10AA10EE101AB1EC071A1E
:1018580000EE101AD0F88040D0F8A060D0F8C0C0D0
:10186800D0F8E0803444C444A4EB4606ACEB480806
:1018780004EB0C04A4EB4C0C13EE109A14EE10AA13
:1018880086FB095BC8FB0A5B05FB02F1C1FB035B36
:1018980086FB0A7EC8FB097E07FB02F1C1FB037EBB
:1018A800D0F80050D0F82060D0F84070D0F86080B0
:1018B80035444744A5EB4606A7EB480812EE101A34
:1018C80088FB019809FB02FACAFB03983D44464489
:1018D800A5EB4707A6EB48088CFB019C09FB02FA1D
:1018E800CAFB039C25445E446744F044A5EB4404CA
:1018F800A6EB4B0BA7EB4C0CA8EB4E0EC0F82060E8
:10190800C0F84070C0F86080C0F88040C0F8A0B04F
:10191800C0F8C0C0C0F8E0E0C0F8005000F5807022
:1019280015EE10AABAEB000F7FF494AFA0F57F7004
:1019380000F11C0A04EE90AA00F5806A05EE10AAD0
:1019480010EE101AB1EC071A00EE101AD0F8005079
:10195800D0F82060D0F84070D0F86080D0F880408F
:10196800D0F8A0B0D0F8C0C0D0F8E0E011EE101A5E
:1019780086FB019609FB02FACAFB039688FB0198CD
:1019880009FB02FACAFB03988BFB019B09FB02FACD
:10199800CAFB039B8EFB019E09FB02FACAFB039E4E
:1019A800354447445C44F444A5EB4606A7EB480895
:1019B800A4EB4B0BACEB4E0E11EE901A87FB019784
:1019C80009FB02FACAFB03978CFB019C09FB02FA8C
:1019D800CAFB039C12EE101A88FB019809FB02FA55
:1019E800CAFB03988EFB019E09FB02FACAFB039E01
:1019F8003D4446446444F344A5EB4707A6EB480836
:101A0800A4EB4C0CABEB4E0E12EE901A84FB019437
:101A180009FB02FACAFB039413EE101A8BFB019B15
:101A280009FB02FACAFB039B13EE901A8CFB019C7C
:101A380009FB02FACAFB039C14EE101A8EFB019EE6
:101A480009FB02FACAFB039E25445E446744F0443E
:101A5800A5EB4404A6EB4B0BA7EB4C0CA8EB4E0EE6
:101A6800C0F82060C0F84070C0F86080C0F88040BE
:101A7800C0F8A0B0C0F8C0C0C0F8E0E0C0F800509E
:101A880000F5807015EE10AAB0EB0A0F7FF45EAF78
:101A9800A0F57F7014EE90AABAEB000F7FF44CAF5C
:101AA800A0F1200010EE101A00F5807404EE904AA0
:101AB800D1F804C0D1F808E051F80CBBD0F80050B8
:101AC800D0F80061D0F80072D0F8008386FB0B963E
:101AD80009FB02FACAFB039688FB0B9809FB02FA7A
:101AE800CAFB039835444744A5EB4606A7EB4808CC
:101AF80087FB0C9709FB02FACAFB039788FB0E9831
:101B080009FB02FACAFB03983D444644A5EB470784
:101B1800A6EB4808D1F804C0D1F808E0D1F80CB019
:101B280051F8104B85FB049509FB02FACAFB039593
:101B380086FB0C9609FB02FACAFB039687FB0E97F5
:101B480009FB02FACAFB039788FB0B9809FB02FA08
:101B5800CAFB0398C0F80061C0F80072C0F800839F
:101B680040F8045B14EE904AB4EB000F7FF4A0AF8A
:101B7800BDE8F08FFFDF7FFC01E07F00C463000851
:101B88002DE9F04F4DF6FF73CFF67F434EF2010477
:101B9800C0F27F0440F2550CD1F80460D1F8087007
:101BA80051F80C5BD2F80490D2F808A052F80C8BCC
:101BB80085FB085E05FB03F8C8FB045E40F804EBF0
:101BC80086FB096E06FB03F9C9FB046E40F804EBBB
:101BD80087FB0A7E07FB03FACAFB047E40F804EB86
:101BE800BCF1010C7FF4D8AFD1F80050D2F80080D6
:101BF80085FB085E05FB03F8C8FB045EC0F800E03F
:101C0800BDE8F08F2DE9F04F4DF6FF73CFF67F4317
:101C18004EF20104C0F27F0440F2550CD1F8046082
:101C2800D1F8087051F80C5BD2F80490D2F808A0EB
:101C380052F80C8B85FB085E05FB03F8C8FB045EB5
:101C480086FB096506FB03F9C9FB046587FB0A7671
:101C580007FB03FACAFB0476D0F80080D0F804909A
:101C6800D0F808A00EEB080E40F80CEB05EB0905C0
:101C780040F8085C06EB0A0640F8046CBCF1010C5D
:101C88007FF4CCAFD1F80050D2F80080D0F80060D3
:101C980085FB085E05FB03F8C8FB045E0EEB060E29
:101CA800C0F800E0BDE8F08F2DE9F0074EF2010C16
:101CB800C0F27F0C40F2200AD0F80010D0F80420BF
:101CC800D0F80830D0F80C40D0F81050D0F8146094
:101CD800D0F81870D0F81C8001F580095FEAE9593E
:101CE80009FB1C1102F580095FEAE95909FB1C226E
:101CF80003F580095FEAE95909FB1C3304F58009FB
:101D08005FEAE95909FB1C4405F580095FEAE959CE
:101D180009FB1C5506F580095FEAE95909FB1C66B1
:101D280007F580095FEAE95909FB1C7708F580097E
:101D38005FEAE95909FB1C88C0F80420C0F808309C
:101D4800C0F80C40C0F81050C0F81460C0F8187003
:101D5800C0F81C8040F8201BBAF1010A7FF4ACAF30
:101D6800BDE8F007704700BF2DE9F05F43F6ED09C5
:101D7800C0F2550940F2013A40F2200CD0F80010A8
:101D8800D0F80420D0F80830D0F80C40D0F8105023
:101D9800D0F81460D0F81870D0F81C8051FB19FBEB
:101DA8000BFB1A1152FB19FB0BFB1A2253FB19FBF5
:101DB8000BFB1A3354FB19FB0BFB1A4455FB19FB9D
:101DC8000BFB1A5556FB19FB0BFB1A6657FB19FB45
:101DD8000BFB1A7758FB19FB0BFB1A88C0F8042079
:101DE800C0F80830C0F80C40C0F81050C0F81460B3
:101DF800C0F81870C0F81C8040F8201BBCF1010C1A
:101E08007FF4BCAFBDE8F09F2DE9F0074EF2010C5E
:101E1800C0F27F0C40F2200AD0F80010D0F804205D
:101E2800D0F80830D0F80C40D0F81050D0F8146032
:101E3800D0F81870D0F81C800CEAE17949440CEA13
:101E4800E2794A440CEAE3794B440CEAE4794C44DD
:101E58000CEAE5794D440CEAE6794E440CEAE77958
:101E68004F440CEAE879C844C0F80420C0F80830A8
:101E7800C0F80C40C0F81050C0F81460C0F81870D2
:101E8800C0F81C8040F8201BBAF1010A7FF4C4AFE7
:101E9800BDE8F007704700BF2DE970004DF8041D3C
:101EA8004EF2000CC0F27F0C00EB810602EB03033C
:101EB800A3F10203B3EB020F40F30A8052F8035B6D
:101EC800C5F316056545D8BF40F8045BB042F1D1AB
:101ED8005DF8045BA6EB0000A5EB9000BDE8700080
:101EE800704700BF844641EA000313F003036DD135
:101EF800403A41D351F8043B40F8043B51F8043BC5
:101F080040F8043B51F8043B40F8043B51F8043BCB
:101F180040F8043B51F8043B40F8043B51F8043BBB
:101F280040F8043B51F8043B40F8043B51F8043BAB
:101F380040F8043B51F8043B40F8043B51F8043B9B
:101F480040F8043B51F8043B40F8043B51F8043B8B
:101F580040F8043B51F8043B40F8043B51F8043B7B
:101F680040F8043B51F8043B40F8043B51F8043B6B
:101F780040F8043B403ABDD2303211D351F8043B0B
:101F880040F8043B51F8043B40F8043B51F8043B4B
:101F980040F8043B51F8043B40F8043B103AEDD2BA
:101FA8000C3205D351F8043B40F8043B043AF9D20B
:101FB800043208D0D2071CBF11F8013B00F8013BDE
:101FC80001D30B8803806046704700BF082A13D3EB
:101FD8008B078DD010F003038AD0C3F10403D21A03
:101FE800DB071CBF11F8013B00F8013B80D331F837
:101FF800023B20F8023B7BE7043AD9D3013A11F8B7
:10200800013B00F8013BF9D20B7803704B78437021
:102018008B7883706046704710B51C461123237077
:10202800204600F04BF922468821722001F08AFAF6
:10203800002010BD2DE9F041ADF6A87D1D4604A98C
:102048000023092B94BF03F1300203F13702013357
:10205800D2B2102B01F8012BF3D14222294611A844
:10206800FFF740FF0021B422284603F005FB08AB28
:1020780011A900261F46087804AA002400E00134AC
:1020880012F801CB8445FAD1240191F801C0E4B2D9
:1020980004A8002210F801EBE64532D101361444B9
:1020A800212E03F8014B01F10201E4D1012140F690
:1020B800951002F0C3FF0DF5B5680446414622A805
:1020C80000F05AF8CDE9008533463A4603A9204680
:1020D80000F07AFAC0B238B16B1EA91D13F8012FAF
:1020E800143299421A70F9D1002003F00DF82A46EB
:1020F800B421722001F026FA00200DF6A87DBDE873
:10210800F0810132C6E7000008B501F0BFFA01F01E
:1021180005FB01F041FB722001F080FB522001F029
:102128007DFB452001F07AFB532001F077FB452029
:1021380001F074FB542001F071FB202001F06EFBCC
:10214800202001F06BFB202001F068FB0A2001F041
:1021580065FB01F0DAF9064A8821412001F0D6F939
:10216800044AB421332001F0D1F901F019FAFCE74F
:10217800212000083D2000082DE9F043ADF5124D5F
:10218800A5B04FF4807205460E4664A84A4964AC6F
:10219800FFF7A8FEA4F1C0021046002114F8013B85
:1021A800402B8CBF373B303B0131DBB2402900F874
:1021B800013BF3D114A900230C461778507801335A
:1021C80000EB0710202B01F8010B02F10202F4D1F9
:1021D80022462046802101F047F90DF5A5400DF172
:1021E8007009A4AF214610300DF50A5800F025FEFD
:1021F80008F1100849463846002200F037FE4946E3
:102208004046042200F0BDFE0DF5945039464FF4C7
:1022180080521030FFF766FE0DF59450103000F034
:1022280068FE0DF594520DF5A5410DF54A50103292
:102238001031103000F082FE0DF54A50103000F0D9
:10224800B0FE0DF54A50103000F0F1FE0DF54A5180
:1022580010314246084600F0C8FE0DF54A501030CD
:1022680000F0B1FE0DF585490DF54A5209F1100946
:1022780010324946104600F0ECFE0DF54A52214650
:102288002846103200F0BEF92A4604A84FF4A46389
:10229800402101F0E9F83046CDE90178CDF8009009
:1022A8002CAB04AA214600F0C8F900200DF5124D08
:1022B80025B0BDE8F08300BF806C000810B5ADF50F
:1022C800924D96B004464022112102A803F0D4F999
:1022D80012AB184602A90022019300F03EFF8822A3
:1022E800112146A803F0C8F901F076FA019A44F6DC
:1022F800400146A801F0B5F801F076FA882246A90F
:102308002046FFF7EFFD0DF5924D16B010BD000009
:102318002DE9F04FADF53C4D87B01E460DF53C4319
:1023280040330DF5D8491B6802930DF5B8470DF5F4
:10233800AC7809F1180918370DF5305318330491A2
:10234800144646A942460546CDF804903EA8009793
:1023580000F0BAF90AA801F079F8402246A90AA8BB
:1023680001F076F8324621460AA801F071F80AA869
:1023780001F073F80AAA402166A801F072F8202239
:1023880000215EA803F078F980234246402176A810
:1023980001F06AF80DF5F8403EA9183000F04DFD3F
:1023A800384600F017FF484600F028FF0DF530507A
:1023B800183000F02AFE09AB4FF0000807931FFA07
:1023C80088F276A90DF6184000F060FD0DF5E05092
:1023D8004FF480520DF618411830FFF783FD0DF5C4
:1023E800E050183000F085FD0DF5E0520DF5F8418C
:1023F8000DF5705018321831183000F09FFD0DF5AA
:102408007050183000F0CDFD0DF57050183000F008
:102418000EFE0DF57050183000F0D5FD0DF5705218
:1024280018320DF598411046183100F022FE0DF5CE
:1024380070511831284600F02CFE0AA801F006F861
:10244800402266A90AA801F003F84FF44072294611
:102458000AA800F0FDFF0AA800F0FFFF0AAA202141
:10246800284600F0FEFF0DF5067B29460DF5836032
:102478000DF6180A00F0B7FA0DF583625946504672
:1024880000F084FE0DF5836000F0F1F90DF5B84316
:102498000DF5E05018335A465146183000F0C4FE86
:1024A8000DF5E051183108460DF6184200F011FDFF
:1024B8000DF5E050183000F0FAFC0DF5E0504049F9
:1024C800183000F04DFD0446002876D10DF5E05196
:1024D8001831284600F040F9079BCDE905BA1C6081
:1024E800264627460DF5E050DDE9052109EB0403F2
:1024F800183000F085FE0DF59843183303EB040BF4
:102508000DF5E05259461832584600F0A2F95846DF
:1025180000F08DF92B49584600F0E6F900284CD117
:102528000DF5305318330DF5E0501A190DF5836188
:10253800183000F0A0F90DF5E050183000F099F9C6
:102548000DF5E050183000F072F90DF5E0504FF439
:10255800BA31183000F0C8F9824670BB0DF5E05268
:1025680018325946584600F066F90DF5705318337D
:102578000DF5E0501A195946183000F09EF9074435
:10258800502F1AD80DF5E051324609AB18312846BC
:10259800013600F0F2F8042E04F58064A2D1284632
:1025A80009A900F0FFF8049A40F674135046136026
:1025B8000DF53C4D07B0BDE8F08F08F10108FEE6C7
:1025C800B2FF0100B273010073B50D461C46D11865
:1025D80003F67413034491420FD1079B0193069BA2
:1025E800009300F6741223462946FFF791FE2B68E4
:1025F800002023442B6002B070BD11F8016D03F870
:10260800016DE8E770B50346154601384A1E1F31CB
:1026180012F8014F00F8014F8A42F9D103F1200660
:1026280003F5A4642946304606F5A07600F076FA4C
:10263800A64205F58065F5D170BDF8B505466C1E56
:10264800481E1F3110F8016F04F8016F8842F9D154
:10265800591E05F11F001F3311F8014F00F8014FF3
:102668009942F9D1531E05F13F013F3213F8010F8A
:1026780001F8010F9342F9D1079E05F1800405F591
:10268800007731462046603400F006FABC4206F571
:102698008066F6D1089E05F560773146204660349D
:1026A80000F0FAF9BC4206F58066F6D1069E05F5FB
:1026B80020653146204604F5D07400F04FFAAC424C
:1026C80006F58066F5D1F8BD2DE9F041089D1E4656
:1026D8006C1E013805F11F0314F8017F00F8017F13
:1026E8009C42F9D1013A05F13F0314F8010F02F8B1
:1026F800010F9C42F9D1013905F17F0314F8012F2C
:1027080001F8012F9C42F9D1069F05F1800405F5D7
:10271800007821463846603400F09BFD444507F5B3
:102728008067F6D1079F05F5607821463846603402
:1027380000F08FFD444507F58067F6D105F5206563
:102748002146304604F5D07400F056FAAC4206F53E
:102758008066F5D1BDE8F08170B500F120060D4620
:1027680000F512642946304606F5107600F0C3FAE3
:10277800A64205F58065F5D170BD30B500F512604B
:10278800002451F8245025B11D6844551D680135B1
:102798001D600134B4F5807FF3D110441B6880F8C4
:1027A800503030BD00F5126000220B684F2B00D965
:1027B8007047C2540B6801330B60F6E7F0B54FF071
:1027C800CD0C0646571E02F18704002017F8013F7A
:1027D80003F00F0EBEF10F0F4FEA131323D01EFBA9
:1027E8000CF2920A02EB8202CEF1020E72440F2B17
:1027F80046F8202000F1010511D08D4211D213FBBB
:102808000CF2920A02EB8202C3F102031A4446F860
:102818002520681C814201D9A742D7D1F0BD28469E
:10282800F8E72846FAE70F2BF4D00546E7E7FFF765
:102838003BBAFFF7E9BA30B5002351F8234052F804
:1028480023502C4440F823400133B3F5807FF4D162
:1028580030BD30B5002351F8234052F82350641B93
:1028680040F823400133B3F5807FF4D130BDFEF743
:1028780085BCFEF767BFFFF783B9FFF7C3B9F8B5A3
:1028880005460E46174600243959301900F010FC49
:1028980028510434B4F5806FF6D1F8BDF8B5054673
:1028A8000E46174600243959301900F00BFC285100
:1028B8000434B4F5806FF6D1F8BD2DE9F041002558
:1028C80006460F4690462C4658F8241057F8240020
:1028D80000F01AFC46F824000134B4F5807F054462
:1028E800F2D12846BDE8F0810A4B994210B50EDCBA
:1028F800021F00F57F7052F8043FDC1704EA430416
:102908001B1B994203DD8242F5D1002010BD012036
:10291800FCE700BF00FC0F002DE9F041ADF5846D28
:102928000746684600F000FC6A464FF4527135A825
:1029380000F089FD4FF4527335AA4FF48071384680
:10294800FFF7AAFA4FF4527504464FF00308FF2C1C
:1029580003D90DF5846DBDE8F081B5FBF8F202EB03
:102968004202A91A35AB0026521B8E4211D135AB53
:1029780098196A46A82106F1A80500F064FDC4F577
:10298800807107EB84002B4635AAFFF785FA0444CB
:10299800DDE7E8180136805C03F8010BE5E730B5A0
:1029A800D7B0054622A800F0D8FB22AA882168469D
:1029B80000F057FD6A464FF480712846FFF7FEFE87
:1029C8000446FF2C01D957B030BD22AA8821684699
:1029D80000F047FDC4F5807105EB84006A46FFF7F7
:1029E800EDFE0444EDE7F0B5D7B00C46054622A845
:1029F80000F02CFD2146202222A800F029FD22A863
:102A080000F02BFD22AA8821684600F02AFD002349
:102A18006E461C461F4616F8011BA3F12002C3F19F
:102A2800200001FA02F221FA00F09940083302432B
:102A3800402B44EA010447EA0207ECD100214FF495
:102A48008062284602F018FED9260821872921D954
:102A580022AA8821684600F004FD00231DF80320FF
:102A6800B24203F10101F1D855F8223045F8263079
:102A780004F001035B000136C3F101036408B6F5F5
:102A8800807F44EAC77445F822304FEA5707DDD102
:102A980057B0F0BD0B46E1E72DE9F04101F580653F
:102AA8008B684C694F68CA698E69C3F102035FFA83
:102AB80083FCCB68C3F102035FFA83FE0B69C3F1A1
:102AC8000203DBB21B01C7F10207C4F1020443EAA7
:102AD8004E035FFA87F8E4B2C2F102024FEA8C179C
:102AE80043EA9C0347EAC80743EAC41351F8208B1A
:102AF8004370C6F10206D2B2F6B25301C8F1020819
:102B080043EA860347EA080743EA54038D420770FD
:102B1800837000F10300C3D1BDE8F08110B501F561
:102B280080620B680370D1E900439B0043EA2423C9
:102B38004370D1E901431B0143EAA4138370D1E92F
:102B480002439B0143EA2413C370CB6810319B10E6
:102B58009142037100F10500E3D110BD2DE9F04366
:102B680000F5D07C4D694C680F688E68CA680B699F
:102B7800C4F58054C5F580588D69C7F580574FEA6C
:102B88004419C5F5805ECD69077049EA1727477073
:102B9800C6F58056E7088770B700C2F5805247EA45
:102BA800D424C470D401C3F5805344EA961654085B
:102BB80044711C0144EA522282711A09C2714FEA17
:102BC800480242EA133303724FEA8E1343EAD813DA
:102BD8004372C5F580554FEA9E038372EB0043EAC2
:102BE8009E236D090671C37205730D30844501F18A
:102BF8002001B7D1BDE8F0832DE9F04300F5806CE2
:102C08000F7807604B7847EA0327C7F30C0707607C
:102C18004D786D0945608B7845EAC3054560CB78EA
:102C280045EAC325C5F30C054560CE78B60886602D
:102C38000B7946EA8316C6F30C0686600C79E4091C
:102C4800C4604B7944EA4304C4608B7944EA432462
:102C5800C4F30C04C4608A7912090261CB7942EA90
:102C6800031202610B7A42EA0332C2F30C020261D8
:102C78000B7A5B08436191F809E043EACE13C3F38A
:102C88000C0EC0F814E04B7A9B09836191F80A8016
:102C980043EA8803836191F80B8043EA8823C3F3EE
:102CA8000C03836191F80B804FEAD808C0F81C80A8
:102CB80091F80C90C2F58052C3F5805348EA491840
:102CC80002618361C7F58057C5F58055C6F5805602
:102CD800C4F58054CEF58052C8F58053076045602E
:102CE8008660C4604261C3612030604501F10D0116
:102CF80086D1BDE8F083F0B500F510760D684C6814
:102D08008A68CB68C5F50035C4F500342F0A4770CA
:102D1800A700057047EA1545C2F500328570A50978
:102D2800C570150145EA9434C3F5003304711409DC
:102D380044719C0144EA123282719A089B0AC2715A
:102D480003720930864201F11001D7D1F0BDF0B508
:102D580000F580660C7804604B7844EA032404602C
:102D68008B7844EA0344C4F3110404608A78920817
:102D78004260CB7842EA831242600B7942EA83329E
:102D8800C2F3110242600B791B0983604D7943EA53
:102D9800051383608D7943EA0533C3F31103836018
:102DA8008D79AD09C560CF7945EA8705C5600F7A89
:102DB80045EA8725C4F50034C2F50032C3F500336F
:102DC800C5F50035046042608360C5601030B042CC
:102DD80001F10901BED1F0BD10B5ADF55E7D044627
:102DE800684600F0BAF96A4634A84FF42A7100F030
:102DF80038FB34A92046FFF7AAFF0DF55E7D10BD0C
:102E080010B500F1C0020B6803704C6843EA8413E4
:102E180003704B689B1043708C6843EA041343703B
:102E28008B681B118370CC6843EA8403837003307A
:102E3800904201F11001E6D110BD2DE9F843064694
:102E4800884600252F02BFB206EB053900243A193F
:102E580009EB842092B241460134FFF75DFD042C52
:102E6800F5D10135042DEDD1BDE8F883F8B5054657
:102E78000E46174600243A1905EB842092B23146D3
:102E88000134FFF78CFD042CF5D1F8BDF8B5950099
:102E980006460F46ADB200242A1906EB842092B2EA
:102EA80039460134FFF798FF042CF5D1F8BD10B569
:102EB8000446FFF7BCFC04F58060FFF7B8FC04F596
:102EC8000060FFF7B4FC04F54060BDE81040FFF770
:102ED800AEBCF8B505460E46174600243A19311916
:102EE800281904F58064FFF7A6FCB4F5805FF5D1D6
:102EF800F8BD10B50446FFF7BAFC04F58060FFF78B
:102F0800B6FC04F50060FFF7B2FC04F54060BDE8CC
:102F18001040FFF7ACBCF8B505460E461746FFF75C
:102F2800AAFC4FF480643A193119284604F58064E4
:102F3800FFF7A3FCB4F5805FF5D1F8BDF8B51646E8
:102F480004460D4600F5805729462046324604F5CA
:102F58008064FFF7E0FFBC4205F58055F4D1F8BD69
:102F680070B50D46044600F5805629462046FFF701
:102F7800BBFC20B904F58064B442F6D170BD0120D1
:102F8800FCE7F8B505460E46174600243A1905EB46
:102F9800842092B231460134FFF701FD042CF5D1AB
:102FA800F8BD10B50446FFF742FC04F58060FFF752
:102FB8003EFC04F50060FFF73AFC04F54060BDE80C
:102FC8001040FFF734BC10B50446FFF732FC04F597
:102FD8008060FFF72EFC04F50060FFF72AFC04F57B
:102FE8004060BDE81040FFF724BCF8B505460E4622
:102FF800174600243A193119281904F58064FFF797
:103008001AFCB4F5805FF5D1F8BD10B50446FFF79A
:103018002EFC04F58060FFF72AFC04F50060FFF73A
:1030280026FC04F54060BDE81040FFF720BC10B551
:103038000446FFF71EFC04F58060FFF71AFC04F550
:103048000060FFF716FC04F54060BDE81040FFF78C
:1030580010BCF8B505460E46174600243A19311932
:10306800281904F58064FFF70AFCB4F5805FF5D1F0
:10307800F8BDF8B505460E46174600243A19311929
:10308800281904F58064FFF709FCB4F5805FF5D1D1
:10309800F8BD70B504460D4600F540762946204631
:1030A800C034FFF7ADFEB44205F58065F6D170BDBA
:1030B80001F6FF7222F4FF5323F01F03C91A0160BF
:1030C8005013704701F17F0342F60B42DB11534363
:1030D80003F500031B16C3F12B02D21723EA0203E0
:1030E800074A10B502FB0311C1F57F14054A04F520
:1030F800405402EAE472891A0160184610BD00BF04
:103108000018FDFF01E07F0000F5BA33B3F53A3F40
:1031180006D810F5BA3F05D1081E18BF0120704720
:10312800012070470020704737B504460D468DF8DA
:103138000420120A8DF8052000F07AF92946204665
:10314800202200F077F9022201A9204600F072F946
:10315800204600F074F903B030BD37B504460D467B
:103168008DF80420120A8DF8052000F06FF9294621
:103178002046402200F06CF9022201A9204600F006
:1031880067F9204600F069F903B030BD37B5002370
:1031980004460D4652F8231044F823100133B3F5C2
:1031A800807FF7D12046094940F201134FF0FF1202
:1031B800FDF770F8064B00934FF0FF1240F2011331
:1031C80021462846FCF7FCFF03B030BD085B000829
:1031D800E85C000870B5084E044600F580552046A6
:1031E80040F201134FF0FF12314604F58064FDF7F9
:1031F80051F8AC42F3D170BD085B0008FFF7EABF95
:1032080070B50D460446194613462A46FDF71CF8C4
:1032180020460449BDE8704040F201134FF0FF1208
:10322800FDF7DCBBE85D00082DE9F04105460E46D8
:1032380017469846002408EB040328193A463146F5
:1032480004F58064FFF7DCFFB4F5805FF3D1BDE8D7
:10325800F0812DE9F04100F580650F7807F0070748
:1032680007600E78C6F3C20646604B780A789B0062
:1032780043EA921303F00702826091F801E0CEF36B
:10328800420EC0F80CE091F801C0CCF3021CC0F863
:1032980010C08B784C785B0043EAD41303F0070323
:1032A80043618C78C4F38204846191F80280C2F18E
:1032B80002028260C3F10203CEF102024FEA5818FB
:1032C800C2604361C7F10207C6F10206CCF10202EF
:1032D800C4F10204C8F10203076046600261846118
:1032E800C3612030A84201F10301B6D1BDE8F081E5
:1032F80010B5C8220021044602F0BEF900220023BE
:10330800C4E9322310BD37B58DF80720D0E9322340
:103318004D1E002B08BFAA42044610D19DF8073065
:1033280063F07F038DF807300DF10701012300F0EA
:103338000AFF00220023C4E9322303B030BD012371
:103348000DF1070100F0FFFE80238DF807302A46B3
:1033580001230DF107012046E9E72DE9F84304466A
:103368000F4616461D464FF000084FF00009D4E9F5
:103378003223A91843F10003B94273F100030DD2B7
:103388002B463146204600F0DEFED4E932325B1986
:1033980042F10002C4E93232BDE8F883BB1A314673
:1033A800204600F0D0FED4F8C8302046DA1BC4E925
:1033B8003289FB1A15441E4400F0ECFED7E72DE9CC
:1033C800F84314469846D2E932230D4691424FF00D
:1033D800000171EB03032CBF16462E460746334601
:1033E800A8EB02020146204600F08CFED4E93232F6
:1033F8009B1B62F10002C4E932323744AD1B4FF027
:1034080000090DB9BDE8F883204600F0C3FE454524
:103418002E4628BF464633463946002220463744C2
:10342800AD1BA8EB060600F06DFEC4E93269E8E7BB
:10343800FFF75EBF13460A46A821FFF78EBF1F227B
:10344800A821FFF760BFA823FFF7B9BFFFF750BF58
:1034580013460A468821FFF780BF1F228821FFF7FD
:1034680052BF8823FFF7ABBFF0B5B5B00446164688
:103478001F4668460D46FFF73BFF3B463246684607
:103488008821FFF76AFF68461F228821FFF73BFF64
:1034980088236A4629462046FFF791FF35B0F0BDDC
:1034A8000346014400208B4200D1704713F8012BDA
:1034B8005040082210F0800F4FEA400018BF80F0FB
:1034C8004D00013AC0B2F5D1EDE730B5002204460F
:1034D80001238B4201D3002030BD14F8015F15B9D8
:1034E8009D1A85541A460133DBB2F2E710B502780B
:1034F8000024034604701046884200D202B910BD69
:103508001A5C1C541044C0B2F6E7704738B50C4D2D
:103518002B687F2B04DD612000F080F9012038BD85
:10352800B1F5007F01D36220F6E70C2404FB0354B5
:1035380001332071C4E902122B600020EFE700BFBD
:103548006008001070B5ADF5007D0C4600251146E9
:103558008DF8010022460DF103008DF802408DF828
:103568000050FEF7BFFCA11CC9B20DF10100FFF726
:1035780097FF0DEB0403261D611DD870C9B268467C
:103588000DF80650FFF7A1FF6C4614F8010B013542
:1035980000F044F9AE42F8DA0DF5007D70BD000088
:1035A8002DE9F047ADF5027D002502AE8DF80750F4
:1035B800344600F021F9C0B206F8010B60B90523C2
:1035C8008DF807300DF1070205216520FFF7BAFFD6
:1035D8000DF5027DBDE8F0870135042DE9D12946B6
:1035E8002046FFF783FF284F61783A68804600231A
:1035F8000C205FFA83F9914502DB07D10723DFE747
:1036080000FB0976013336798E42F2D1E37805332F
:10361800434502DA0B23D3E7354600F0EDF8C0B294
:10362800605508B90C23CBE7E3786E1C0433B3422A
:10363800F2DA00F0E1F8C0B2A05508B10D23BFE7F7
:10364800C8F1010151FA86F1C9B25FFA86FA04EBB2
:103658000800FFF74BFFAAF10201C9B20DF10900FA
:10366800FFF71EFF635D834201D00E23A8E70C23FA
:1036780003FB0977E278FD68A17860786B44A84776
:103688008DF807009EE700BF6008001030B51F4A9C
:10369800D2F8883043F47003C2F8883093B003221C
:1036A8004FF4A023CDE9062302214FF48003CDE98E
:1036B8000C130C20C423CDE90E0304240723012591
:1036C80006A8CDE91043099500F0C0F8044600B1FA
:1036D800FEE70146CDE903000F23059001A8CDE9D7
:1036E800013500F053FA0A4B00945A6B094842F02E
:1036F80040025A635B6B03F040030093009B064B48
:103708000360447100F0E1FC13B030BD00ED00E04F
:1037180000380240640E00100008065030B502233D
:1037280089B04FF4C062CDE903230122CDE9052316
:10373800154C16480025072301950793236B13435F
:103748002363236B1340019303A9019B00F0B6FA8E
:103758000F48104902954FF46133C0E90313C0E9DB
:1037680005550C23C56145620362636C43F0100381
:103778006364636C03F0100302930C30029B00F047
:1037880089FB09B030BD00BF00380240000002408C
:10379800640E0010001001407FB50D4B0D4800214C
:1037A80000911A6B42F001021A631B6B039103F03C
:1037B80001030093009B4FF480520123CDE90123BC
:1037C80001A90223049300F079FA07B05DF804FB1D
:1037D8000038024000000240024801224FF48051A4
:1037E80000F052BB00000240024800224FF4805112
:1037F80000F04ABB0000024013B5074C41F2883381
:1038080001220DF10701204600F0F7FB0028F5D151
:103818009DF8070002B010BD700E001007B541F208
:1038280088338DF8070001220DF10701024800F0E6
:103838009FFB03B05DF804FB700E0010024B186884
:10384800421C1A60704700BF000F0010036873B570
:10385800DE0701463BD40B689D0700F18B800B689F
:10386800180700F1D6800B685A072AD50023019360
:10387800914B924C1A6C42F080521A641B6C03F004
:1038880080530193019B236843F480732360FFF7FF
:10389800D5FF05462368D80540F1DF808B68864C44
:1038A800012B40F0E180236F43F001032367FFF70A
:1038B800C5FF814D044641F288362B6F9A0740F1C7
:1038C800F4808A69002A40F0FF80002015E07A4BD6
:1038D8009A6802F00C02042A07D09A6802F00C02D7
:1038E800082A0CD15A68540209D5734B1B689803EF
:1038F800B1D54B68002BAED1012002B070BD4A682B
:10390800B2F5803F12D11A6842F480321A60FFF78C
:1039180095FF694D6A4E04462B689A039BD4FFF7BE
:103928008DFF001BB042F7D90320E6E7624CB2F5E1
:10393800A02F236807D143F480232360236843F42E
:1039480080332360E3E723F480332360236823F480
:1039580080232360002ADAD1FFF770FF584E05460E
:1039680023689B037FF577AFFFF768FF401BB042E2
:10397800F6D9D9E7504B9A6812F00C0F07D09A681D
:1039880002F00C02082A16D15B68580213D44A4880
:1039980003689A0702D5CB68012BADD10468F823D8
:1039A80093FAA3F3B3FA83F20B69934024F0F80275
:1039B8001343036053E7CA68424BDAB101221A6025
:1039C800FFF73CFF3C4C054623689B070CD5206855
:1039D800F82393FAA3F3B3FA83F20B69934020F028
:1039E800F802134323603AE7FFF728FF401B022839
:1039F800EAD999E71A60FFF721FF2F4D04462B6893
:103A08009E077FF52CAFFFF719FF001B0228F6D998
:103A18008AE74A692B4B82B10122C3F8802EFFF74F
:103A28000DFF254D04466B6F9B073FF51CAFFFF755
:103A380005FF001B0228F6D976E7C3F8802EFFF7AA
:103A4800FDFE1D4D04466B6F9E077FF50CAFFFF71B
:103A5800F5FE001B0228F6D966E7FFF7EFFE401BCC
:103A680002287FF617AF5FE7052B04D1236F43F0D9
:103A78000403236717E7226F22F001022267226FEF
:103A880022F004022267002B7FF411AFFFF7D6FE65
:103A980041F288360546236F9B077FF512AFFFF783
:103AA800CDFE401BB042F6D93EE7FFF7C7FE001B2C
:103AB800B0427FF602AF37E700380240007000409E
:103AC80000E1F505000047422D4CA36803F00C0304
:103AD800082B3FF411AF2B4B022A4FF000021A6655
:103AE80040D1FFF7ABFE284E05462368980133D432
:103AF80047F6C07696FAA6F64FF44032B6FA86F63E
:103B080092FAA2F24FF07060B2FA82F590FAA0F041
:103B1800D1E9073213434A6AB24013438A6A52080A
:103B2800013AAA401343CA6A174DB0FA80F002FA64
:103B380000F003436360134B114C01221A66FFF730
:103B48007DFE014623689A013FF5BFAEFFF776FE7A
:103B5800401AA842F6D9E7E6FFF770FE401BB042CC
:103B6800C3D9E1E6FFF76AFE074D014623689B01CA
:103B78007FF5ABAEFFF762FE401AA842F6D9D3E64E
:103B8800003802400000474280841E00F8B5494BC7
:103B98001A6802F00F028A4204461AD32268900774
:103BA80020D4D20726D4434B1A6802F00F028A4267
:103BB80070D82068430775D410F0080011D03E4A29
:103BC8002169936823F4604343EAC10393600020AA
:103BD80007E0CAB21A701B6803F00F038B42DDD0EE
:103BE8000120F8BD3448A568836823F0F0032B430F
:103BF8008360D6E76268304B012A1DD11B6813F435
:103C0800003FEDD02C4DAB6823F003031343AB60AA
:103C1800FFF714FE6368012B064641F2883715D179
:103C2800AB6803F00C03042BBDD0FFF707FE801B25
:103C3800B842F5D90320D4E7901E01281B6802D8A2
:103C480013F0007FDDE713F0020FDAE7022B0AD149
:103C5800AB6803F00C03082BA5D0FFF7EFFD801B22
:103C6800B842F5D9E6E7032B0FD1AB6803F00C0394
:103C78000C2B98D0FFF7E2FD801BB842F5D9D9E7A5
:103C8800FFF7DCFD801BB842D4D8AB6813F00C0FEB
:103C9800F6D188E7CAB21A701B6803F00F038B428B
:103CA8009ED186E70449E3688A6822F4E0521A4301
:103CB8008A6081E7003C0240003802402DE9F74F56
:103CC800DFF8B4816D4ADFF8B89100230C6801274A
:103CD8009F4007EA040537EA040440F0B9804C68BD
:103CE80024F0100ABAF1020F16D14FEAD30E00EBF6
:103CF8008E0E03F0070BDEF820604FEA8B0B4FF0B7
:103D08000F0C0CFA0BFC26EA0C0C0E6906FA0BF6E3
:103D180046EA0C06CEF82060D0F800B04FEA430E11
:103D28004FF0030C0CFA0EFC2BEA0C0B6FEA0C0696
:103D380004F0030C0CFA0EFC0AF1FF3A4CEA0B0CE7
:103D4800BAF1010FC0F800C016D8D0F808C0D1F8F1
:103D58000CA006EA0C0C0AFA0EFA4AEA0C0CC0F897
:103D680008C0D0F804C02CEA0707C4F3001C0CFAFA
:103D780003FC4CEA07074760C76837408E6806FAB5
:103D88000EF63E43C660E60062D500260196D8F8D6
:103D9800447047F48047C8F84470D8F8447007F472
:103DA80080470197019F23F0030707F1804707F534
:103DB8009C3703F0030ED7F808A04FEA8E0E4FF099
:103DC8000F0C0CFA0EFC2AEA0C0CDFF8B8A05045D0
:103DD8001DD006F1804606F50136B0423FD006F503
:103DE8008066B0423DD006F58066B0423BD006F50D
:103DF8008066B04239D0484539D006F50066B042F1
:103E080037D006F58066B0420CBF0726082606FAAA
:103E18000EF646EA0C06BE601668EF4314F4803FBF
:103E28000CBF3E402E431660566814F4003F0CBF8A
:103E38003E402E435660966814F4801F0CBF3E40E7
:103E48002E439660D668A40254BF3E402E43D660E7
:103E58000133102B7FF43AAF03B0BDE8F08F012691
:103E6800D5E70226D3E70326D1E70426CFE70526C0
:103E7800CDE70626CBE700BF00380240003C0140F2
:103E880000140240000002400AB181617047090431
:103E9800FBE7000070B5002866D090F8393003F0D1
:103EA800FF020BB980F838200168C2680569C46947
:103EB800242380F83930CB6823F40053CB600B6996
:103EC80023F4405313430B618368CA682B43456945
:103ED80022F416422B4322F00C0223431343CB60F7
:103EE8004B69826923F440731343B4F5004F4B6167
:103EF8001E4A43684FF0640528D15B00B2FBF3F219
:103F0800B2FBF5F605FB1622D3003233B3FBF5F30B
:103F180003F007025B0002EB061203F4F873134484
:103F28008B600B6923F490430B614B6923F02A03E0
:103F38004B61CB6843F40053CB6020220023C3635A
:103F480080F8392080F83A20184670BD9B00B2FBF3
:103F5800F3F2B2FBF5F605FB16231B013233B3FB74
:103F6800F5F303EB0613DBE70120EEE7906EFB0A9F
:103F780090F83930202B3ED100293AD0002A38D089
:103F880090F83830012B36D0012380F838300023E0
:103F9800C363212380F8393003688284C284C28CC9
:103FA80092B252B91A685206FCD5202380F83930EB
:103FB800002380F8383018467047C28C013A92B214
:103FC800C2848268B2F5805F0CD11A681206FCD5EB
:103FD8000A88C2F308025A6002690AB90231DEE7A8
:103FE8000131DCE71A681206FCD511F8012B5A607A
:103FF800D5E7012070470220704710B590F83A3095
:10400800202B44D1002940D0002A3ED090F83830E7
:10401800012B3CD0012380F838300023C3632223CE
:1040280080F83A308285C285C38D9BB233B920228D
:1040380080F83A2080F83830184610BDC38D0268E1
:10404800013B9BB2C3858368B3F5805F11D11368C8
:104058009C06FCD50369526833B90B46C2F30802C3
:1040680023F8022B1946DFE70B46D2B223F8012BBF
:10407800F8E713689B06FCD5046952684B1C0CB919
:104088000A70EFE702F07F02FAE70120D5E7022085
:10409800D3E700000A4A116808B5034609B9094977
:1040A80011601068694603448B4206D901F002F892
:1040B8000C2303604FF0FF3008BD1360FCE700BF1E
:1040C800040F0010480F0010704710B50446A8B13F
:1040D8000379012B14D0437903F0FF0213B902715D
:1040E800FFF7F2FF226802236371136843F00403A9
:1040F8001360002001236371207110BD0120FCE7CB
:104108000220FAE7F0B50B44521A994200D1F0BDEB
:10411800541824F00706E508064404F00704D6F806
:1041280004C050F83550E400C4F12007A4F120067B
:104138000CFA07F725FA04F43C432CFA06F6344344
:1041480001F8014BE1E7F0B50B44521A994200D14E
:10415800F0BD54184FEAD40C24F0070704F0070404
:1041680011F8016BE400A4F12005C4F1200E074406
:1041780006FA05F526FA0EFE06FA04F450F83C6035
:1041880074407E6840F83C4045EA0E0575407D6005
:10419800DCE700002DE9F04FBFB003680C934368DB
:1041A8000D9383680E93C3680F9303691093436953
:1041B800119383691293C3691393036A1493436A2F
:1041C8001593836A1693C36A1793036B1893436B0B
:1041D8001993836B1A93C36B1B93036C1C93436CE7
:1041E8001D93836C1E93C36C1F93036D2093436DC3
:1041F8002193836D2293C36D2393036E2493436E9F
:104208002593836E2693C36E2793036F2893436F7A
:104218002993836F2A93C36F2B93D0F880302C9304
:10422800D0F884302D93D0F888302E93D0F88C3085
:104238002F93D0F890303093D0F894303193D0F851
:1042480098303293D0F89C303393D0F8A0300B9349
:10425800D0F8A4303493D0F8A8303593D0F8AC30E7
:104268003693D0F8B0303793D0F8B4303893D0F8CC
:10427800B8303993D0F8BC303A93D0F8C0303B937B
:10428800D0F8C460014B019302E000BFC06B000886
:10429800169A0C9B179953400D9A82EA0105209AA9
:1042A8005340219A55402A9A53402B9A55400B9ACD
:1042B8005340349A099355400E9B189A83EA020991
:1042C8000F9B199A83EA0208229B1A9A89EA030922
:1042D800239B88EA03082C9B89EA03092D9B88EA1B
:1042E8000308359B89EA0309369B88EA0308109B73
:1042F80083EA020C119B1B9A83EA0207249B259AE6
:104308008CEA030C57402E9B2F9A8CEA030C5740DB
:10431800379B389A8CEA030C5740129B1C9ADDF89D
:104328007CE083EA0204139B1D9A83EA0201269A21
:10433800149B5440279A5140309A5440319A514026
:10434800399A54403A9A51401E9A5A40159B83EA2A
:104358000E0E289B5A40299B8EEA030E329B5A4028
:10436800339B8EEA030E3B9B4FEA490B5A404BEABC
:10437800D87B4FEA480A8EEA060E8BEA02034AEA1D
:10438800D97A02938AEA0E0303934FEA4C0B099BEE
:104398004BEAD77B4FEA470A4AEADC7A8BEA0303FF
:1043A80004938AEA05034FEA410A4AEAD47A059354
:1043B8008AEA08034FEA4E0848EAD278520042EAED
:1043C800DE72069382EA0C03079388EA07030893D0
:1043D800099B6A0042EAD3725B0043EAD5736340E3
:1043E800099382EA01034FEA440B0C9A0A93029B51
:1043F8004BEAD17B8BEA090B83EA0209039B0D9AEE
:104408000699259C319F83EA020A189A049B83EA3D
:10441800020E199A059B83EA020C249A8BEA02027F
:104428004C404FEA525848EAC428640D44EAC22472
:104438003099079A5140089A4FEA1E5545EA0C35BB
:104448007A404FEA1C5C4CEA0E334FEA425E4EEA71
:10445800D12E490541EAD2213B9F099A57400A9A31
:104468005640BA0342EA96424FEA863C019E4CEA1D
:10447800974CD6E900768AEA06060D9689EA070778
:1044880028EA05067E400D9F0C9624EA030677402D
:104498002EEA04065E400D9721EA08076F4025962C
:1044A80025EA09052CEA0E0623EA0A03744083EA82
:1044B8000C0329EA0206249722EA01076A407140A0
:1044C8003C9430922AEA0C04129A3193079B189173
:1044D80087EA080784EA0E015A403B971991089B1E
:1044E8001399219C389F59404FEA017C4CEA121CD1
:1044F800120742EA111E099B1E9A209983EA0208B4
:104508001F9A0A9B83EA0206029A4A4003994C4082
:104518004FEAC40949EA5279D20042EA54742C9904
:10452800049A350545EA18354FEA085848EA16331B
:1045380051402D9E059A4FEAD148724048EA4238C8
:10454800D20C42EA413237998BEA01060699794042
:10455800F70847EA417724EA030AC90841EA46719D
:104568008AEA0E0A29EA050686EA0C06CDF8B0A002
:1045780028EA040A8AEA030A2D9622EA09066E4006
:10458800CDF848A027EA080A8AEA0404139621EA23
:104598000206209486EA09042EEA070623EA0E0E8C
:1045A8008EEA070325EA0C0521942CEA01046240EF
:1045B8001E9385EA010338921F930E9A049B83EA9F
:1045C8000209059B0F9A83EA02051A9B86EA0806E8
:1045D8008BEA03023796069B1B9983EA0107BE0103
:1045E80046EA9266920142EA97632699079A82EA16
:1045F80001072799089A4FEA450C4CEAD97C4A40AA
:104608004FEA4909790649EAD57441EAD211329D3F
:10461800DDF8D0904FEA4268099A48EAD718554021
:10462800339F0A9A7A404FEA022E4EEA156E2D02FF
:1046380045EA12650B9F029A7A40039F87EA0909A7
:104648004FEA894747EA923721EA030A920442EA85
:1046580099328AEA040A28EA060989EA0C09CDF897
:1046680068A025EA010A8AEA030ACDF86C9023EAD1
:1046780004032EEA080989EA0609534026EA0C06CB
:10468800CDF8C8A022EA050A8AEA0101CDF8CC9043
:10469800349327EA0E0986EA07030E913D9389EAC7
:1046A8000801099B0F9124EA0208149A2CEA0701D1
:1046B80083EA02070A9B159A83EA0206169A029B66
:1046C80081EA0E0153402791039A17994FEAC66E63
:1046D8004EEA571EFF0647EA561C51401E0F46EA8F
:1046E800011688EA0505090F41EA03112695049B7E
:1046F800229A399F83EA0204239A059B83EA0205DA
:104708004FEA852848EA9458A40244EA9555069A3F
:104718002F9C2E9B54408BEA0303E20342EA534248
:10472800DB0343EA5443079C84EA07093A9F089C41
:104738007C404FEA192747EA046725EA060A240A53
:1047480044EA09648AEA0C0A28EA010989EA0E0996
:10475800CDF8E4A023EA050A8AEA060ACDF8E8902B
:1047680022EA080989EA0109CDF858A027EA030ACC
:104778008AEA0505CDF85C9024EA02092E9589EAB3
:1047880008052CEA070888EA03032F952EEA040592
:1047980026EA0C0C149385EA020321EA0E0115930C
:1047A8008CEA0703229381EA04032393109B119A4E
:1047B8008BEA0309069B83EA020A079B1C9A83EA91
:1047C800020C089B1D9A83EA0207099B289A83EA30
:1047D8000204299A0A9B83EA0201029B2A9A4FEA59
:1047E800990683EA020B4FEA5C2E2B9A039B46EA52
:1047F8008A764EEAC75E4FEA9A0A7F0A47EACC559C
:104808004AEA89794FEA546C83EA020A359A049B8A
:104818004CEAC11C4FEADA57490E41EAC41847EA84
:104828004B274FEADB5183EA020B369A059B41EA94
:104838004A2183EA020A4FEA8B0343EA9A7228EA7A
:10484800050383EA09034FEA8A042CEA0E0A8AEA76
:10485800060A299321EA0C03CDF8A0A083EA0E03E7
:1048680027EA080A44EA9B7435938AEA05033693D3
:1048780024EA070383EA08031D9329EA04037B401B
:104888002B932EEA060322EA010A25EA0909534076
:104898008AEA0C0C109389EA0403CDF870C01193CE
:1048A80026EA020C0C9B2C9A8CEA01012A915A40A8
:1048B8002D990D9B83EA01061A99249B4A401B995E
:1048C8004E4039994A403A994E4028994A40299988
:1048D8004E40129983EA01091399259B83EA01083E
:1048E800329B2099DDF8F4E089EA0309339B88EAD2
:1048F8000308169B89EA0309179B88EA0308359B76
:1049080089EA0309369B88EA03083B9B83EA010C82
:104918003C9B219983EA01070E9B0F998CEA030CB3
:104928004F402E9B2F998CEA030C4F401C9B1D99DE
:104938008CEA030C4F40189B379983EA0105199BB1
:10494800389983EA010426991E9B4D4027994C40CB
:1049580014994D4015994C402A994D402B994C403B
:10496800349959401F9B83EA0E0E309B5940319B66
:104978008EEA030E229B5940239B8EEA030E109B5E
:104988004FEA490B5940119B4BEAD87B4FEA480A3A
:104998008EEA030E4AEAD97A8BEA01034FEA4C0BF6
:1049A80002934BEAD77B8AEA0E034FEA470A03933E
:1049B8004AEADC7A8BEA02034FEA450B04934BEA96
:1049C800D47B8AEA06034FEA440A05934AEAD57A71
:1049D8008BEA090306938AEA08034FEA4E0848EA75
:1049E800D178490041EADE71079381EA0C03089304
:1049F80088EA0703770047EAD277520042EAD6727C
:104A0800099382EA05030A9387EA0403029A0B933F
:104A18000C9B83EA02070D9B039A83EA020B129B05
:104A2800049A83EA020A139B059A4FEA1A5483EA06
:104A380002060E9B069A44EA0634360D46EA0A3602
:104A480083EA020A0F9B079A83EA0209149B089AD1
:104A580083EA020C159B099A83EA02054FEA4C5235
:104A680042EAD5220A9B4FEA455E109D5D404EEA18
:104A7800DC2E2B46119DDDF82CC085EA0C054FEA8B
:104A8800853C4CEA934C9B0343EA9543019DAD68F2
:104A98000C95019D4FEA5A5848EAC928ED684FEA33
:104AA800595949EACA21DDF8309028EA040A8BEA04
:104AB80005050D9587EA0909554689EA05090D9DF9
:104AC800CDF8309021EA060A85EA0A050D952EEA06
:104AD8000105754022EA08090F952CEA0E0589EAB6
:104AE8000409694027EA030524EA070726EA0B06B2
:104AF800CDF83890119123EA02092BEA0C016A409B
:104B08007B401292149381EA0E0286EA0C031392F8
:104B18001593089A189B83EA0201199B099A83EA5C
:104B2800020E4FEA0E7B1E9B0A9A4BEA111B0907DD
:104B380041EA1E1483EA020E1F9B0B9A83EA0205C0
:104B48001A9B029A2E0583EA020A039A1B9B46EADD
:104B58001E3689EA08084FEA0E5E4EEA153183EAE6
:104B68000209CDF84080169B049DDDF814C0DDF8DD
:104B78001CE06B404FEAC907179D47EA5A774FEA8E
:104B8800CA0A4AEA597285EA0C09DD0C45EA493530
:104B98004FEAD94949EA433ADDF818C01C9B83EA31
:104BA8000C0C1D9B4FEADC0883EA0E0348EA4378A5
:104BB80022EA010EDB0843EA4C738EEA040E27EA68
:104BC800060C8CEA0B0CCDF858E025EA020E8EEAAA
:104BD800010ECDF85CC02AEA070C8CEA060CCDF869
:104BE80060E028EA050E8EEA0202CDF864C023EAE6
:104BF8000A0C1A928CEA07021B922BEA030282EA39
:104C08000A0221EA040126EA0B0673401D9281EA92
:104C180008021E921F93049A249B24EA08077D40E9
:104C280083EA0207259B059A1C9583EA0206209BC6
:104C3800069A4FEA460883EA0204219B079A48EA43
:104C4800D7787F0047EAD67B83EA0206269B089A34
:104C580083EA0205279B099A83EA02016A0642EA67
:104C6800D112229B4FEA416A0A994FEA861C83EACD
:104C78000107239B0B994CEA946CA40144EA9669BA
:104C880083EA0104210241EA17613F0247EA1467F7
:104C9800289B029C4AEAD51A6340039D299C6C40D4
:104CA8004FEA844E4EEA933E9B0443EA94332AEA41
:104CB8000C0422EA090584EA080485EA0B05219414
:104CC80027EA020484EA0904209521EA0A052294C5
:104CD80085EA0C0423EA07056A4023942EEA0104B6
:104CE80029EA0B09249284EA0A022CEA080C2BEA26
:104CF8000304259289EA030328EA0E024A4028930E
:104D08008CEA0E03279229930A9A309B059983EA25
:104D180002050B9A319B53404FEAC36B4BEA551B74
:104D2800ED0645EA531C029A2C9B83EA020A2D9B46
:104D3800039A83EA0206329B049A5A40339B4FEA4D
:104D48001A7E4EEA061E83EA0109360F46EA0A165B
:104D58004FEA892A4AEA925A069993022E9A82EAD7
:104D6800010507992F9A43EA99537C4082EA010981
:104D780026942A9A08994FEAC93444EA5544ED031F
:104D880045EA59485140099D2B9A4FEA112982EA70
:104D9800050749EA07693F0A47EA016723EA0E015E
:104DA8002AEA060281EA0C0182EA0B022A9128EA21
:104DB800030181EA0E012B9224EA0A0272402C9127
:104DC80029EA08014B402D9227EA04022CEA09013E
:104DD8002E9382EA0A032F932BEA070281EA08033B
:104DE8002EEA0C0C309382EA040326EA0B06319370
:104DF8008CEA0903329386EA0703069A33933B9BAE
:104E0800089983EA02093C9B079A83EA0208379AC1
:104E18004FEA990C82EA0106389A0A994CEA887C8A
:104E28004FEA980848EA897382EA0508349A82EAC0
:104E380001053D9A0B994FEA556B82EA01044BEA4A
:104E4800C41B399A610E029C41EAC5116240039D58
:104E58003A9C84EA050A4FEADA5444EA4224049D5B
:104E6800D70D359A82EA0509369A059D4FEA562EDE
:104E78004EEAC85E47EA4A274FEA582882EA050AF6
:104E880048EAC6584FEA8A0646EA99752BEA0E029E
:104E98004FEA890949EA9A7A82EA0C0221EA080962
:104EA8000B9289EA0302349227EA0B0624EA0102EC
:104EB80086EA0E0682EA0802359636922AEA07063C
:104EC80025EA04024A4086EA0B062EEA0C0E3796BB
:104ED800389228EA030623EA05028EEA0A033B937E
:104EE800019B1033624001933A92404B019A2CEA9D
:104EF8000A0989EA07019342399186EA05067FF48F
:104F0800C7A90C9B03600D9B43600E9B83600F9B9E
:104F1800C360109B0361119B4361129B8361139BC8
:104F2800C361149B0362159B4362169B8362179BA4
:104F3800C362189B0363199B43631A9B83631B9B80
:104F4800C3631C9B03641D9B43641E9B83641F9B5C
:104F5800C364209B0365219B4365229B8365239B38
:104F6800C365249B0366259B4366269B8366279B14
:104F7800C366289B0367299B43672A9B83672B9BF0
:104F8800C3672C9BC0F880302D9BC0F884302E9BC3
:104F9800C0F888302F9BC0F88C30309BC0F8903018
:104FA800319BC0F89430329BC0F89830339BC0F8DE
:104FB8009C300B9BC0F8A030349BC0F8A430359BC4
:104FC800C0F8A830369BC0F8AC30379BC0F8B0307A
:104FD800389BC0F8B4303A9BC0F8BC303B9BC0F853
:104FE800B810C0E930363FB0BDE8F08F806C0008DB
:104FF800002103E00B4B5B58435004310A480B4B2C
:1050080042189A42F6D30A4A02E000231360043297
:10501800084B9A42F9D3AFF3008000F051F8FDF73E
:1050280073F8FEE7946D00080000001044080010B3
:1050380044080010480F0010FEE7000010B4044CAC
:1050480003460A46206810BC194600F003B800BFA2
:105058000000001010B502FB01F100F05DF80446F5
:1050680068B150F8042C22F00302043A242A18D814
:10507800132A06D802460023C2E90033936020466B
:1050880010BD00231B2AC0E900330FD9242AC0E928
:10509800023311BF00F11002036100F118024361ED
:1050A800E9E7002100F0E8FA204610BD00F1080207
:1050B800E1E700BF014B1868704700BF000000100F
:1050C80070B50D4E0D4D761BB61006D0002455F860
:1050D800043B01349847A642F9D1094E094D761B85
:1050E80000F000FDB61006D0002455F8043B01344A
:1050F8009847A642F9D170BD886D0008886D0008F0
:10510800906D0008886D0008024B0146186800F091
:1051180099BB00BF000000102DE9F04F01F10B060C
:10512800162E83B0044624D8102900F2BA8000F065
:10513800F5FA102618220220B54F3A44A2F10801C8
:1051480053688B4200F0BA805A68D96822F003028B
:105158001A449D68E9608D60516841F0010120465C
:10516800516003F1080500F0DFFA284603B0BDE8F6
:10517800F08F36F0070600F19480B14200F291807A
:1051880000F0CCFAB6F5FC7FC0F09A81730A00F003
:105198008F80042B00F26F81B30903F1390003F10A
:1051A800380CC3009A4F3B44A3F108055B689D4245
:1051B80006D10CE0002980F22781DB689D4206D0E9
:1051C8005A6822F00302911B0F29F3DD60463D69FE
:1051D800DFF840C265457CD06A6822F00302931B61
:1051E8000F2B00F37B81002BC7E904CC80F26C8184
:1051F800B2F5007F80F01A81D308796801334FEA4D
:10520800521E012202FA0EF20A4357F833E0C5F89B
:1052180008E007EBC3010839E9607A6047F83350C2
:10522800CEF80C50831001219940914257D8114271
:1052380006D120F003004900114200F10400FAD021
:1052480007EBC0094D468646D5F80C80454508D180
:105258001DE1002B80F22481D8F80C80454500F030
:105268001681D8F8042022F00302931B0F2BF0DDDF
:105278002046D8E9025408EB060146F00106C8F8B2
:105288000460EC60A56043F00104C7E90411C1E9BA
:1052980002CC4C6048F8023000F046FA08F10805E4
:1052A80002E00C2323600025284603B0BDE8F08FF8
:1052B8004FF4007340204FF03F0C73E7D3689A42D5
:1052C80008BF02307FF440AF3D69DFF848C165454B
:1052D80082D17A688310012199409142A7D9BD688B
:1052E8006B6823F003094E4503D8A9EB06030F2B7F
:1052F8007ADCDFF824B1494BDBF800201B68013267
:10530800334405EB090A00F0338103F580530F336A
:1053180023F47F6828F00F084146204600F00AFA77
:10532800411C024600F0F380824500F2EE803C4BBF
:10533800196841441960084600F04E81DBF80010F6
:10534800019301311BBFA2EB0A0A5044CBF800209D
:10535800186012F0070B00F01781CBF108010A441E
:10536800CBF5805190440831A1EB0801C1F30B0A39
:1053780051462046009200F0DDF9421CDDE9002389
:1053880000F04F81801A00EB0A081968BA6048F0EB
:1053980001005144BD425060196000F02981B9F103
:1053A8000F0F40F227816868A9F10C0C2CF0070C4C
:1053B80000F0010040EA0C0068604FF0050E05EBB4
:1053C8000C00BCF10F0FC0E901EE00F23281506809
:1053D8001546144B1A688A4238BF1960124B1A686E
:1053E8008A4238BF196094E0AA1943F0010346F0D5
:1053F80001066E602046BA60536000F095F90835E2
:10540800284603B0BDE8F08FD9681A44A1E600BF6A
:10541800300400103804001038080010380F00104D
:10542800080F0010300F0010340F0010B2F5206F75
:105438004FEA522363D3142B00F2B78003F15C01C7
:10544800C9005B3307EB010E7958AEF1080E8E45A3
:1054580000F091804B6823F00303934202D98968D6
:105468008E45F7D1D1F80CE07A68C5E9021ECEF86E
:105478000850CD60D6E6142B59D9542B00F29D80E4
:10548800330B03F16F0003F16E0CC3008AE60EF1D3
:10549800010E1EF0030F05F108057FF4D5AE51E0AB
:1054A800424445465368D8F80C1043F00103536052
:1054B80055F8083F2046D9608B6000F035F9F3E6CF
:1054C800F00806F1080237E62A442046536843F0FC
:1054D80001035360083500F027F9E5E6A9192046CD
:1054E80046F0010643F001046E60C7E90411C1E902
:1054F80002CC4C60AB5000F017F90835D4E693099C
:1055080003F13901C90038339CE7BD425FD0BD685B
:10551800686820F003084645A8EB060302D80F2B5D
:105528003FF762AF204600F0FFF80025BCE603F124
:105538005C0003F15B0CC30034E659F808394B45AD
:1055480040F0968010F0030F00F1FF30F5D17B6832
:1055580023EA01037B60490099423FF6C0AE19B9BE
:10556800BDE649000EF1040E1942FAD0704667E60E
:1055780003F11008D0E69A104FF001087B6808FA8A
:1055880002F21A437A6070E702EB08014942C1F35C
:105598000B0A51462046009200F0CCF8431CDDE986
:1055A80000237FF4EFAEDA46EFE6542B25D8130B31
:1055B80003F16F01C9006E3344E7B3F5AA7F25D81C
:1055C800F30B03F1780003F1770CC300EAE5294BEC
:1055D800186840441860B1E6CAF30B0CBCF1000F20
:1055E8007FF4ACAEBD68C84448F001006860F0E6DE
:1055F8001546EEE60123536094E7B3F5AA7F23D856
:10560800D30B03F17801C90077331BE740F25452FA
:10561800934223D8B30C03F17D0003F17C0CC30043
:10562800C0E5ABF1080BD844A8EB02084FF0000A1C
:10563800ABE605F108012046009300F003F9BD68C8
:10564800009B68681968C4E640F254518B420BD835
:10565800930C03F17D01C9007C33F3E64FF47E73AC
:105668007F204FF07E0C9DE54FF47E717E23E9E6A6
:105678007B6870E7080F0010830730B548D0541EC8
:10568800002A3FD0CAB2034601E0013C3AD303F8EE
:10569800012B9D07F9D1032C2DD9CDB245EA05255B
:1056A8000F2C45EA054536D9A4F1100222F00F0C5B
:1056B80003F1200EE6444FEA121C03F1100242E9FE
:1056C800045542E9025510327245F8D10CF1010235
:1056D80014F00C0F03EB021204F00F0C13D0ACF112
:1056E800040323F003030433134442F8045B934296
:1056F800FBD10CF003042CB1CAB21C4403F8012BF3
:105708009C42FBD130BD64461346002CF4D1F9E726
:1057180003461446BFE71A46A446E0E7014800F0EE
:1057280097B900BF400F0010014800F093B900BFBF
:10573800400F001038B5074D0022044608462A607D
:10574800FEF7A8FC431C00D038BD2B68002BFBD00B
:10575800236038BD440F0010024B13B1024800F01B
:1057680005B8704700000000815700080023014673
:105778001A46184600F070B938B5084B084D5B1B3F
:105788009C1007D0043B1D44013C55F80439984748
:10579800002CF9D1BDE8384000F0AAB9946D000892
:1057A800906D0008F8B5244F0C460646FFF7B6FF83
:1057B800BA685568C4F57E630F3325F003052B449A
:1057C80023F47F6323F00F03A3F58054B4F5805FBF
:1057D80007DB00213046FFF7ADFFBB682B4498423A
:1057E80004D03046FFF7A0FF0020F8BD61423046E4
:1057F800FFF7A0FF01300DD0104ABB682D1B45F004
:1058080001055D60136830461B1B1360FFF78CFFB2
:105818000120F8BD00213046FFF78CFFBA68831AD3
:105828000F2BDEDD43F001035360054B03491B6872
:10583800C01A0860D5E700BF30040010080F001038
:1058480038080010002961D0F8B50C460646FFF765
:1058580065FF54F8042C7B4FA4F1080522F00101E0
:1058680005EB010CB868DCF80430604523F003034D
:1058780000F08B80D207CCF8043032D454F8082CCE
:10588800AD1A1144AA6807F1080082426AD00CEBED
:105898000304D4F804E0EC68D4601EF0010FA260A1
:1058A80000F0978041F001036B60CCF80010B1F56F
:1058B800007F35D27A68CB0848090121013381403D
:1058C8001143796007EBC30257F83310083AC5E96A
:1058D800021247F83350CD603046BDE8F840FFF774
:1058E80023BF0CEB03025268D00710D4194407F108
:1058F8000800DCF80830834273D0DCF80C20DA604A
:10590800936041F001036B606950D0E7704741F044
:105918000103B1F5007F44F8043CCCF80010C9D36A
:10592800B1F5206F4FEA512348D28B0903F13900B2
:1059380003F13802C300F818FB580838984259D0C8
:105948005A6822F003028A4202D99B689842F7D12A
:10595800D868C5E902308560DD603046BDE8F840AA
:10596800FFF7E2BE0CEB03025268D20763D40B4484
:10597800DCE90212CA60916043F001026A603046B5
:10598800EB50BDE8F840FFF7CFBE0B44D10707D472
:1059980054F8082CAD1A1344D5E90212CA60916074
:1059A80043F001026A60284ABD6012689A4293D89F
:1059B800264B30461968FFF7F5FE8DE7142B0AD9F8
:1059C800542B1FD80B0B03F16F0003F16E02C300B9
:1059D800B1E719448DE703F15C0003F15B02C300F2
:1059E800A9E741F00103C7E90455C5E902006B6066
:1059F800695071E779689210012404FA02F20A43A7
:105A08007A60A6E7B3F5AA7F06D8CB0B03F1780036
:105A180003F17702C3008EE740F25452934206D84E
:105A28008B0C03F17D0003F17C02C30083E74FF484
:105A38007E737E227FE741F001036B60CCF8001093
:105A48004AE700BF300400103C080010380F00106F
:105A5800704700BF704700BF2DE9F047DFF87CA012
:105A68000646DAF8000098460F469146FFF7F0FF21
:105A78001B4B1B68D3F8484124B365681F2D26DCEF
:105A88005EB96B1C0235DAF80000636044F82570D3
:105A9800FFF7E0FF0020BDE8F08704EB8501012354
:105AA800C1F88890D4F88821AB401A43022EC4F874
:105AB8008821C1F80881E4D1D4F88C211343C4F8B3
:105AC8008C31DEE703F5A674C3F84841D5E7DAF868
