:020000040800F2
:10000000000002202D4B0008754B0008754B0008BE
:10001000754B0008754B0008754B00080000000088
:10002000000000000000000000000000754B000808
:10003000754B000800000000754B0008754B000868
:1000400000000000000000000000000000000000B0
:1000500000000000000000000000000000000000A0
:100060000000000000000000000000000000000090
:100070000000000000000000000000000000000080
:100080000000000000000000000000000000000070
:100090000000000000000000000000000000000060
:1000A0000000000000000000000000000000000050
:1000B0000000000000000000000000000000000040
:1000C0000000000000000000000000000000000030
:1000D0000000000000000000000000000000000020
:1000E0000000000000000000000000000000000010
:1000F0000000000000000000000000000000000000
:1001000000000000000000000000000000000000EF
:1001100000000000000000000000000000000000DF
:1001200000000000000000000000000000000000CF
:1001300000000000000000000000000000000000BF
:1001400000000000000000000000000000000000AF
:10015000000000000000000000000000000000009F
:10016000000000000000000000000000000000008F
:10017000000000000000000000000000000000007F
:08018000000000000000000077
:1001C00010B5054C237833B9044B13B10448AFF391
:1001D00000800123237010BDB00900100000000052
:1001E000F0AC000808B5034B1BB103490348AFF35B
:1001F000008008BD00000000B4090010F0AC000849
:10020000844641EA000313F003036DD1403A41D321
:1002100051F8043B40F8043B51F8043B40F8043BE0
:1002200051F8043B40F8043B51F8043B40F8043BD0
:1002300051F8043B40F8043B51F8043B40F8043BC0
:1002400051F8043B40F8043B51F8043B40F8043BB0
:1002500051F8043B40F8043B51F8043B40F8043BA0
:1002600051F8043B40F8043B51F8043B40F8043B90
:1002700051F8043B40F8043B51F8043B40F8043B80
:1002800051F8043B40F8043B51F8043B40F8043B70
:10029000403ABDD2303211D351F8043B40F8043B10
:1002A00051F8043B40F8043B51F8043B40F8043B50
:1002B00051F8043B40F8043B103AEDD20C3205D320
:1002C00051F8043B40F8043B043AF9D2043208D018
:1002D000D2071CBF11F8013B00F8013B01D30B888A
:1002E00003806046704700BF082A13D38B078DD068
:1002F00010F003038AD0C3F10403D21ADB071CBF3A
:1003000011F8013B00F8013B80D331F8023B20F8A3
:10031000023B7BE7043AD9D3013A11F8013B00F8DC
:10032000013BF9D20B7803704B7843708B78837064
:100330006046704700000000000000000000000060
:1003400090F800F06DE9024520F007016FF0000C15
:1003500010F0070491F820F040F049804FF00004BD
:100360006FF00700D1E9002391F840F000F1080098
:1003700082FA4CF2A4FA8CF283FA4CF3A2FA8CF3D0
:100380004BBBD1E9022382FA4CF200F10800A4FA37
:100390008CF283FA4CF3A2FA8CF3E3B9D1E904238B
:1003A00082FA4CF200F10800A4FA8CF283FA4CF3C2
:1003B000A2FA8CF37BB9D1E9062301F1200182FA7C
:1003C0004CF200F10800A4FA8CF283FA4CF3A2FA82
:1003D0008CF3002BC6D0002A04BF04301A4612BA90
:1003E000B2FA82F2FDE8024500EBD2007047D1E993
:1003F000002304F00305C4F100004FEAC50514F022
:10040000040F91F840F00CFA05F562EA05021CBFF2
:1004100063EA050362464FF00004A9E7000000000C
:1004200001F0FF01102A2BDB10F0070F08D010F8A5
:10043000013B013A8B422DD010F0070F42B3F6D1A9
:10044000F0B441EA012141EA014122F007047FF0C2
:1004500000070023F0E80256083C85EA010586EA19
:10046000010685FA47F5A3FA87F586FA47F6A5FA55
:1004700087F68EB9EED1F0BC01F0FF0102F0070261
:1004800032B110F8013B013A83EA010313B1F8D10C
:100490000020704701387047002D06BF35460338ED
:1004A000073815F0010F07D1013015F4807F02BF26
:1004B000013015F4C03F0130F0BC0138704700BF77
:1004C00081F0004102E000BF83F0004330B54FEA05
:1004D00041044FEA430594EA050F08BF90EA020F72
:1004E0001FBF54EA000C55EA020C7FEA645C7FEA05
:1004F000655C00F0E2804FEA5454D4EB5555B8BF28
:100500006D420CDD2C4480EA020281EA030382EA98
:10051000000083EA010180EA020281EA0303362D2A
:1005200088BF30BD11F0004F4FEA01314FF4801CFD
:100530004CEA113102D0404261EB410113F0004F0F
:100540004FEA03334CEA133302D0524263EB4303C6
:1005500094EA050F00F0A780A4F10104D5F1200E64
:100560000DDB02FA0EFC22FA05F2801841F10001BF
:1005700003FA0EF2801843FA05F359410EE0A5F193
:1005800020050EF1200E012A03FA0EFC28BF4CF0C4
:10059000020C43FA05F3C01851EBE37101F000457A
:1005A00007D54FF0000EDCF1000C7EEB00006EEB87
:1005B0000101B1F5801F1BD3B1F5001F0CD3490811
:1005C0005FEA30004FEA3C0C04F101044FEA445268
:1005D00012F5800F80F09A80BCF1004F08BF5FEAEF
:1005E000500C50F1000041EB045141EA050130BDCF
:1005F0005FEA4C0C404141EB0101013C28BFB1F5E1
:10060000801FE9D291F0000F04BF01460020B1FA2B
:1006100081F308BF2033A3F10B03B3F120020CDAFE
:100620000C3208DD02F1140CC2F10C0201FA0CF0DC
:1006300021FA02F10CE002F11402D8BFC2F1200C41
:1006400001FA02F120FA0CFCDCBF41EA0C019040F7
:10065000E41AA2BF01EB0451294330BD6FEA040440
:100660001F3C1CDA0C340EDC04F11404C4F120022B
:1006700020FA04F001FA02F340EA030021FA04F33D
:1006800045EA030130BDC4F10C04C4F1200220FA94
:1006900002F001FA04F340EA0300294630BD21FAD2
:1006A00004F0294630BD94F0000F83F4801306BF98
:1006B00081F480110134013D4EE77FEA645C18BF8C
:1006C0007FEA655C29D094EA050F08BF90EA020F23
:1006D00005D054EA000C04BF1946104630BD91EA1B
:1006E000030F1EBF0021002030BD5FEA545C05D11E
:1006F0004000494128BF41F0004130BD14F580045D
:100700003CBF01F5801130BD01F0004545F0FE41D0
:1007100041F470014FF0000030BD7FEA645C1ABF05
:10072000194610467FEA655C1CBF0B46024650EA3C
:10073000013406BF52EA033591EA030F41F4002168
:1007400030BD00BF90F0000F04BF0021704730B5EE
:100750004FF4806404F132044FF000054FF00001C3
:1007600050E700BF90F0000F04BF0021704730B584
:100770004FF4806404F1320410F0004548BF404259
:100780004FF000013EE700BF42004FEAE2014FEAAE
:1007900031014FEA02701FBF12F07F4393F07F4F89
:1007A00081F06051704732F07F4208BF704793F08C
:1007B0007F4F04BF41F40021704730B54FF460749F
:1007C00001F0004521F000411CE700BF50EA0102A2
:1007D00008BF704730B54FF000050AE050EA01024B
:1007E00008BF704730B511F0004502D5404261EBBB
:1007F00041014FF4806404F132045FEA915C3FF4FC
:10080000D8AE4FF003025FEADC0C18BF03325FEA98
:10081000DC0C18BF033202EBDC02C2F1200300FA49
:1008200003FC20FA02F001FA03FE40EA0E0021FA6E
:1008300002F11444BDE600BF70B54FF0FF0C4CF45C
:10084000E06C1CEA11541DBF1CEA135594EA0C0F0E
:1008500095EA0C0F00F0DEF82C4481EA030621EA49
:100860004C5123EA4C5350EA013518BF52EA033584
:1008700041F4801143F4801338D0A0FB02CE4FF036
:100880000005E1FB02E506F00042E0FB03E54FF066
:100890000006E1FB03569CF0000F18BF4EF0010E5E
:1008A000A4F1FF04B6F5007F64F5407404D25FEA5A
:1008B0004E0E6D4146EB060642EAC62141EA55510D
:1008C0004FEAC52040EA5E504FEACE2EB4F1FD0C4F
:1008D00088BFBCF5E06F1ED8BEF1004F08BF5FEACD
:1008E000500E50F1000041EB045170BD06F000467F
:1008F00046EA010140EA020081EA0301B4EB5C042C
:10090000C2BFD4EB0C0541EA045170BD41F4801123
:100910004FF0000E013C00F3AB8014F1360FDEBF48
:10092000002001F0004170BDC4F10004203C35DA24
:100930000C341BDC04F11404C4F1200500FA05F3A7
:1009400020FA04F001FA05F240EA020001F0004248
:1009500021F0004110EBD37021FA04F642EB0601BE
:100960005EEA430E08BF20EAD37070BDC4F10C04E8
:10097000C4F1200500FA04F320FA05F001FA04F2AC
:1009800040EA020001F0004110EBD37041F1000198
:100990005EEA430E08BF20EAD37070BDC4F12005A3
:1009A00000FA05F24EEA020E20FA04F301FA05F20B
:1009B00043EA020321FA04F001F0004121FA04F2B3
:1009C00020EA020000EBD3705EEA430E08BF20EA83
:1009D000D37070BD94F0000F0FD101F000464000BD
:1009E00041EB010111F4801F08BF013CF7D041EA3F
:1009F000060195F0000F18BF704703F00046520043
:100A000043EB030313F4801F08BF013DF7D043EA13
:100A10000603704794EA0C0F0CEA135518BF95EAC9
:100A20000C0F0CD050EA410618BF52EA4306D1D150
:100A300081EA030101F000414FF0000070BD50EA6F
:100A4000410606BF1046194652EA430619D094EAF9
:100A50000C0F02D150EA013613D195EA0C0F05D1E3
:100A600052EA03361CBF104619460AD181EA030137
:100A700001F0004141F0FE4141F470014FF00000EF
:100A800070BD41F0FE4141F4780170BD70B54FF08A
:100A9000FF0C4CF4E06C1CEA11541DBF1CEA13550A
:100AA00094EA0C0F95EA0C0F00F0A7F8A4EB0504EC
:100AB00081EA030E52EA03354FEA013100F08880E3
:100AC0004FEA03334FF0805545EA131343EA1263AC
:100AD0004FEA022245EA111545EA10654FEA002661
:100AE0000EF000419D4208BF964244F1FD0404F51A
:100AF000407402D25B084FEA3202B61A65EB030576
:100B00005B084FEA32024FF480104FF4002CB6EB32
:100B1000020E75EB030E22BFB61A754640EA0C00B2
:100B20005B084FEA3202B6EB020E75EB030E22BFF2
:100B3000B61A754640EA5C005B084FEA3202B6EB33
:100B4000020E75EB030E22BFB61A754640EA9C00F2
:100B50005B084FEA3202B6EB020E75EB030E22BFC2
:100B6000B61A754640EADC0055EA060E18D04FEA80
:100B7000051545EA16754FEA06164FEAC30343EA20
:100B800052734FEAC2025FEA1C1CC0D111F4801FED
:100B90000BD141EA00014FF000004FF0004CB6E7E6
:100BA00011F4801F04BF01430020B4F1FD0C88BF85
:100BB000BCF5E06F3FF6AFAEB5EB030C04BFB6EB90
:100BC000020C5FEA500C50F1000041EB045170BD83
:100BD0000EF0004E4EEA113114EB5C04C2BFD4EBB0
:100BE0000C0541EA045170BD41F480114FF0000E34
:100BF000013C90E645EA060E8DE60CEA135594EAB0
:100C00000C0F08BF95EA0C0F3FF43BAF94EA0C0FB2
:100C10000AD150EA01347FF434AF95EA0C0F7FF427
:100C200025AF104619462CE795EA0C0F06D152EA7B
:100C300003353FF4FDAE1046194622E750EA41065F
:100C400018BF52EA43067FF4C5AE50EA41047FF470
:100C50000DAF52EA43057FF4EBAE12E74FF0FF3CD5
:100C600006E000BF4FF0010C02E000BF4FF0010CA6
:100C70004DF804CD4FEA410C7FEA6C5C4FEA430C1F
:100C800018BF7FEA6C5C1BD001B050EA410C0CBF6E
:100C900052EA430C91EA030F02BF90EA020F0020D0
:100CA000704710F1000F91EA030F58BF994208BF37
:100CB00090422CBFD8176FEAE37040F001007047F4
:100CC0004FEA410C7FEA6C5C02D150EA013C07D14B
:100CD0004FEA430C7FEA6C5CD6D152EA033CD3D096
:100CE0005DF8040B704700BF8446104662468C4690
:100CF0001946634600E000BF01B5FFF7B7FF0028C3
:100D000048BF10F1000F01BD4DF808EDFFF7F4FFEB
:100D10000CBF012000205DF808FB00BF4DF808ED76
:100D2000FFF7EAFF34BF012000205DF808FB00BF99
:100D30004DF808EDFFF7E0FF94BF012000205DF8BB
:100D400008FB00BF4DF808EDFFF7CEFF94BF012070
:100D500000205DF808FB00BF4DF808EDFFF7C4FF69
:100D600034BF012000205DF808FB00BF4FEA410CB2
:100D70007FEA6C5C02D150EA013C0AD14FEA430C95
:100D80007FEA6C5C02D152EA033C02D14FF00000D2
:100D900070474FF0010070474FEA410212F5001210
:100DA00015D211D56FF47873B3EB625212D94FEAB2
:100DB000C12343F0004343EA505311F0004F23FA9C
:100DC00002F018BF404270474FF00000704750EAF1
:100DD000013005D111F0004008BF6FF000407047AE
:100DE0004FF00000704700BF53B94AB9002908BF4F
:100DF00000281CBF4FF0FF314FF0FF3000F074B9F6
:100E0000ADF1080C6DE904CE00F006F8DDF804E061
:100E1000DDE9022304B070472DE9F047089E0D4636
:100E200004468846002B4DD18A42944668D9B2FACE
:100E300082F252B101FA02F3C2F1200120FA01F16B
:100E40000CFA02FC41EA030894404FEA1C45210CCD
:100E5000B8FBF5FE1FFA8CF705FB1E8341EA03433E
:100E60000EFB07F199420BD91CEB03030EF1FF3087
:100E700080F01E81994240F21B81AEF1020E634464
:100E80005B1AA4B2B3FBF5F005FB103344EA03444C
:100E900000FB07F7A7420AD91CEB040400F1FF335B
:100EA00080F00881A74240F2058164440238E41BC7
:100EB00040EA0E4000211EB1D4400023C6E90043A1
:100EC000BDE8F0878B4208D9002E00F0EE800021AB
:100ED000C6E900050846BDE8F087B3FA83F10029AA
:100EE0004AD1AB4202D3824200F2F980841A65EB08
:100EF000030301209846002EE2D0C6E90048DFE750
:100F000002B9FFDEB2FA82F2002A40F09180A1EB32
:100F10000C054FEA1C471FFA8CFE0121B5FBF7F3C5
:100F200007FB1350250C45EA00450EFB03F0A842D1
:100F300008D91CEB050503F1FF3802D2A84200F2E4
:100F4000CB8043462D1AA4B2B5FBF7F007FB105532
:100F500044EA05440EFB00FEA64508D91CEB040438
:100F600000F1FF3502D2A64500F2BB802846A4EB73
:100F70000E0440EA03409EE7C1F120078B4022FAAD
:100F800007FC4CEA030C20FA07F405FA01F31C43B2
:100F9000FD404FEA1C4900FA01F3B5FBF9F8200CBB
:100FA0001FFA8CFE09FB185540EA054508FB0EF0B8
:100FB000A84202FA01F20BD91CEB050508F1FF3A31
:100FC00080F08880A84240F28580A8F1020865443C
:100FD0002D1AA4B2B5FBF9F009FB105544EA0545FA
:100FE00000FB0EFEAE4508D91CEB050500F1FF34F1
:100FF0006CD2AE456AD90238654440EA0840A0FB8D
:101000000294A5EB0E05A542C846A64656D353D07A
:101010005EB1B3EB080265EB0E0505FA07F722FA9D
:1010200001F3CD401F43C6E900750021BDE8F087FC
:10103000C2F1200320FA03F10CFA02FC25FA03F3B3
:1010400095400D434FEA1C471FFA8CFEB3FBF7F1A6
:1010500007FB11302B0C43EA004301FB0EF09842D2
:1010600004FA02F408D91CEB030301F1FF382FD274
:1010700098422DD9023963441B1AADB2B3FBF7F085
:1010800007FB103345EA034500FB0EF3AB4208D9DA
:101090001CEB050500F1FF3816D2AB4214D902381B
:1010A0006544ED1A40EA014138E73146304607E72A
:1010B0008646E5E61846FAE64B45A9D2B9EB0208A2
:1010C00064EB0C0E0138A3E74046EAE7204694E7BC
:1010D0004146D1E7D0467BE7023B654432E708460C
:1010E00009E76444023842E7704700BF08B5034A85
:1010F000B721722002F03EFF002008BDCC0900108D
:1011000008B5034AB721722002F034FF002008BD61
:10111000830A001008B5034AB721722002F02AFFA3
:10112000002008BD3A0B001008B5034AB721722011
:1011300002F020FF002008BDF10B001008B5034AA3
:10114000B721722002F016FF002008BDA80C001085
:1011500008B5034AB721722002F00CFF002008BD39
:101160005F0D001008B5034AB721722002F002FF9C
:10117000002008BD160E001008B5034AB7217220E2
:1011800002F0F8FE002008BDCD0E001008B5034A9D
:10119000B721722002F0EEFE002008BD840F00107F
:1011A00008B5034AB721722002F0E4FE002008BD12
:1011B0003B10001008B5034AB721722002F0DAFE96
:1011C000002008BDF210001008B5034AB7217220B4
:1011D00002F0D0FE002008BDA911001008B5034A96
:1011E000B721722002F0C6FE002008BD6012001078
:1011F00008B5034AB721722002F0BCFE002008BDEA
:10120000171300102DE9F047ADF6A87D1C4604A980
:101210000023092B94BF03F1300203F1370201339D
:10122000D2B2102B01F8012BF3D12146422211A892
:10123000FEF7E6FF08AB11A900271E460D7804A8AB
:10124000002200E0013210F801CBAC45FAD11201C6
:1012500091F801C0D2B204AD002015F801EBE645CB
:1012600061D101370244212F03F8012B01F1020162
:10127000E4D1012140F6951003F07EFC01210546E2
:1012800040F6951003F078FC0DF5B56A0DF188096C
:10129000804622465146484600F004F9B422002117
:1012A000204604F013F9CDE900A43B46324602A9DA
:1012B000404600F009FBC0B2B8BB40F6951241466B
:1012C0002B48FEF79DFFCDE90094029B424603A9FF
:1012D000284600F0E7FB10F0FF002FD103992129E9
:1012E00037D121222946304604F040F858B1214830
:1012F00004F0ACF9631E04F1090113F8012F053263
:1013000099421A70F9D1284603F078FD002003F0C5
:1013100075FD2246B421722002F02CFE00200DF64D
:10132000A87DBDE8F087013097E7631EA11D13F883
:10133000012F143299421A70F9D1BEE7631E04F1ED
:10134000090113F8012F02328B421A70F9D1E077AC
:10135000C4E70948212204F017F9631E04F10901CA
:1013600013F8012F03328B421A70F9D1B9E700BF8D
:10137000CC0900100BB20008C8B1000808B502F093
:1013800099FE02F0DFFE02F01BFF722002F05AFF0E
:10139000522002F057FF452002F054FF532002F084
:1013A00051FF452002F04EFF542002F04BFF202059
:1013B00002F048FF202002F045FF202002F042FF0B
:1013C0000A2002F03FFF02F0B8FD274AB421332083
:1013D00002F0B4FD254A0021412002F0AFFD244A6D
:1013E0000021422002F0AAFD224A0021432002F0FF
:1013F000A5FD214A0021442002F0A0FD1F4A002142
:10140000452002F09BFD1E4A0021462002F096FD79
:101410001C4A0021472002F091FD1B4A0021482070
:1014200002F08CFD194A0021492002F087FD184A7C
:1014300000214A2002F082FD164A00214B2002F0D2
:101440007DFD154A00214C2002F078FD134A002151
:101450004D2002F073FD124A00214E2002F06EFD75
:1014600002F0B6FDFCE700BF05120008ED10000811
:101470000111000815110008291100083D1100088C
:101480005111000865110008791100088D1100083C
:10149000A1110008B5110008C9110008DD110008EC
:1014A000F11100082DE9F043ADF5124DA5B0144639
:1014B00005460E464FF48072504964A8FEF7A0FE20
:1014C00064AF04F142038234186859683A4603C293
:1014D0000833A3421746F7D164ACA4F1C00210460A
:1014E000002114F8013B402B8CBF373B303B0131CE
:1014F000DBB2402900F8013BF3D114A900230C46CC
:1015000017785078013300EB0710202B01F8010BFE
:1015100002F10202F4D122462046802102F004FCAE
:101520000DF5A5400DF17009A4AF214610300DF561
:101530000A5801F060F808F11008494638460022C0
:1015400001F072F849464046042201F023F90DF5F6
:10155000945039464FF480521030FEF751FE0DF58D
:101560009450103001F0A3F80DF594520DF5A541FB
:101570000DF54A5010321031103001F0E8F80DF539
:101580004A50103001F016F90DF54A50103001F0B4
:1015900079F90DF54A5110314246084601F02EF90D
:1015A0000DF54A50103001F017F90DF585490DF58C
:1015B0004A5209F1100910324946104601F095F9D6
:1015C0000DF54A5221462846103200F09AFA2A4672
:1015D00004A84FF4A463402102F0A6FB3046CDE9F5
:1015E0000178CDF800902CAB04AA214600F0BFFA98
:1015F00000200DF5124D25B0BDE8F08333B2000890
:101600002DE9F04FADF5454D8FB099460DF54543A9
:1016100060330DF58A471B6802930DF1780A38375D
:101620000DF5A7680DF55453383315460446524658
:1016300006A80E4601970EA9CDF8008000F0DEFA4C
:1016400005A802F035FB40220EA905A802F03EFBDA
:1016500029464A4605A802F039FB05A802F03CFBE2
:1016600005AA40212EA802F03CFB05A802F03DFB94
:101670003EAD2022002126A803F028FF02F0C0FD85
:10168000802352464021284602F04EFB02F0C0FD66
:101690000DF5454364332A461B680DF59C7C1433D5
:1016A000154603CD6545186059602A4603F10803C5
:1016B000F6D10DF5054006A9383000F09CFF4046F4
:1016C00000F0F5FF384601F0CBF80DF554503830F6
:1016D00001F0C6F8DFF8E8A1DFF8E8B14FF0000844
:1016E0000DF1F8090DF5A9501FFA88F24946183096
:1016F00000F0AAFF0DF5A9510DF514504FF48052DA
:1017000018313830FEF77CFD0DF51450383000F0FC
:10171000CEFF0DF514520DF505410DF5AA403832F6
:101720003831383001F013F80DF5AA40383001F0A7
:1017300041F80DF5AA40383001F0A4F80DF5AA40A3
:10174000383001F049F80DF5AA4238320DF5CA419A
:101750001046383101F0D9F80DF5AA41383120464C
:1017600001F009F905A802F0A3FA40222EA905A864
:1017700002F0ACFA4FF44072214605A802F0A6FA36
:1017800005A802F0A9FA05AA2021204602F0A9FA2C
:1017900005A802F0AAFA21464EA800F084FC4EA843
:1017A00000F0A1FB0DF514500DF5A7624EA93830DD
:1017B00000F0A1FF0DF51450383000F08AFF0DF550
:1017C000145138310DF5A9520846183200F05FFF68
:1017D0000DF51450383000F048FF0DF51450514607
:1017E000383000F0C6FF002866D10DF5EA403A46D1
:1017F0004EA9383001F058F80DF5EA40383001F0C4
:1018000041F80DF5CA4138310DF5EA420846383243
:1018100001F004F80DF5CA40383000F0CBFF0DF5AB
:10182000CA405946383001F04FF8002844D10DF530
:1018300054520DF5EA4038324EA9383001F034F8F0
:101840000DF5EA40383001F01DF80DF5EA4038306A
:1018500000F0B0FF0DF5EA404FF4BA31383001F036
:1018600033F8054640BB0DF5CA4138310DF5EA4263
:101870000846383200F0C2FF0DF5AA420DF5CA4104
:101880000DF5EA4038323831383001F04EF8502842
:1018900012D80DF5EA430DF514522046383338328C
:1018A000214600F0F3F940F67413284633600DF535
:1018B000454D0FB0BDE8F08F08F1010812E700BFF9
:1018C000B2FF0100B273010073B50D461C46D1187A
:1018D00003F67413034491420FD1079B0193069BB7
:1018E000009300F6741223462946FFF789FE2B6801
:1018F000002023442B6002B070BD11F8016D03F885
:10190000016DE8E7F0B5ADF5074DADB01E460DF53C
:101910000743C8331F6840F67413994204461546BE
:1019200040F0BA800DF5BD513A46103104A800F0E0
:1019300003F90DF55E52234630320DF5F6610CA821
:1019400000F0DFF9002840F0A78055490DF5F6605A
:1019500000F00FFF0446002840F09E804FF4A4637F
:101960003A4640211CA802F0DFF903A802F0A0F9D2
:1019700040221CA903A802F0A9F93246294603A86F
:1019800002F0A4F903A802F0A7F903AA40211CA8B9
:1019900002F0A7F903A802F0A8F90CA9ECA800F03E
:1019A00082FB0DF58F4004A9303000F024FE0DF5C8
:1019B000F66000F07CFE0DF58F410DF51E500DF523
:1019C000F6623031303000F0C2FEECA800F08BFA45
:1019D0000DF5BD50103000F031FF0DF5BD50103049
:1019E00000F03EFF0DF5BD5210321046ECA900F09C
:1019F0005BFF0DF51E5130310DF5BD52084610321A
:101A000000F00CFF0DF51E50303000F0D3FE0DF548
:101A10001E50303000F036FF0DF51E50303000F013
:101A2000DBFE0DF51E5130310DF55E5230320846A9
:101A300000F091FF0DF51E5130312CA800F09BFFF6
:101A400003A802F035F940221CA903A802F03EF9D0
:101A50004FF440722CA903A802F038F903A802F051
:101A60003BF914AB184603AA2021019302F039F97F
:101A700003A802F03AF9019A0CAB214613F8015B76
:101A800012F8010B854207D101312029F6D12046F9
:101A90000DF5074D2DB0F0BD4FF0FF34F7E700BF57
:101AA000B2FF0100F7B51D4640F673139D4207468D
:101AB0000E4614461BD9099AA5F674130B600192C1
:101AC000089A009240F6741104F674122046FFF74B
:101AD00019FF60B904F67314034632689A4201D8BC
:101AE00003B0F0BD14F8012FFA540133F5E74FF0BD
:101AF000FF3434602A460021384603F0E7FC2046D4
:101B0000EEE770B50346154601384A1E1F3112F83C
:101B1000014F00F8014F8A42F9D103F1200603F585
:101B2000A4642946304606F5A07600F0AAFBA6423A
:101B300005F58065F5D170BD70B5531E0D460138B1
:101B400002F11F0113F8014F00F8014F8B42F9D148
:101B500002F1200602F5A4643146284606F5A07677
:101B600000F0AFFBA64205F58065F5D170BDF8B574
:101B700005466C1E481E1F3110F8016F04F8016FF6
:101B80008842F9D1591E05F11F001F3311F8014F8A
:101B900000F8014F9942F9D1531E05F13F013F3240
:101BA00013F8010F01F8010F9342F9D1079E05F1D7
:101BB000800405F5007731462046603400F0D0FA05
:101BC000BC4206F58066F6D1089E05F56077314681
:101BD0002046603400F0C4FABC4206F58066F6D1B7
:101BE000069E05F520653146204604F5D07400F0C8
:101BF0008EFBAC4206F58066F5D1F8BD2DE9F041CB
:101C0000089D1E466C1E013805F11F0314F8017F64
:101C100000F8017F9C42F9D1013A05F13F0314F825
:101C2000010F02F8010F9C42F9D1013905F17F0340
:101C300014F8012F01F8012F9C42F9D1069F05F1FC
:101C4000800405F5007821463846603400F0CAFA71
:101C5000444507F58067F6D1079F05F56078214672
:101C60003846603400F0BEFA444507F58067F6D187
:101C700005F520652146304604F5D07400F095FB4B
:101C8000AC4206F58066F5D1BDE8F0812DE9F04162
:101C900015461E4604464B1E421E1F3113F8010F07
:101CA00002F8010F8B42F9D104F1200704F5126804
:101CB0002946384607F5107700F0F6FB474505F54D
:101CC0008065F5D100215422404603F0FFFB04F665
:101CD0006F10334604F6731400211D46002255F898
:101CE000046B16B108F8012001310132B2F5807F92
:101CF000F5D100F8011FA04203F58063EDD1BDE8E6
:101D0000F0812DE9F0471C4617460D46013B01388E
:101D100004F11F0213F8011F00F8011F9342F9D1CB
:101D200004F1200604F512683146284606F51076BF
:101D300000F0E6FB464505F58065F5D1002504F683
:101D40006F192E464FF0010A4FF48062002107EB15
:101D5000862003F0BBFB19F8013FAB4202D2012001
:101D6000BDE8F087502BFAD805F61F1121442A460A
:101D7000300299F80030934204D80136042E14D072
:101D80001D46E1E7AA4204D991F800C04B789C4572
:101D9000E5D211F8013F0344013247F823A0E8E7F8
:101DA00018F80320002ADAD101334F2BF8D900208C
:101DB000D6E70000F0B50F4F0546C2F1030600203C
:101DC000B418A34214D3947892F801E092F800C0BA
:101DD000240444EA0E2444EA0C04C4F31604BC426E
:101DE0009CBF45F820400130814202F10302E7D850
:101DF000F0BD00BF00E07F00F0B54FF0CD0C06460F
:101E0000571E02F18704002017F8013F03F00F0E60
:101E1000BEF10F0F4FEA131323D01EFB0CF2920AF0
:101E200002EB8202CEF1020E72440F2B46F8202004
:101E300000F1010511D08D4211D213FB0CF2920A70
:101E400002EB8202C3F102031A4446F82520681C03
:101E5000814201D9A742D7D1F0BD2846F8E72846EC
:101E6000FAE70F2BF4D00546E7E738B5051F00F574
:101E70007F7455F8040F01F089FFA5422860F8D15E
:101E800038BD38B5051F00F57F7455F8040F01F013
:101E900087FFA5422860F8D138BD30B5002351F83E
:101EA000234052F823502C4440F823400133B3F52B
:101EB000807FF4D130BD30B5002351F8234052F873
:101EC0002350641B40F823400133B3F5807FF4D1E5
:101ED00030BD031F00F57F7053F8042F5203834277
:101EE0001A60F9D1704701F063BF01F09BBFF8B5EC
:101EF00005460F461646002457F8241056F82400CD
:101F000081FB000101F034FF45F824000134B4F5F1
:101F1000807FF1D1F8BDF8B505460E46174600247E
:101F20003959301900F036FD28510434B4F5806F6A
:101F3000F6D1F8BDF8B505460E46174600243959C6
:101F4000301900F031FD28510434B4F5806FF6D11A
:101F5000F8BD2DE9F041002506460F4690462C4677
:101F600058F8241057F8240000F040FD46F82400EB
:101F70000134B4F5807F0544F2D12846BDE8F081F4
:101F8000F8B505460E461746002457F8241056F8B3
:101F9000240000F03BFD45F824000134B4F5807FB7
:101FA000F3D1F8BD0A4B994210B50EDC021F00F5C3
:101FB0007F7052F8043FDC1704EA43041B1B99426C
:101FC00003DD8242F5D1002010BD0120FCE700BFF7
:101FD00000FC0F00F0B5ADF5557D0646684600F0F3
:101FE0002BFD6A464FF4527101A801F05AFE4FF4DE
:101FF000527301AA4FF480713046FFF7DBFE0327CE
:102000000446FF2C05D9684601F04FFE0DF5557DBD
:10201000F0BDB3FBF7F202EB4202981A01A90025CA
:10202000D21A854210D101AB58196A46A82101F095
:1020300038FEC4F5807106EB840005F1A80301AAFF
:10204000FFF7B8FE0444DCE703EB010C01351CF894
:1020500002C001F801CBE4E730B5A5B0054601A800
:1020600000F003FD01AA882102A801F03AFE02AAAD
:102070004FF480712846FFF7BFFE0446FF2C04D9B9
:1020800001A801F032FE25B030BD01AA882102A8C6
:1020900001F027FEC4F5807105EB840002AAFFF76A
:1020A000ABFE0444EAE7F0B5A5B00C46054601A82E
:1020B00001F0FEFD2146202201A801F007FE01A843
:1020C00001F00AFE01AA882102A801F00AFE0023FD
:1020D00002AE1C461F4616F8011BA3F12002C3F1F5
:1020E000200001FA02F221FA00F09940083302437D
:1020F000402B44EA010447EA0207ECD100214FF4E7
:102100008062284603F0E2F9D9260821872925D9DB
:1021100001AA882102A801F0E4FD002324AA591C89
:10212000134413F8882CB242F0D855F8223045F801
:10213000263004F001035B000136C3F1010364089B
:10214000B6F5807F44EAC77445F822304FEA570756
:10215000DCD101A801F0C9FD25B0F0BD0B46DDE7DB
:102160002DE9F04101F580658B684C694F68CA69BB
:102170008E69C3F102035FFA83FCCB68C3F10203EB
:102180005FFA83FE0B69C3F10203DBB21B01C7F1E7
:102190000207C4F1020443EA4E035FFA87F8E4B28F
:1021A000C2F102024FEA8C1743EA9C0347EAC807D0
:1021B00043EAC41351F8208B4370C6F10206D2B231
:1021C000F6B25301C8F1020843EA860347EA08075A
:1021D00043EA54038D420770837000F10300C3D1BA
:1021E000BDE8F0812DE9F04100F580650F7807F03A
:1021F000070707600E78C6F3C20646604B780A7878
:102200009B0043EA921303F00702826091F801E019
:10221000CEF3420EC0F80CE091F801C0CCF3021CE2
:10222000C0F810C08B784C785B0043EAD41303F0FD
:10223000070343618C78C4F38204846191F80280BF
:10224000C2F102028260C3F10203CEF102024FEA40
:102250005818C2604361C7F10207C6F10206CCF10B
:102260000202C4F10204C8F1020307604660026181
:102270008461C3612030A84201F10301B6D1BDE8F9
:10228000F08110B501F580620B680370D1E900435D
:102290009B0043EA24234370D1E901431B0143EA35
:1022A000A4138370D1E902439B0143EA2413C37052
:1022B000CB6810319B109142037100F10500E3D10E
:1022C00010BD10B501F5A0724C780B7843EA0423D9
:1022D000C3F3090303608B784C789B0143EA9403B2
:1022E000C3F309034360CB788C781B0143EA1413D2
:1022F000C3F3090383600B79CC789B00053143EA73
:1023000094138A42C36000F11000DDD110BD2DE9A5
:10231000F04300F5D07C4D694C680F688E68CA6840
:102320000B69C4F58054C5F580588D69C7F5805791
:102330004FEA4419C5F5805ECD69077049EA172751
:102340004770C6F58056E7088770B700C2F580521F
:1023500047EAD424C470D401C3F5805344EA9616E6
:10236000540844711C0144EA522282711A09C27154
:102370004FEA480242EA133303724FEA8E1343EAEC
:10238000D8134372C5F580554FEA9E038372EB0064
:1023900043EA9E236D090671C37205730D308445AF
:1023A00001F12001B7D1BDE8F0832DE9F04300F53C
:1023B000806C0F7807604B7847EA0327C7F30C0758
:1023C00007604D786D0945608B7845EAC305456027
:1023D000CB7845EAC325C5F30C054560CE78B60831
:1023E00086600B7946EA8316C6F30C0686600C7984
:1023F000E409C4604B7944EA4304C4608B7944EA3D
:102400004324C4F30C04C4608A7912090261CB79B5
:1024100042EA031202610B7A42EA0332C2F30C026F
:1024200002610B7A5B08436191F809E043EACE133D
:10243000C3F30C0EC0F814E04B7A9B09836191F84A
:102440000A8043EA8803836191F80B8043EA88237A
:10245000C3F30C03836191F80B804FEAD808C0F8EE
:102460001C8091F80C90C2F58052C3F5805348EA65
:10247000491802618361C7F58057C5F58055C6F5D7
:102480008056C4F58054CEF58052C8F5805307605D
:1024900045608660C4604261C3612030604501F1DF
:1024A0000D0186D1BDE8F083F0B500F510760D681A
:1024B0004C688A68CB68C5F50035C4F500342F0A2E
:1024C0004770A700057047EA1545C2F500328570D0
:1024D000A509C570150145EA9434C3F500330471AC
:1024E000140944719C0144EA123282719A089B0AD1
:1024F000C27103720930864201F11001D7D1F0BDDB
:10250000F0B500F580660C7804604B7844EA03244B
:1025100004608B7844EA0344C4F3110404608A78AD
:1025200092084260CB7842EA831242600B7942EA19
:102530008332C2F3110242600B791B0983604D792B
:1025400043EA051383608D7943EA0533C3F311032E
:1025500083608D79AD09C560CF7945EA8705C5608F
:102560000F7A45EA8725C4F50034C2F50032C3F579
:102570000033C5F50035046042608360C5601030EB
:10258000B04201F10901BED1F0BD10B5ADF52C7D11
:10259000044601A800F069FA01AA4FF42A7102A8C2
:1025A00001F09FFB01A801F0A0FB02A92046FFF764
:1025B000A7FF0DF52C7D10BD10B500F1C0020B7802
:1025C00003704C6843EA841303704B68C3F38703BA
:1025D00043708C6843EA041343708B68C3F307139A
:1025E0008370CC6843EA840383700330904201F126
:1025F0001001E4D110BD2DE9F843064688460025B8
:102600002F02BFB206EB053900243A1909EB8420EA
:1026100092B241460134FFF7DDFC042CF5D10135BF
:10262000042DEDD1BDE8F883F8B505460E461746F2
:1026300000243A1905EB842092B231460134FFF7A9
:102640000BFD042CF5D1F8BDF8B5950006460F46F4
:10265000ADB200242A1906EB842092B23946013427
:10266000FFF793FF042CF5D1F8BD10B50446FFF732
:10267000FCFB04F58060FFF7F8FB04F50060FFF752
:10268000F4FB04F54060BDE81040FFF7EEBBF8B581
:1026900005460E46174600243A193119281904F543
:1026A0008064FFF7FAFBB4F5805FF5D1F8BD10B593
:1026B0000446FFF718FC04F58060FFF714FC04F5EE
:1026C0000060FFF710FC04F54060BDE81040FFF724
:1026D0000ABC10B50446FFF708FC04F58060FFF75C
:1026E00004FC04F50060FFF700FC04F54060BDE861
:1026F0001040FFF7FABBF8B505460E461746002412
:102700003A192819314604F58064FFF7F0FBB4F557
:10271000805FF5D1F8BDF0B5ADF2044D05460E462B
:102720001746FFF7E4FB4FF480643A193119684605
:10273000FFF7DDFB04F580646A4629462846FFF76B
:10274000ACFBB4F5805FF0D10DF2044DF0BDF8B5EF
:10275000164604460D4600F5805729462046324667
:1027600004F58064FFF7D7FFBC4205F58055F4D12E
:10277000F8BD70B50D46044600F580562946204642
:10278000FFF710FC20B904F58064B442F6D170BDA7
:102790000120FCE7F8B505460E46174600243A1915
:1027A00005EB842092B231460134FFF755FC042C2E
:1027B000F5D1F8BD10B50446FFF757FB04F580606E
:1027C000FFF753FB04F50060FFF74FFB04F5406093
:1027D000BDE81040FFF749BB10B50446FFF751FBB9
:1027E00004F58060FFF74DFB04F50060FFF749FB3F
:1027F00004F54060BDE81040FFF743BBF8B505465F
:102800000E46174600243A193119281904F5806438
:10281000FFF743FBB4F5805FF5D1F8BDF8B5054689
:102820000E46174600243A193119281904F5806418
:10283000FFF741FBB4F5805FF5D1F8BD10B5044654
:10284000FFF747FB04F58060FFF743FB04F50060EA
:10285000FFF73FFB04F54060BDE81040FFF739BBD0
:1028600010B50446FFF73FFB04F58060FFF73BFB24
:1028700004F50060FFF737FB04F54060BDE8104049
:10288000FFF731BB10B50446FFF72FFB04F580605E
:10289000FFF72BFB04F50060FFF727FB04F5406012
:1028A000BDE81040FFF721BBF8B505460E461746B8
:1028B00000243A192819314604F58064FFF717FB04
:1028C000B4F5805FF5D1F8BD70B50D46044600F54E
:1028D000805629462046FFF765FB20B904F5806441
:1028E000B442F6D170BD0120FCE7F8B505460E46AE
:1028F000174600243A193119281904F58064FFF7A6
:102900000AFBB4F5805FF5D1F8BDF8B505460E4673
:10291000174600243A193119281904F58064FFF785
:1029200009FBB4F5805FF5D1F8BD2DE9F041002435
:1029300006460F469046254608EB04023919301921
:10294000FFF707FB04F58064B4F5805F0544F3D11D
:102950002846BDE8F081F8B505460E461746002426
:102960003A193119281904F58064FFF709FBB4F509
:10297000805FF5D1F8BD70B504460D4600F5407690
:1029800029462046C034FFF717FEB44205F580659E
:10299000F6D170BD01F6FF7222F4FF5323F01F033E
:1029A000C91A01605013704701F17F0342F60B42D0
:1029B000DB11534303F500031B16C3F12B02D2179F
:1029C00023EA0203074A10B502FB0311C1F57F1485
:1029D000054A04F5405402EAE472891A0160184677
:1029E00010BD00BF0018FDFF01E07F0000F5BA3305
:1029F000B3F53A3F06D810F5BA3F05D1081E18BF07
:102A000001207047012070470020704713B50C4625
:102A1000014601A8FFF7C8FF2CB1019B002B04DD84
:102A20002B2805D0013002B010BD18B10138FAE7EB
:102A30000020F8E72B20F6E737B504460D468DF861
:102A40000420120A8DF8052001F012F929462046CB
:102A5000202201F01BF9022201A9204601F016F9FB
:102A6000204601F019F903B030BD37B504460D46D4
:102A70008DF80420120A8DF8052001F019F9294675
:102A80002046402201F022F9022201A9204601F04D
:102A90001DF9204601F020F903B030BD002370B5C8
:102AA0001946451E184615F8014FA3F12002C3F13F
:102AB000200604FA02F224FA06F69C400833324358
:102AC000402B40EA040041EA0201ECD170BD000055
:102AD0002DE9F04FBFB003680C9343680D938368F2
:102AE0000E93C3680F93036910934369119383692D
:102AF0001293C3691393036A1493436A1593836A09
:102B00001693C36A1793036B1893436B1993836BE4
:102B10001A93C36B1B93036C1C93436C1D93836CC0
:102B20001E93C36C1F93036D2093436D2193836D9C
:102B30002293C36D2393036E2493436E2593836E78
:102B40002693C36E2793036F2893436F2993836F54
:102B50002A93C36F2B93D0F880302C93D0F8843015
:102B60002D93D0F888302E93D0F88C302F93D0F856
:102B700090303093D0F894303193D0F8983032932D
:102B8000D0F89C303393D0F8A0300B93D0F8A43019
:102B90003493D0F8A8303593D0F8AC303693D0F8D1
:102BA000B0303793D0F8B4303893D0F8B830399388
:102BB000D0F8BC303A93D0F8C0303B93D0F8C46022
:102BC000014B019302E000BF08AD0008169A0C9B70
:102BD000179953400D9A82EA0105209A5340219A91
:102BE00055402A9A53402B9A55400B9A5340349A99
:102BF000099355400E9B189A83EA02090F9B199A74
:102C000083EA0208229B1A9A89EA0309239B88EA2D
:102C100003082C9B89EA03092D9B88EA0308359B4E
:102C200089EA0309369B88EA0308109B83EA020CB1
:102C3000119B1B9A83EA0207249B259A8CEA030CBA
:102C400057402E9B2F9A8CEA030C5740379B389A9B
:102C50008CEA030C5740129B1C9ADDF87CE083EA57
:102C60000204139B1D9A83EA0201269A149B544086
:102C7000279A5140309A5440319A5140399A5440E1
:102C80003A9A51401E9A5A40159B83EA0E0E289B91
:102C90005A40299B8EEA030E329B5A40339B8EEAA0
:102CA000030E3B9B4FEA490B5A404BEAD87B4FEA55
:102CB000480A8EEA060E8BEA02034AEAD97A0293A0
:102CC0008AEA0E0303934FEA4C0B099B4BEAD77B2E
:102CD0004FEA470A4AEADC7A8BEA030304938AEA5A
:102CE00005034FEA410A4AEAD47A05938AEA0803BF
:102CF0004FEA4E0848EAD278520042EADE72069362
:102D000082EA0C03079388EA07030893099B6A0089
:102D100042EAD3725B0043EAD5736340099382EAC7
:102D200001034FEA440B0C9A0A93029B4BEAD17BB6
:102D30008BEA090B83EA0209039B0D9A0699259CED
:102D4000319F83EA020A189A049B83EA020E199AB9
:102D5000059B83EA020C249A8BEA02024C404FEA5C
:102D6000525848EAC428640D44EAC2243099079AAC
:102D70005140089A4FEA1E5545EA0C357A404FEA11
:102D80001C5C4CEA0E334FEA425E4EEAD12E4905F6
:102D900041EAD2213B9F099A57400A9A5640BA030A
:102DA00042EA96424FEA863C019E4CEA974CD6E9AD
:102DB00000768AEA06060D9689EA070728EA0506DC
:102DC0007E400D9F0C9624EA030677402EEA040607
:102DD0005E400D9721EA08076F40259625EA090510
:102DE0002CEA0E0623EA0A03744083EA0C0329EA5C
:102DF0000206249722EA01076A4071403C9430920F
:102E00002AEA0C04129A3193079B189187EA080763
:102E100084EA0E015A403B971991089B1399219C13
:102E2000389F59404FEA017C4CEA121C120742EAD3
:102E3000111E099B1E9A209983EA02081F9A0A9B79
:102E400083EA0206029A4A4003994C404FEAC409B9
:102E500049EA5279D20042EA54742C99049A350511
:102E600045EA18354FEA085848EA163351402D9E76
:102E7000059A4FEAD148724048EA4238D20C42EAF9
:102E8000413237998BEA010606997940F70847EAFB
:102E9000417724EA030AC90841EA46718AEA0E0A20
:102EA00029EA050686EA0C06CDF8B0A028EA040A4D
:102EB0008AEA030A2D9622EA09066E40CDF848A058
:102EC00027EA080A8AEA0404139621EA02062094F3
:102ED00086EA09042EEA070623EA0E0E8EEA0703A5
:102EE00025EA0C0521942CEA010462401E9385EA30
:102EF000010338921F930E9A049B83EA0209059BF3
:102F00000F9A83EA02051A9B86EA08068BEA0302F7
:102F10003796069B1B9983EA0107BE0146EA926633
:102F2000920142EA97632699079A82EA0107279954
:102F3000089A4FEA450C4CEAD97C4A404FEA4909C5
:102F4000790649EAD57441EAD211329DDDF8D09074
:102F50004FEA4268099A48EAD7185540339F0A9ABF
:102F60007A404FEA022E4EEA156E2D0245EA1265AE
:102F70000B9F029A7A40039F87EA09094FEA894723
:102F800047EA923721EA030A920442EA99328AEA2E
:102F9000040A28EA060989EA0C09CDF868A025EA9E
:102FA000010A8AEA030ACDF86C9023EA04032EEAA8
:102FB000080989EA0609534026EA0C06CDF8C8A09C
:102FC00022EA050A8AEA0101CDF8CC90349327EA77
:102FD0000E0986EA07030E913D9389EA0801099BD1
:102FE0000F9124EA0208149A2CEA070183EA0207E7
:102FF0000A9B159A83EA0206169A029B81EA0E0141
:1030000053402791039A17994FEAC66E4EEA571E0E
:10301000FF0647EA561C51401E0F46EA011688EA91
:103020000505090F41EA03112695049B229A399F51
:1030300083EA0204239A059B83EA02054FEA852866
:1030400048EA9458A40244EA9555069A2F9C2E9B70
:1030500054408BEA0303E20342EA5342DB0343EAB0
:103060005443079C84EA07093A9F089C7C404FEA36
:10307000192747EA046725EA060A240A44EA09648C
:103080008AEA0C0A28EA010989EA0E09CDF8E4A0C7
:1030900023EA050A8AEA060ACDF8E89022EA080936
:1030A00089EA0109CDF858A027EA030A8AEA05054A
:1030B000CDF85C9024EA02092E9589EA08052CEAED
:1030C000070888EA03032F952EEA040526EA0C0C6C
:1030D000149385EA020321EA0E0115938CEA070393
:1030E000229381EA04032393109B119A8BEA03092C
:1030F000069B83EA020A079B1C9A83EA020C089B40
:103100001D9A83EA0207099B289A83EA0204299AF6
:103110000A9B83EA0201029B2A9A4FEA990683EAF4
:10312000020B4FEA5C2E2B9A039B46EA8A764EEA04
:10313000C75E4FEA9A0A7F0A47EACC554AEA89797C
:103140004FEA546C83EA020A359A049B4CEAC11C8C
:103150004FEADA57490E41EAC41847EA4B274FEACB
:10316000DB5183EA020B369A059B41EA4A2183EA46
:10317000020A4FEA8B0343EA9A7228EA050383EABC
:1031800009034FEA8A042CEA0E0A8AEA060A2993FE
:1031900021EA0C03CDF8A0A083EA0E0327EA080A6F
:1031A00044EA9B7435938AEA0503369324EA0703BD
:1031B00083EA08031D9329EA04037B402B932EEA3C
:1031C000060322EA010A25EA090953408AEA0C0C9F
:1031D000109389EA0403CDF870C0119326EA020C1B
:1031E0000C9B2C9A8CEA01012A915A402D990D9B37
:1031F00083EA01061A99249B4A401B994E4039994B
:103200004A403A994E4028994A4029994E4012998D
:1032100083EA01091399259B83EA0108329B2099CF
:10322000DDF8F4E089EA0309339B88EA0308169B7A
:1032300089EA0309179B88EA0308359B89EA030991
:10324000369B88EA03083B9B83EA010C3C9B21994F
:1032500083EA01070E9B0F998CEA030C4F402E9BCB
:103260002F998CEA030C4F401C9B1D998CEA030C90
:103270004F40189B379983EA0105199B389983EAD7
:10328000010426991E9B4D4027994C4014994D40AE
:1032900015994C402A994D402B994C4034995940EE
:1032A0001F9B83EA0E0E309B5940319B8EEA030E22
:1032B000229B5940239B8EEA030E109B4FEA490B39
:1032C0005940119B4BEAD87B4FEA480A8EEA030E1D
:1032D0004AEAD97A8BEA01034FEA4C0B02934BEA94
:1032E000D77B8AEA0E034FEA470A03934AEADC7A5D
:1032F0008BEA02034FEA450B04934BEAD47B8AEA3C
:1033000006034FEA440A05934AEAD57A8BEA090391
:1033100006938AEA08034FEA4E0848EAD178490042
:1033200041EADE71079381EA0C03089388EA0703F8
:10333000770047EAD277520042EAD672099382EACE
:1033400005030A9387EA0403029A0B930C9B83EA12
:1033500002070D9B039A83EA020B129B049A83EAED
:10336000020A139B059A4FEA1A5483EA02060E9B3F
:10337000069A44EA0634360D46EA0A3683EA020A19
:103380000F9B079A83EA0209149B089A83EA020CAE
:10339000159B099A83EA02054FEA4C5242EAD5226C
:1033A0000A9B4FEA455E109D5D404EEADC2E2B469F
:1033B000119DDDF82CC085EA0C054FEA853C4CEAEE
:1033C000934C9B0343EA9543019DAD680C95019D89
:1033D0004FEA5A5848EAC928ED684FEA595949EA6C
:1033E000CA21DDF8309028EA040A8BEA05050D951C
:1033F00087EA0909554689EA05090D9DCDF83090FF
:1034000021EA060A85EA0A050D952EEA01057540AE
:1034100022EA08090F952CEA0E0589EA0409694099
:1034200027EA030524EA070726EA0B06CDF83890B9
:10343000119123EA02092BEA0C016A407B401292A7
:10344000149381EA0E0286EA0C0313921593089AEC
:10345000189B83EA0201199B099A83EA020E4FEA3C
:103460000E7B1E9B0A9A4BEA111B090741EA1E14A8
:1034700083EA020E1F9B0B9A83EA02051A9B029AAB
:103480002E0583EA020A039A1B9B46EA1E3689EA46
:1034900008084FEA0E5E4EEA153183EA0209CDF8BC
:1034A0004080169B049DDDF814C0DDF81CE06B40E5
:1034B0004FEAC907179D47EA5A774FEACA0A4AEA0C
:1034C000597285EA0C09DD0C45EA49354FEAD949BC
:1034D00049EA433ADDF818C01C9B83EA0C0C1D9B9B
:1034E0004FEADC0883EA0E0348EA437822EA010E39
:1034F000DB0843EA4C738EEA040E27EA060C8CEADA
:103500000B0CCDF858E025EA020E8EEA010ECDF83C
:103510005CC02AEA070C8CEA060CCDF860E028EAC9
:10352000050E8EEA0202CDF864C023EA0A0C1A9254
:103530008CEA07021B922BEA030282EA0A0221EAC2
:10354000040126EA0B0673401D9281EA08021E92CE
:103550001F93049A249B24EA08077D4083EA02070C
:10356000259B059A1C9583EA0206209B069A4FEA42
:10357000460883EA0204219B079A48EAD7787F002D
:1035800047EAD67B83EA0206269B089A83EA02056D
:10359000279B099A83EA02016A0642EAD112229B1A
:1035A0004FEA416A0A994FEA861C83EA0107239B86
:1035B0000B994CEA946CA40144EA966983EA0104ED
:1035C000210241EA17613F0247EA1467289B029CE7
:1035D0004AEAD51A6340039D299C6C404FEA844E09
:1035E0004EEA933E9B0443EA94332AEA0C0422EA0F
:1035F000090584EA080485EA0B05219427EA0204F8
:1036000084EA0904209521EA0A05229485EA0C043B
:1036100023EA07056A4023942EEA010429EA0B09EC
:10362000249284EA0A022CEA080C2BEA030425926D
:1036300089EA030328EA0E024A4028938CEA0E0323
:10364000279229930A9A309B059983EA02050B9ADF
:10365000319B53404FEAC36B4BEA551BED0645EADD
:10366000531C029A2C9B83EA020A2D9B039A83EA3D
:103670000206329B049A5A40339B4FEA1A7E4EEA66
:10368000061E83EA0109360F46EA0A164FEA892A1E
:103690004AEA925A069993022E9A82EA01050799FC
:1036A0002F9A43EA99537C4082EA010926942A9A88
:1036B00008994FEAC93444EA5544ED0345EA5948AC
:1036C0005140099D2B9A4FEA112982EA050749EAE0
:1036D00007693F0A47EA016723EA0E012AEA060260
:1036E00081EA0C0182EA0B022A9128EA030181EAAD
:1036F0000E012B9224EA0A0272402C9129EA080159
:103700004B402D9227EA04022CEA09012E9382EA0B
:103710000A032F932BEA070281EA08032EEA0C0C16
:10372000309382EA040326EA0B0631938CEA0903FC
:10373000329386EA0703069A33933B9B089983EA00
:1037400002093C9B079A83EA0208379A4FEA990CD0
:1037500082EA0106389A0A994CEA887C4FEA98086E
:1037600048EA897382EA0508349A82EA01053D9A9B
:103770000B994FEA556B82EA01044BEAC41B399A54
:10378000610E029C41EAC5116240039D3A9C84EAA5
:10379000050A4FEADA5444EA4224049DD70D359ACB
:1037A00082EA0509369A059D4FEA562E4EEAC85E12
:1037B00047EA4A274FEA582882EA050A48EAC658E3
:1037C0004FEA8A0646EA99752BEA0E024FEA890902
:1037D00049EA9A7A82EA0C0221EA08090B9289EAFC
:1037E0000302349227EA0B0624EA010286EA0E0657
:1037F00082EA0802359636922AEA070625EA04028A
:103800004A4086EA0B062EEA0C0E3796389228EAD2
:10381000030623EA05028EEA0A033B93019B103359
:10382000624001933A92404B019A2CEA0A0989EAD4
:1038300007019342399186EA05067FF4C7A90C9BDC
:1038400003600D9B43600E9B83600F9BC360109BC6
:103850000361119B4361129B8361139BC361149BA2
:103860000362159B4362169B8362179BC362189B7E
:103870000363199B43631A9B83631B9BC3631C9B5A
:1038800003641D9B43641E9B83641F9BC364209B36
:103890000365219B4365229B8365239BC365249B12
:1038A0000366259B4366269B8366279BC366289BEE
:1038B0000367299B43672A9B83672B9BC3672C9BCA
:1038C000C0F880302D9BC0F884302E9BC0F8883023
:1038D0002F9BC0F88C30309BC0F89030319BC0F8E3
:1038E0009430329BC0F89830339BC0F89C300B9BCF
:1038F000C0F8A030349BC0F8A430359BC0F8A83085
:10390000369BC0F8AC30379BC0F8B030389BC0F85D
:10391000B4303A9BC0F8BC303B9BC0F8B810C0E94B
:1039200030363FB0BDE8F08FC8AD00082DE9F04F4C
:103930000C46B3B090460021C82282461D4601F0D5
:10394000C5FDE608AAF10807A5422DD222460021AE
:10395000684601F0BBFD2A4641466846FCF750FC2C
:1039600032AB1D449DF8F03005F8C83C013C32AB49
:103970001C446D4614F8C83C63F07F0304F8C83C4F
:103980003C4600272846FFF789F854F8082F63685B
:10399000013742404B40BE42C4E9002305F108050F
:1039A000F0D833B0BDE8F08FB9464FF0000B08EB0C
:1039B000CB00FFF773F859F8082FD9F804300BF152
:1039C000010B42404B405E45C9E90023EFD8504609
:1039D000FFF77EF82D1BA044B6E72DE9F84F064609
:1039E0000D4610461F464FEAD3080DB9BDE8F88FC3
:1039F000FFF76EF8A0F10802002352F808BFD2F8D2
:103A000004A006EBC3090024C4F1200EA4F1200C8D
:103A10002BFA04F10AFA0EFE41EA0E012AFA0CFC16
:103A2000083441EA0C01402C09F8011BECD10133A8
:103A30009845E2D83E44013DD7E710B5C8220021A1
:103A4000044601F043FD00220023C4E9322310BDE7
:103A50002DE9F0470D469046994600260027D0E90B
:103A6000323219EB030342F10002AB4272F1000360
:103A700040D2002215469145D0E932313CD819EBAD
:103A8000030341F10001C0E93231BDE8F0870C19B0
:103A900043F100034FEAD40C04F007044CEA437CE2
:103AA000E40018F8013000EBCC0EA4F1200AC4F1B8
:103AB000200223FA02F203FA0AFA4AEA020A03FA95
:103AC00004F450F83C20DEF80430544083EA0A0342
:103AD00040F83C400131CEF80430D0E932432A1B93
:103AE0008A42D4D8641BC0E93267A1449044FEF7EF
:103AF000EFFFB4E70021F0E7D31845EB0101DC0844
:103B000003F0070318F8026044EA4174DB0000EB9D
:103B1000C40CA3F12001C3F1200726FA07F706FA27
:103B200001F1394306FA03F350F83470DCF804600D
:103B30007B407140013240F8343045F10005CCF84B
:103B4000041098E7F0B5D0E93235DC0803F007033C
:103B500044EA4574DB0000EBC407A3F12005C3F180
:103B6000200622FA06F602FA05F59A4050F834309B
:103B7000354301397E685A4021F0070140F834206E
:103B8000014475407D604B6803F100434B600022A7
:103B90000023C0E93223F0BD2DE9F8430025164685
:103BA0001F462A46A942D6E93243814603D9A54297
:103BB00072EB030C0CD3641B63EB0203C6E93243C4
:103BC000A1EB05080024B8F1000F29D1BDE8F88366
:103BD0003C1B63EB4303641942EB03034FEAD40C31
:103BE0004CEA437C06EBCC0E04F00704DEF80480BC
:103BF00056F83C30E400C4F1200EA4F1200C08FA81
:103C00000EFE23FA04F444EA0E0428FA0CFC44EAFB
:103C10000C0400F8014B6C1C254642F10002C1E780
:103C20003046FEF755FF002222F00700D508304449
:103C300002F00703D0F804C0D90056F83530C1F1BE
:103C40002005A1F12000CB400CFA05F52B432CFAFE
:103C500000F0034309F802300132904501D0974249
:103C6000E2D19144A8EB0208BA1AC6E93224AAE7C5
:103C700010B50446D02001F0B9F8206010B96F20CB
:103C800000F0BCFFBDE81040FFF7D7BE1346006848
:103C90000A46A821FFF7DCBE00681F22A821FFF713
:103CA00051BF1268A823FFF777BF006801F0A6B8DC
:103CB00010B50446D02001F099F8206010B96F20AB
:103CC00000F09CFFBDE81040FFF7B7BE1346006848
:103CD0000A468821FFF7BCBE00681F228821FFF733
:103CE00031BF12688823FFF757BF006801F086B81C
:103CF000F7B50746C8200D46164601F077F838603C
:103D000010B96F2000F07AFF1F2300932A46334634
:103D10008821FFF70BFE03B0F0BD12688823FFF780
:103D20005CBE006801F06AB8F0B5A5B00C46064666
:103D3000114688271A4601A8FFF7DAFFB4FBF7F50A
:103D400001AA294630467D43FFF7E7FF641B09D0EF
:103D500001AA012102A8FFF7E0FF224602A970197B
:103D6000FCF74EFA01A8FFF7DCFF25B0F0BD00001C
:103D70000346C3EBC302084603EB8222024903EB6E
:103D80004232C2FB01307047FF1F80FF034A00F53B
:103D90008003DB1502FB0300704700BFFF1F80FF9D
:103DA000024B03EAE0731844704700BF01E07F0054
:103DB0002DE9F74F06464FF008084FF0000980251F
:103DC0000024174B09F1010906EB840753F8292059
:103DD0002B1906EB830BA2469A450BD304EB450443
:103DE000FF2CEED9B8F101084FEA5505E8D103B030
:103DF000BDE8F08FDBF80010019382FB0101009217
:103E0000FFF7B6FF3968091A4BF8041B57F8041B73
:103E10000844DDE9002347F8040C0AF1010ADBE756
:103E2000C8AD00082DE9F04F284A85B004464FF090
:103E300008084FF480790126002509F1FF3904EBC9
:103E4000850B52F829305B420293AB192CBF01213C
:103E50000021019104EB8307AA469A451ED3019BDA
:103E6000002B0CBF3346002333441D44FF2DE4D9FF
:103E7000B8F101084FEA4606DED1251F4AF2FA36AC
:103E800004F57F7455F8041F81FB0601FFF770FFEE
:103E9000AC422860F6D105B0BDE8F08FDBF8001029
:103EA0003868039308444BF8040B57F8040B029B43
:103EB000091A47F8041C83FB0101FFF759FF0AF1B7
:103EC000010A039B014A47F8040CC6E7C8AD000885
:103ED0000346014400208B4200D1704713F8012BA8
:103EE0005040082210F0800F4FEA400018BF80F0C9
:103EF0004D00013AC0B2F5D1EDE730B500220446DD
:103F000001238B4201D3002030BD14F8015F15B9A5
:103F10009D1A85541A460133DBB2F2E710B50278D8
:103F20000024034604701046884200D202B910BD36
:103F30001A5C1C541044C0B2F6E7704738B50C4DFB
:103F40002B687F2B04DD612000F07CF9012038BD57
:103F5000B1F5007F01D36220F6E70C2404FB035483
:103F600001332071C4E902122B600020EFE700BF8B
:103F70006413001070B5ADF5007D0C4600251146A8
:103F80008DF8010022460DF103008DF802408DF8F6
:103F90000050FCF735F9A11CC9B20DF10100FFF783
:103FA00097FF0DEB0403261D611DD870C9B268464A
:103FB0000DF80650FFF7A1FF6C4614F8010B013510
:103FC00000F040F9AE42F8DA0DF5007D70BD00005A
:103FD0002DE9F047ADF5027D002502AE8DF80750C2
:103FE000344600F01DF906F8010B60B905238DF881
:103FF00007300DF1070205216520FFF7BBFF0DF526
:10400000027DBDE8F0870135042DEAD1294620461E
:10401000FFF784FF264F61783A68804600230C2022
:104020005FFA83F9914502DB07D10723DFE700FB45
:104030000976013336798E42F2D1E3780533434570
:1040400002DA0B23D3E7354600F0EAF8605508B9E9
:104050000C23CCE7E3786E1C0433B342F3DA00F0B0
:10406000DFF8A05508B10D23C1E7C8F1010151FAED
:1040700086F1C9B25FFA86FA04EB0800FFF74EFF3B
:10408000AAF10201C9B20DF10900FFF721FF635D3A
:10409000834201D00E23AAE70C2303FB0977E278C1
:1040A000FD68A17860786B44A8478DF80700A0E709
:1040B0006413001030B51F4AD2F8883043F47003FF
:1040C000C2F8883093B003224FF4A023CDE9062331
:1040D00002214FF48003CDE90C130C20C423CDE959
:1040E0000E0304240723012506A8CDE910430995F2
:1040F00000F0C0F8044600B1FEE70146CDE9030038
:104100000F23059001A8CDE9013500F053FA0A4BC1
:1041100000945A6B094842F040025A635B6B03F00B
:1041200040030093009B064B0360447100F0E1FCE8
:1041300013B030BD00ED00E00038024068190010F7
:104140000008065030B5022389B04FF4C062CDE9B3
:1041500003230122CDE90523154C1648002507232A
:1041600001950793236B13432363236B1340019340
:1041700003A9019B00F0B6FA0F48104902954FF4CD
:104180006133C0E90313C0E905550C23C5614562DD
:104190000362636C43F010036364636C03F0100309
:1041A00002930C30029B00F089FB09B030BD00BFC8
:1041B0000038024000000240681900100010014061
:1041C0007FB50D4B0D48002100911A6B42F00102A2
:1041D0001A631B6B039103F001030093009B4FF4E0
:1041E00080520123CDE9012301A90223049300F0A9
:1041F00079FA07B05DF804FB003802400000024085
:10420000024801224FF4805100F052BB00000240EE
:10421000024800224FF4805100F04ABB00000240E7
:1042200013B5074C41F2883301220DF107012046F6
:1042300000F0F7FB0028F5D19DF8070002B010BD93
:104240007419001007B541F288338DF80700012278
:104250000DF10701024800F09FFB03B05DF804FB7D
:1042600074190010024B1868421C1A60704700BF96
:10427000041A0010036873B5DE0701463BD40B68CF
:104280009D0700F18B800B68180700F1D6800B6842
:104290005A072AD500230193914B924C1A6C42F095
:1042A00080521A641B6C03F080530193019B2368B6
:1042B00043F480732360FFF7D5FF05462368D805D4
:1042C00040F1DF808B68864C012B40F0E180236F4A
:1042D00043F001032367FFF7C5FF814D044641F218
:1042E00088362B6F9A0740F1F4808A69002A40F0E3
:1042F000FF80002015E07A4B9A6802F00C02042A35
:1043000007D09A6802F00C02082A0CD15A685402AD
:1043100009D5734B1B689803B1D54B68002BAED100
:10432000012002B070BD4A68B2F5803F12D11A6810
:1043300042F480321A60FFF795FF694D6A4E0446D9
:104340002B689A039BD4FFF78DFF001BB042F7D96F
:104350000320E6E7624CB2F5A02F236807D143F4AF
:1043600080232360236843F480332360E3E723F44E
:1043700080332360236823F480232360002ADAD16A
:10438000FFF770FF584E054623689B037FF577AF14
:10439000FFF768FF401BB042F6D9D9E7504B9A6847
:1043A00012F00C0F07D09A6802F00C02082A16D1FE
:1043B0005B68580213D44A4803689A0702D5CB6851
:1043C000012BADD10468F82393FAA3F3B3FA83F277
:1043D0000B69934024F0F8021343036053E7CA6863
:1043E000424BDAB101221A60FFF73CFF3C4C054614
:1043F00023689B070CD52068F82393FAA3F3B3FA3C
:1044000083F20B69934020F0F802134323603AE7EC
:10441000FFF728FF401B0228EAD999E71A60FFF747
:1044200021FF2F4D04462B689E077FF52CAFFFF729
:1044300019FF001B0228F6D98AE74A692B4B82B183
:104440000122C3F8802EFFF70DFF254D04466B6F48
:104450009B073FF51CAFFFF705FF001B0228F6D9AD
:1044600076E7C3F8802EFFF7FDFE1D4D04466B6F07
:104470009E077FF50CAFFFF7F5FE001B0228F6D96B
:1044800066E7FFF7EFFE401B02287FF617AF5FE7F6
:10449000052B04D1236F43F00403236717E7226F32
:1044A00022F001022267226F22F004022267002B11
:1044B0007FF411AFFFF7D6FE41F288360546236F31
:1044C0009B077FF512AFFFF7CDFE401BB042F6D938
:1044D0003EE7FFF7C7FE001BB0427FF602AF37E7AB
:1044E000003802400070004000E1F505000047423E
:1044F0002D4CA36803F00C03082B3FF411AF2B4B9A
:10450000022A4FF000021A6640D1FFF7ABFE284E98
:1045100005462368980133D447F6C07696FAA6F686
:104520004FF44032B6FA86F692FAA2F24FF070607B
:10453000B2FA82F590FAA0F0D1E9073213434A6A41
:10454000B24013438A6A5208013AAA401343CA6A26
:10455000174DB0FA80F002FA00F003436360134B8A
:10456000114C01221A66FFF77DFE014623689A016D
:104570003FF5BFAEFFF776FE401AA842F6D9E7E650
:10458000FFF770FE401BB042C3D9E1E6FFF76AFEB9
:10459000074D014623689B017FF5ABAEFFF762FE36
:1045A000401AA842F6D9D3E600380240000047423C
:1045B00080841E00F8B5494B1A6802F00F028A4247
:1045C00004461AD32268900720D4D20726D4434B3E
:1045D0001A6802F00F028A4270D82068430775D427
:1045E00010F0080011D03E4A2169936823F460431B
:1045F00043EAC1039360002007E0CAB21A701B6847
:1046000003F00F038B42DDD00120F8BD3448A568CC
:10461000836823F0F0032B438360D6E76268304B56
:10462000012A1DD11B6813F4003FEDD02C4DAB685F
:1046300023F003031343AB60FFF714FE6368012B01
:10464000064641F2883715D1AB6803F00C03042B02
:10465000BDD0FFF707FE801BB842F5D90320D4E791
:10466000901E01281B6802D813F0007FDDE713F0CD
:10467000020FDAE7022B0AD1AB6803F00C03082B18
:10468000A5D0FFF7EFFD801BB842F5D9E6E7032B75
:104690000FD1AB6803F00C030C2B98D0FFF7E2FDB1
:1046A000801BB842F5D9D9E7FFF7DCFD801BB84283
:1046B000D4D8AB6813F00C0FF6D188E7CAB21A70E1
:1046C0001B6803F00F038B429ED186E70449E36821
:1046D0008A6822F4E0521A438A6081E7003C024073
:1046E000003802402DE9F74FDFF8B4816D4ADFF85A
:1046F000B89100230C6801279F4007EA040537EAB8
:10470000040440F0B9804C6824F0100ABAF1020F9A
:1047100016D14FEAD30E00EB8E0E03F0070BDEF836
:1047200020604FEA8B0B4FF00F0C0CFA0BFC26EAC3
:104730000C0C0E6906FA0BF646EA0C06CEF8206061
:10474000D0F800B04FEA430E4FF0030C0CFA0EFC09
:104750002BEA0C0B6FEA0C0604F0030C0CFA0EFCAF
:104760000AF1FF3A4CEA0B0CBAF1010FC0F800C095
:1047700016D8D0F808C0D1F80CA006EA0C0C0AFA3A
:104780000EFA4AEA0C0CC0F808C0D0F804C02CEAB3
:104790000707C4F3001C0CFA03FC4CEA0707476048
:1047A000C76837408E6806FA0EF63E43C660E600DC
:1047B00062D500260196D8F8447047F48047C8F8BF
:1047C0004470D8F8447007F480470197019F23F0A4
:1047D000030707F1804707F59C3703F0030ED7F86E
:1047E00008A04FEA8E0E4FF00F0C0CFA0EFC2AEACE
:1047F0000C0CDFF8B8A050451DD006F1804606F538
:104800000136B0423FD006F58066B0423DD006F595
:104810008066B0423BD006F58066B04239D048454C
:1048200039D006F50066B04237D006F58066B04252
:104830000CBF0726082606FA0EF646EA0C06BE60EE
:104840001668EF4314F4803F0CBF3E402E431660C1
:10485000566814F4003F0CBF3E402E4356609668E5
:1048600014F4801F0CBF3E402E439660D668A4020D
:1048700054BF3E402E43D6600133102B7FF43AAF35
:1048800003B0BDE8F08F0126D5E70226D3E7032663
:10489000D1E70426CFE70526CDE70626CBE700BF04
:1048A00000380240003C0140001402400000024079
:1048B0000AB1816170470904FBE7000070B5002868
:1048C00066D090F8393003F0FF020BB980F8382039
:1048D0000168C2680569C469242380F83930CB684F
:1048E00023F40053CB600B6923F4405313430B6153
:1048F0008368CA682B43456922F416422B4322F091
:104900000C0223431343CB604B69826923F4407349
:104910001343B4F5004F4B611E4A43684FF06405E2
:1049200028D15B00B2FBF3F2B2FBF5F605FB1622D1
:10493000D3003233B3FBF5F303F007025B0002EB65
:10494000061203F4F87313448B600B6923F490434D
:104950000B614B6923F02A034B61CB6843F400538E
:10496000CB6020220023C36380F8392080F83A20EE
:10497000184670BD9B00B2FBF3F2B2FBF5F605FBE7
:1049800016231B013233B3FBF5F303EB0613DBE70E
:104990000120EEE7906EFB0A90F83930202B3ED1D3
:1049A00000293AD0002A38D090F83830012B36D080
:1049B000012380F838300023C363212380F8393085
:1049C00003688284C284C28C92B252B91A685206B9
:1049D000FCD5202380F83930002380F83830184681
:1049E0007047C28C013A92B2C2848268B2F5805F8D
:1049F0000CD11A681206FCD50A88C2F308025A6064
:104A000002690AB90231DEE70131DCE71A681206F1
:104A1000FCD511F8012B5A60D5E701207047022020
:104A2000704710B590F83A30202B44D1002940D07F
:104A3000002A3ED090F83830012B3CD0012380F87A
:104A400038300023C363222380F83A308285C28540
:104A5000C38D9BB233B9202280F83A2080F83830D9
:104A6000184610BDC38D0268013B9BB2C3858368A5
:104A7000B3F5805F11D113689C06FCD503695268B9
:104A800033B90B46C2F3080223F8022B1946DFE7BD
:104A90000B46D2B223F8012BF8E713689B06FCD52E
:104AA000046952684B1C0CB90A70EFE702F07F02F0
:104AB000FAE70120D5E70220D3E700000A4A11688F
:104AC00008B5034609B909491160106869460344ED
:104AD0008B4206D900F08CF80C2303604FF0FF30B6
:104AE00008BD1360FCE700BF081A0010581A001038
:104AF000704710B50446A8B10379012B14D043794F
:104B000003F0FF0213B90271FFF7F2FF22680223DC
:104B10006371136843F00403136000200123637181
:104B2000207110BD0120FCE70220FAE7002103E01C
:104B30000B4B5B58435004310A480B4B42189A42C6
:104B4000F6D30A4A02E0002313600432084B9A426B
:104B5000F9D3AFF3008000F01DF9FCF70FFCFEE77E
:104B600048B7000800000010B0090010B00900109C
:104B7000541A0010FEE7000010B4044C03460A4625
:104B8000206810BC194600F003B800BF00000010F8
:104B900010B502FB01F100F039F9044668B150F894
:104BA000042C22F00302043A242A18D8132A06D827
:104BB00002460023C2E900339360204610BD002363
:104BC0001B2AC0E900330FD9242AC0E9023311BFE0
:104BD00000F11002036100F118024361E9E70021CE
:104BE00000F074FC204610BD00F10802E1E700BFB0
:104BF000014B1868704700BF0000001008B5002185
:104C0000044602F0B7FB044B1868C36B03B1984726
:104C1000204606F06BF800BF38B40008014900F0E8
:104C200095B800BF558400082DE9F0478246394801
:104C300000F0D8F8DAF83840002C66D1DAF80450E1
:104C4000354ACAF83C200323CAE9B843DFF8CC90C0
:104C5000DFF8CC80334F344E04230AF53B72CAF898
:104C6000E8222146C5E90243C5E90044C5E90444F8
:104C70006C660822AC6105F15C0000F027FCC5E918
:104C80000759C5E90987EE6205F1580000F0A6F85A
:104C9000DAF80850254BEB602146C5E90044C5E928
:104CA00004446C66AC60AC61082205F15C0000F065
:104CB0000DFCC5E90759C5E90987EE6205F1580001
:104CC00000F08CF8DAF80C50194BEB602146C5E97E
:104CD0000044C5E904446C66AC60AC61082205F18F
:104CE0005C0000F0F3FB05F15800C5E90759C5E980
:104CF0000A76C5F8248000F071F80123CAF838302C
:104D00000448BDE8F04700F06FB8BDE8F04701483F
:104D100000F06AB8181A00101D4C000881560008EF
:104D2000A5560008E55600080557000809000100CF
:104D300012000200014800F055B800BF141A00101C
:104D4000014800F051B800BF141A00102DE9F843D3
:104D50000746884600F538764FF00009D6E9015439
:104D6000013D11D4A389012B05F1FF3508D9B4F910
:104D70000E300133214603D03846C04749EA0009C6
:104D80006B1C04F16804EDD13668002EE6D148466C
:104D9000BDE8F88370B50D4E0D4D761BB61006D0EC
:104DA000002455F8043B01349847A642F9D1094E36
:104DB000094D761B05F09CFFB61006D0002455F86F
:104DC000043B01349847A642F9D170BD3CB70008B6
:104DD0003CB7000844B700083CB70008704700BF64
:104DE000704700BF704700BF704700BF024B0146CD
:104DF000186800F00BB800BF00000010024B01461D
:104E0000186803F0B1BC00BF000000102DE9F04F9E
:104E100001F10B06162E83B0044624D8102900F2A7
:104E2000BA8000F0A5FB102618220220B54F3A44A4
:104E3000A2F1080153688B4200F0BA805A68D96821
:104E400022F003021A449D68E9608D60516841F0C8
:104E500001012046516003F1080500F08FFB284650
:104E600003B0BDE8F08F36F0070600F19480B14240
:104E700000F2918000F07CFBB6F5FC7FC0F09A81D7
:104E8000730A00F08F80042B00F26F81B30903F1E5
:104E9000390003F1380CC3009A4F3B44A3F10805D5
:104EA0005B689D4206D10CE0002980F22781DB6817
:104EB0009D4206D05A6822F00302911B0F29F3DDB0
:104EC00060463D69DFF840C265457CD06A6822F0E3
:104ED0000302931B0F2B00F37B81002BC7E904CC4B
:104EE00080F26C81B2F5007F80F01A81D308796876
:104EF00001334FEA521E012202FA0EF20A4357F81A
:104F000033E0C5F808E007EBC3010839E9607A60CF
:104F100047F83350CEF80C5083100121994091424C
:104F200057D8114206D120F003004900114200F188
:104F30000400FAD007EBC0094D468646D5F80C8030
:104F4000454508D11DE1002B80F22481D8F80C8062
:104F5000454500F01681D8F8042022F00302931B87
:104F60000F2BF0DD2046D8E9025408EB060146F08D
:104F70000106C8F80460EC60A56043F00104C7E9CD
:104F80000411C1E902CC4C6048F8023000F0F6FA96
:104F900008F1080502E00C2323600025284603B031
:104FA000BDE8F08F4FF4007340204FF03F0C73E7E3
:104FB000D3689A4208BF02307FF440AF3D69DFF802
:104FC00048C1654582D17A68831001219940914298
:104FD000A7D9BD686B6823F003094E4503D8A9EB38
:104FE00006030F2B7ADCDFF824B1494BDBF80020F5
:104FF0001B680132334405EB090A00F0338103F5E5
:1050000080530F3323F47F6828F00F084146204671
:1050100000F024FB411C024600F0F380824500F2C0
:10502000EE803C4B196841441960084600F04E81FF
:10503000DBF80010019301311BBFA2EB0A0A5044B8
:10504000CBF80020186012F0070B00F01781CBF1AD
:1050500008010A44CBF5805190440831A1EB0801C6
:10506000C1F30B0A51462046009200F0F7FA421CA9
:10507000DDE9002300F04F81801A00EB0A0819686F
:10508000BA6048F001005144BD425060196000F020
:105090002981B9F10F0F40F227816868A9F10C0C42
:1050A0002CF0070C00F0010040EA0C0068604FF0A3
:1050B000050E05EB0C00BCF10F0FC0E901EE00F28C
:1050C000328150681546144B1A688A4238BF1960FD
:1050D000124B1A688A4238BF196094E0AA1943F04B
:1050E000010346F001066E602046BA60536000F08E
:1050F00045FA0835284603B0BDE8F08FD9681A4450
:10510000A1E600BF30040010380400103808001079
:105110004C1A00101C1A0010441A0010481A0010F3
:10512000B2F5206F4FEA522363D3142B00F2B780FD
:1051300003F15C01C9005B3307EB010E7958AEF156
:10514000080E8E4500F091804B6823F003039342D4
:1051500002D989688E45F7D1D1F80CE07A68C5E9A3
:10516000021ECEF80850CD60D6E6142B59D9542B28
:1051700000F29D80330B03F16F0003F16E0CC3004E
:105180008AE60EF1010E1EF0030F05F108057FF40B
:10519000D5AE51E0424445465368D8F80C1043F070
:1051A0000103536055F8083F2046D9608B6000F03A
:1051B000E5F9F3E6F00806F1080237E62A4420464E
:1051C000536843F001035360083500F0D7F9E5E672
:1051D000A919204646F0010643F001046E60C7E9B4
:1051E0000411C1E902CC4C60AB5000F0C7F908359E
:1051F000D4E6930903F13901C90038339CE7BD4275
:105200005FD0BD68686820F003084645A8EB060338
:1052100002D80F2B3FF762AF204600F0AFF9002510
:10522000BCE603F15C0003F15B0CC30034E659F803
:1052300008394B4540F0968010F0030F00F1FF3025
:10524000F5D17B6823EA01037B60490099423FF670
:10525000C0AE19B9BDE649000EF1040E1942FAD0EC
:10526000704667E603F11008D0E69A104FF0010887
:105270007B6808FA02F21A437A6070E702EB0801D1
:105280004942C1F30B0A51462046009200F0E6F96C
:10529000431CDDE900237FF4EFAEDA46EFE6542B42
:1052A00025D8130B03F16F01C9006E3344E7B3F542
:1052B000AA7F25D8F30B03F1780003F1770CC30024
:1052C000EAE5294B186840441860B1E6CAF30B0CB4
:1052D000BCF1000F7FF4ACAEBD68C84448F00100DB
:1052E0006860F0E61546EEE60123536094E7B3F5F7
:1052F000AA7F23D8D30B03F17801C90077331BE7CA
:1053000040F25452934223D8B30C03F17D0003F1D1
:105310007C0CC300C0E5ABF1080BD844A8EB020835
:105320004FF0000AABE605F108012046009303F0B8
:105330001BFABD68009B68681968C4E640F25451C6
:105340008B420BD8930C03F17D01C9007C33F3E64B
:105350004FF47E737F204FF07E0C9DE54FF47E71FD
:105360007E23E9E67B6870E71C1A0010032A10B55B
:1053700017D940EA010C1CF0030F04460B4623D159
:1053800019462046D1F800E0D0F800C0F44504F1F9
:10539000040403F1040317D1043A032A20461946F2
:1053A000EED8541EA2B100F1FF3C013901E0C31850
:1053B0000CD01CF801EF11F8012F9645A4EB0C035B
:1053C000F5D0AEEB020010BD541EECE7184610BD40
:1053D000104610BD88420DD98B1883420AD900EBC4
:1053E000020CBAB1624613F801CD02F801CD994220
:1053F000F9D170470F2A0ED8034602F1FF3C4AB19B
:105400000CF1010C013B8C4411F8012B03F8012F26
:105410006145F9D1704740EA01039B0750D1A2F1E1
:10542000100370B501F1200C23F00F0501F1100EEF
:1054300000F11004AC441B095EF8105C44F8105CE9
:105440005EF80C5C44F80C5C5EF8085C44F8085CA0
:105450005EF8045C44F8045C0EF1100EE64504F1BD
:105460001004E9D1013312F00C0F01EB031102F02B
:105470000F0400EB031327D0043C24F003064FEA8B
:10548000940C1E441C1F8E465EF8045B44F8045FB7
:10549000B442F9D10CF1010402F0030203EB8403DE
:1054A00001EB840102F1FF3C4AB10CF1010C013B1C
:1054B0008C4411F8012B03F8012F6145F9D170BD1F
:1054C00002F1FF3C03469BE72246EBE7830730B53A
:1054D00048D0541E002A3FD0CAB2034601E0013C26
:1054E0003AD303F8012B9D07F9D1032C2DD9CDB266
:1054F00045EA05250F2C45EA054536D9A4F11002E9
:1055000022F00F0C03F1200EE6444FEA121C03F1C7
:10551000100242E9045542E9025510327245F8D1B1
:105520000CF1010214F00C0F03EB021204F00F0C4B
:1055300013D0ACF1040323F003030433134442F803
:10554000045B9342FBD10CF003042CB1CAB21C449F
:1055500003F8012B9C42FBD130BD64461346002C5E
:10556000F4D1F9E703461446BFE71A46A446E0E73C
:105570000148FFF737BC00BF101A00100148FFF7C1
:1055800033BC00BF101A00100FB400B5074983B038
:1055900004AB086853F8042B8168019300F0B6F857
:1055A00003B05DF804EB04B0704700BF00000010CA
:1055B00070B5054688B008460C46FAF7C1FE224E83
:1055C000AA6B059001214318CDE9066104A80221C8
:1055D00004940393AC680190029122B3636E13F0BC
:1055E000010FB4F90C309AB201D1980525D5910478
:1055F00006D4626E43F4005322F40052A381626623
:10560000284601AA214603F0B5F9636E002814BFAD
:105610004FF0FF350A25DA0702D4A3899B0506D58A
:10562000284608B070BD2846FFF7FEFAD6E7A06D01
:10563000FFF7DAFB284608B070BDA06DFFF7D2FB7C
:10564000B4F90C309AB2D2E73CB40008024B0146E0
:105650001868FFF7ADBF00BF0000001038B5074D58
:105660000022044608462A60FFF728FA431C00D0AF
:1056700038BD2B68002BFBD0236038BD501A0010BA
:1056800010B50C46B1F90E1003F01CFF002803DB27
:10569000236D0344236510BDA38923F48053A381A4
:1056A00010BD00BF2DE9F0410C46B1F90C101F46AA
:1056B000CB05054616460BD421F48051A1813B460B
:1056C000B4F90E1032462846BDE8F04101F0C8BDDD
:1056D000B4F90E100223002203F0C4FAB4F90C103E
:1056E000EAE700BF10B50C46B1F90E1003F0BAFAA4
:1056F000A389421C0EBF23F4805343F480532065DA
:10570000A38110BDB1F90E1001F09CBE2DE9F04F40
:10571000D5B01C46079191460546099003F09EFAC4
:105720000268179210460E94FAF70AFE16901DB101
:10573000AB6B002B00F02A82079A536EDD0740F115
:105740003881B2F90C2091B28F0409D4079B42F43E
:1057500000529A8191B21A465B6E23F4005353664D
:105760000E0740F1CB80079B1B69002B00F0C68021
:1057700001F01A030A2B00F0CF8000242BAB4D461A
:10578000CDE92944CDE91944CDE91B44129428936D
:105790009846189400230B940024CDE914342B78F8
:1057A000002B00F09D81AA4604E01AF8013F002B6F
:1057B00000F0C780252BF8D1BAEB050640F0C58074
:1057C0009AF80030002B00F08B8100234FF0FF325D
:1057D0009AF801608DF883300A930AF1010A089261
:1057E0001F462B244FF020090AF1010AA6F12003DD
:1057F0005A2B00F2ED80DFE813F0EB02EB00EB0038
:10580000E602EB00EB00EB006A00EB00EB005C0251
:105810008002EB0067028A02EB0085025B005B00FE
:105820005B005B005B005B005B005B005B00EB0010
:10583000EB00EB00EB00EB00EB00EB007A01EB0080
:10584000F801D2017A017A017A01EB00EB00EB005A
:10585000EB00E102EB00EB002D02EB00EB00EB00B4
:105860000202EB00A402EB00EB008307EB00EB006D
:10587000EB00EB00EB00EB00EB00EB007A01EB0040
:10588000F801D4017A017A017A01C702D401CD016D
:10589000EB00D402EB006C022F02B502CD01EB004D
:1058A00002027E008007EB00EB006107EB007E0048
:1058B000A6F1300300221AF8016B02EB820203EB1F
:1058C0004202A6F13003092BF5D90A928EE7DDF8E2
:1058D00024B0584603F0C2F943681B931846FAF700
:1058E0002FFD1C900646584603F0B8F983681993BB
:1058F000002E40F0CD869AF8006075E7079D099864
:10590000294601F0C3FC002841F01C83A98901F05D
:105910001A030A2B7FF431AF079AB2F90E30002B2D
:10592000FFF62BAF536ED80702D4890541F13B81B6
:105930000799099823464A4655B0BDE8F04F01F053
:105940004FBCBAEB050600F0CB802A9B33442A9368
:10595000299B0133072BC8E90056299305DC08F180
:1059600008080B9B33440B932AE70799099828AA48
:1059700004F050F880B90DF1AC08F2E707990998E6
:1059800028AA04F047F8002800F09B800D9B1BB16B
:105990000998194602F0E8FE079A536ED90740F1BC
:1059A000EA8093895B0601F1D9820B9855B0BDE876
:1059B000F08F079BB3F90C20900591B23FF5C4AE70
:1059C0001D46986DFFF70EFAB5F90C2091B2BBE6B3
:1059D000002E00F0858000228DF8EC608DF8832089
:1059E0000123CDE90C32069308920F921392109284
:1059F0003BAD17F0020302D006990231069117F071
:105A0000840B07D10A990698A1EB0009B9F1000FA0
:105A100000F370832A9C8AB1299A0DF18301013227
:105A20000134C8F80010072A4FF001012A94299286
:105A3000C8F8041000F3B68308F1080883B1299B65
:105A400021AA01330234C8F80020072B4FF00202CC
:105A50002A942993C8F8042000F3B28308F10808B7
:105A6000BBF1800F00F06982089B0C9AA3EB020B3C
:105A7000BBF1000F00F3AA82FB0500F100820C9B32
:105A8000C8F804301C44299BC8F800500133072B88
:105A90002A94299300F3228308F10808780705D592
:105AA0000A9B069A9D1A002D00F39683DDE90A23CE
:105AB00006998A42ACBF9B185B180B93002C7FF4AD
:105AC0005DAF002329930D9B1BB10D99099802F03E
:105AD0004BFE0DF1AC0855462B78002B7FF463AEDE
:105AE0002A9B002B41F0D3810023299354E70E9B7E
:105AF000073323F00702F2E80234CDE91434DDE97C
:105B0000143424F000440E92994618462146B54BB1
