:020000040800F2
:1000000000000220913C0008D93C0008D93C0008BF
:10001000D93C0008D93C0008D93C00080000000089
:10002000000000000000000000000000D93C0008B3
:10003000D93C000800000000D93C0008D93C000869
:1000400000000000000000000000000000000000B0
:1000500000000000000000000000000000000000A0
:100060000000000000000000000000000000000090
:100070000000000000000000000000000000000080
:100080000000000000000000000000000000000070
:100090000000000000000000000000000000000060
:1000A0000000000000000000000000000000000050
:1000B0000000000000000000000000000000000040
:1000C0000000000000000000000000000000000030
:1000D0000000000000000000000000000000000020
:1000E0000000000000000000000000000000000010
:1000F0000000000000000000000000000000000000
:1001000000000000000000000000000000000000EF
:1001100000000000000000000000000000000000DF
:1001200000000000000000000000000000000000CF
:1001300000000000000000000000000000000000BF
:1001400000000000000000000000000000000000AF
:10015000000000000000000000000000000000009F
:10016000000000000000000000000000000000008F
:10017000000000000000000000000000000000007F
:08018000000000000000000077
:1001880010B5054C237833B9044B13B10448AFF3C9
:1001980000800123237010BD34040010000000000B
:1001A800E03E000808B5034B1BB103490348AFF311
:1001B800008008BD0000000038040010E03E000880
:1001C800844641EA000313F003036DD1403A41D35A
:1001D80051F8043B40F8043B51F8043B40F8043B19
:1001E80051F8043B40F8043B51F8043B40F8043B09
:1001F80051F8043B40F8043B51F8043B40F8043BF9
:1002080051F8043B40F8043B51F8043B40F8043BE8
:1002180051F8043B40F8043B51F8043B40F8043BD8
:1002280051F8043B40F8043B51F8043B40F8043BC8
:1002380051F8043B40F8043B51F8043B40F8043BB8
:1002480051F8043B40F8043B51F8043B40F8043BA8
:10025800403ABDD2303211D351F8043B40F8043B48
:1002680051F8043B40F8043B51F8043B40F8043B88
:1002780051F8043B40F8043B103AEDD20C3205D358
:1002880051F8043B40F8043B043AF9D2043208D050
:10029800D2071CBF11F8013B00F8013B01D30B88C2
:1002A80003806046704700BF082A13D38B078DD0A0
:1002B80010F003038AD0C3F10403D21ADB071CBF72
:1002C80011F8013B00F8013B80D331F8023B20F8DC
:1002D800023B7BE7043AD9D3013A11F8013B00F815
:1002E800013BF9D20B7803704B7843708B7883709D
:1002F8006046704770B5ADF55A7D1E4601AA03F1F8
:10030800200518685968144603C40833AB422246CE
:10031800F7D11B782370602206F1550122A8FFF758
:100328004FFF0AAC06F1230306F153051868596814
:10033800224603C20833AB421446F7D16AA801F03B
:100348003EF90AA96AA8302201F03BF901A9212245
:100358006AA801F036F96AA801F040F922AC6AAA45
:1003680016A8302101F046F90FCC9EAD0FC594E8D0
:100378000F0085E80F002AAD0FCDB2AC0FC495E889
:100388000F0032AD84E80F000FCDC6AC0FC495E85E
:100398000F0084E80F0016AC0FCCA6AD0FC50FCC2C
:1003A8000FC594E80F0085E80F0030220021BAA895
:1003B80003F0B4FC30220021CEA803F0AFFC02F019
:1003C800E7FF50239EAA40213AA802F01AFE02F045
:1003D800E7FF3AA9B4223046FFF7F2FE3246B421CD
:1003E800722002F08FFE00200DF55A7D70BD0000CE
:1003F80008B502F027FF02F06DFF02F0A9FF722096
:1004080002F0E8FF522002F0E5FF452002F0E2FF8B
:10041800532002F0DFFF452002F0DCFF542002F0F9
:10042800D9FF202002F0D6FF202002F0D3FF2020A1
:1004380002F0D0FF0A2002F0CDFF02F046FE044A87
:10044800B721332002F042FE02F08AFEFCE700BF2B
:10045800FD020008002370B51946451E184615F818
:10046800014FA3F12002C3F1200604FA02F224FA94
:1004780006F69C4008333243402B40EA040041EA28
:100488000201ECD170BD70B501380021C1F1200620
:10049800A1F1200522FA01F403FA06F6344323FAFF
:1004A80005F508312C43402900F8014FEED170BD05
:1004B8002DE9F04FBFB003680C9343680D93836830
:1004C8000E93C3680F93036910934369119383696B
:1004D8001293C3691393036A1493436A1593836A47
:1004E8001693C36A1793036B1893436B1993836B23
:1004F8001A93C36B1B93036C1C93436C1D93836CFF
:100508001E93C36C1F93036D2093436D2193836DDA
:100518002293C36D2393036E2493436E2593836EB6
:100528002693C36E2793036F2893436F2993836F92
:100538002A93C36F2B93D0F880302C93D0F8843053
:100548002D93D0F888302E93D0F88C302F93D0F894
:1005580090303093D0F894303193D0F8983032936B
:10056800D0F89C303393D0F8A0300B93D0F8A43057
:100578003493D0F8A8303593D0F8AC303693D0F80F
:10058800B0303793D0F8B4303893D0F8B8303993C6
:10059800D0F8BC303A93D0F8C0303B93D0F8C46060
:1005A800014B019302E000BFF83E0008169A0C9B2D
:1005B800179953400D9A82EA0105209A5340219ACF
:1005C80055402A9A53402B9A55400B9A5340349AD7
:1005D800099355400E9B189A83EA02090F9B199AB2
:1005E80083EA0208229B1A9A89EA0309239B88EA6C
:1005F80003082C9B89EA03092D9B88EA0308359B8D
:1006080089EA0309369B88EA0308109B83EA020CEF
:10061800119B1B9A83EA0207249B259A8CEA030CF8
:1006280057402E9B2F9A8CEA030C5740379B389AD9
:100638008CEA030C5740129B1C9ADDF87CE083EA95
:100648000204139B1D9A83EA0201269A149B5440C4
:10065800279A5140309A5440319A5140399A54401F
:100668003A9A51401E9A5A40159B83EA0E0E289BCF
:100678005A40299B8EEA030E329B5A40339B8EEADE
:10068800030E3B9B4FEA490B5A404BEAD87B4FEA93
:10069800480A8EEA060E8BEA02034AEAD97A0293DE
:1006A8008AEA0E0303934FEA4C0B099B4BEAD77B6C
:1006B8004FEA470A4AEADC7A8BEA030304938AEA98
:1006C80005034FEA410A4AEAD47A05938AEA0803FD
:1006D8004FEA4E0848EAD278520042EADE720693A0
:1006E80082EA0C03079388EA07030893099B6A00C8
:1006F80042EAD3725B0043EAD5736340099382EA06
:1007080001034FEA440B0C9A0A93029B4BEAD17BF4
:100718008BEA090B83EA0209039B0D9A0699259C2B
:10072800319F83EA020A189A049B83EA020E199AF7
:10073800059B83EA020C249A8BEA02024C404FEA9A
:10074800525848EAC428640D44EAC2243099079AEA
:100758005140089A4FEA1E5545EA0C357A404FEA4F
:100768001C5C4CEA0E334FEA425E4EEAD12E490534
:1007780041EAD2213B9F099A57400A9A5640BA0348
:1007880042EA96424FEA863C019E4CEA974CD6E9EB
:1007980000768AEA06060D9689EA070728EA05061A
:1007A8007E400D9F0C9624EA030677402EEA040645
:1007B8005E400D9721EA08076F40259625EA09054E
:1007C8002CEA0E0623EA0A03744083EA0C0329EA9A
:1007D8000206249722EA01076A4071403C9430924D
:1007E8002AEA0C04129A3193079B189187EA0807A2
:1007F80084EA0E015A403B971991089B1399219C52
:10080800389F59404FEA017C4CEA121C120742EA11
:10081800111E099B1E9A209983EA02081F9A0A9BB7
:1008280083EA0206029A4A4003994C404FEAC409F7
:1008380049EA5279D20042EA54742C99049A35054F
:1008480045EA18354FEA085848EA163351402D9EB4
:10085800059A4FEAD148724048EA4238D20C42EA37
:10086800413237998BEA010606997940F70847EA39
:10087800417724EA030AC90841EA46718AEA0E0A5E
:1008880029EA050686EA0C06CDF8B0A028EA040A8B
:100898008AEA030A2D9622EA09066E40CDF848A096
:1008A80027EA080A8AEA0404139621EA0206209431
:1008B80086EA09042EEA070623EA0E0E8EEA0703E3
:1008C80025EA0C0521942CEA010462401E9385EA6E
:1008D800010338921F930E9A049B83EA0209059B31
:1008E8000F9A83EA02051A9B86EA08068BEA030236
:1008F8003796069B1B9983EA0107BE0146EA926672
:10090800920142EA97632699079A82EA0107279992
:10091800089A4FEA450C4CEAD97C4A404FEA490903
:10092800790649EAD57441EAD211329DDDF8D090B2
:100938004FEA4268099A48EAD7185540339F0A9AFD
:100948007A404FEA022E4EEA156E2D0245EA1265EC
:100958000B9F029A7A40039F87EA09094FEA894761
:1009680047EA923721EA030A920442EA99328AEA6C
:10097800040A28EA060989EA0C09CDF868A025EADC
:10098800010A8AEA030ACDF86C9023EA04032EEAE6
:10099800080989EA0609534026EA0C06CDF8C8A0DA
:1009A80022EA050A8AEA0101CDF8CC90349327EAB5
:1009B8000E0986EA07030E913D9389EA0801099B0F
:1009C8000F9124EA0208149A2CEA070183EA020725
:1009D8000A9B159A83EA0206169A029B81EA0E017F
:1009E80053402791039A17994FEAC66E4EEA571E4D
:1009F800FF0647EA561C51401E0F46EA011688EAD0
:100A08000505090F41EA03112695049B229A399F8F
:100A180083EA0204239A059B83EA02054FEA8528A4
:100A280048EA9458A40244EA9555069A2F9C2E9BAE
:100A380054408BEA0303E20342EA5342DB0343EAEE
:100A48005443079C84EA07093A9F089C7C404FEA74
:100A5800192747EA046725EA060A240A44EA0964CA
:100A68008AEA0C0A28EA010989EA0E09CDF8E4A005
:100A780023EA050A8AEA060ACDF8E89022EA080974
:100A880089EA0109CDF858A027EA030A8AEA050588
:100A9800CDF85C9024EA02092E9589EA08052CEA2B
:100AA800070888EA03032F952EEA040526EA0C0CAA
:100AB800149385EA020321EA0E0115938CEA0703D1
:100AC800229381EA04032393109B119A8BEA03096A
:100AD800069B83EA020A079B1C9A83EA020C089B7E
:100AE8001D9A83EA0207099B289A83EA0204299A35
:100AF8000A9B83EA0201029B2A9A4FEA990683EA33
:100B0800020B4FEA5C2E2B9A039B46EA8A764EEA42
:100B1800C75E4FEA9A0A7F0A47EACC554AEA8979BA
:100B28004FEA546C83EA020A359A049B4CEAC11CCA
:100B38004FEADA57490E41EAC41847EA4B274FEA09
:100B4800DB5183EA020B369A059B41EA4A2183EA84
:100B5800020A4FEA8B0343EA9A7228EA050383EAFA
:100B680009034FEA8A042CEA0E0A8AEA060A29933C
:100B780021EA0C03CDF8A0A083EA0E0327EA080AAD
:100B880044EA9B7435938AEA0503369324EA0703FB
:100B980083EA08031D9329EA04037B402B932EEA7A
:100BA800060322EA010A25EA090953408AEA0C0CDD
:100BB800109389EA0403CDF870C0119326EA020C59
:100BC8000C9B2C9A8CEA01012A915A402D990D9B75
:100BD80083EA01061A99249B4A401B994E40399989
:100BE8004A403A994E4028994A4029994E401299CC
:100BF80083EA01091399259B83EA0108329B20990E
:100C0800DDF8F4E089EA0309339B88EA0308169BB8
:100C180089EA0309179B88EA0308359B89EA0309CF
:100C2800369B88EA03083B9B83EA010C3C9B21998D
:100C380083EA01070E9B0F998CEA030C4F402E9B09
:100C48002F998CEA030C4F401C9B1D998CEA030CCE
:100C58004F40189B379983EA0105199B389983EA15
:100C6800010426991E9B4D4027994C4014994D40EC
:100C780015994C402A994D402B994C40349959402C
:100C88001F9B83EA0E0E309B5940319B8EEA030E60
:100C9800229B5940239B8EEA030E109B4FEA490B77
:100CA8005940119B4BEAD87B4FEA480A8EEA030E5B
:100CB8004AEAD97A8BEA01034FEA4C0B02934BEAD2
:100CC800D77B8AEA0E034FEA470A03934AEADC7A9B
:100CD8008BEA02034FEA450B04934BEAD47B8AEA7A
:100CE80006034FEA440A05934AEAD57A8BEA0903D0
:100CF80006938AEA08034FEA4E0848EAD178490081
:100D080041EADE71079381EA0C03089388EA070336
:100D1800770047EAD277520042EAD672099382EA0C
:100D280005030A9387EA0403029A0B930C9B83EA50
:100D380002070D9B039A83EA020B129B049A83EA2B
:100D4800020A139B059A4FEA1A5483EA02060E9B7D
:100D5800069A44EA0634360D46EA0A3683EA020A57
:100D68000F9B079A83EA0209149B089A83EA020CEC
:100D7800159B099A83EA02054FEA4C5242EAD522AA
:100D88000A9B4FEA455E109D5D404EEADC2E2B46DD
:100D9800119DDDF82CC085EA0C054FEA853C4CEA2C
:100DA800934C9B0343EA9543019DAD680C95019DC7
:100DB8004FEA5A5848EAC928ED684FEA595949EAAA
:100DC800CA21DDF8309028EA040A8BEA05050D955A
:100DD80087EA0909554689EA05090D9DCDF830903D
:100DE80021EA060A85EA0A050D952EEA01057540ED
:100DF80022EA08090F952CEA0E0589EA04096940D8
:100E080027EA030524EA070726EA0B06CDF83890F7
:100E1800119123EA02092BEA0C016A407B401292E5
:100E2800149381EA0E0286EA0C0313921593089A2A
:100E3800189B83EA0201199B099A83EA020E4FEA7A
:100E48000E7B1E9B0A9A4BEA111B090741EA1E14E6
:100E580083EA020E1F9B0B9A83EA02051A9B029AE9
:100E68002E0583EA020A039A1B9B46EA1E3689EA84
:100E780008084FEA0E5E4EEA153183EA0209CDF8FA
:100E88004080169B049DDDF814C0DDF81CE06B4023
:100E98004FEAC907179D47EA5A774FEACA0A4AEA4A
:100EA800597285EA0C09DD0C45EA49354FEAD949FA
:100EB80049EA433ADDF818C01C9B83EA0C0C1D9BD9
:100EC8004FEADC0883EA0E0348EA437822EA010E77
:100ED800DB0843EA4C738EEA040E27EA060C8CEA18
:100EE8000B0CCDF858E025EA020E8EEA010ECDF87B
:100EF8005CC02AEA070C8CEA060CCDF860E028EA08
:100F0800050E8EEA0202CDF864C023EA0A0C1A9292
:100F18008CEA07021B922BEA030282EA0A0221EA00
:100F2800040126EA0B0673401D9281EA08021E920C
:100F38001F93049A249B24EA08077D4083EA02074A
:100F4800259B059A1C9583EA0206209B069A4FEA80
:100F5800460883EA0204219B079A48EAD7787F006B
:100F680047EAD67B83EA0206269B089A83EA0205AB
:100F7800279B099A83EA02016A0642EAD112229B58
:100F88004FEA416A0A994FEA861C83EA0107239BC4
:100F98000B994CEA946CA40144EA966983EA01042B
:100FA800210241EA17613F0247EA1467289B029C25
:100FB8004AEAD51A6340039D299C6C404FEA844E47
:100FC8004EEA933E9B0443EA94332AEA0C0422EA4D
:100FD800090584EA080485EA0B05219427EA020436
:100FE80084EA0904209521EA0A05229485EA0C047A
:100FF80023EA07056A4023942EEA010429EA0B092B
:10100800249284EA0A022CEA080C2BEA03042592AB
:1010180089EA030328EA0E024A4028938CEA0E0361
:10102800279229930A9A309B059983EA02050B9A1D
:10103800319B53404FEAC36B4BEA551BED0645EA1B
:10104800531C029A2C9B83EA020A2D9B039A83EA7B
:101058000206329B049A5A40339B4FEA1A7E4EEAA4
:10106800061E83EA0109360F46EA0A164FEA892A5C
:101078004AEA925A069993022E9A82EA010507993A
:101088002F9A43EA99537C4082EA010926942A9AC6
:1010980008994FEAC93444EA5544ED0345EA5948EA
:1010A8005140099D2B9A4FEA112982EA050749EA1E
:1010B80007693F0A47EA016723EA0E012AEA06029E
:1010C80081EA0C0182EA0B022A9128EA030181EAEB
:1010D8000E012B9224EA0A0272402C9129EA080197
:1010E8004B402D9227EA04022CEA09012E9382EA4A
:1010F8000A032F932BEA070281EA08032EEA0C0C55
:10110800309382EA040326EA0B0631938CEA09033A
:10111800329386EA0703069A33933B9B089983EA3E
:1011280002093C9B079A83EA0208379A4FEA990C0E
:1011380082EA0106389A0A994CEA887C4FEA9808AC
:1011480048EA897382EA0508349A82EA01053D9AD9
:101158000B994FEA556B82EA01044BEAC41B399A92
:10116800610E029C41EAC5116240039D3A9C84EAE3
:10117800050A4FEADA5444EA4224049DD70D359A09
:1011880082EA0509369A059D4FEA562E4EEAC85E50
:1011980047EA4A274FEA582882EA050A48EAC65821
:1011A8004FEA8A0646EA99752BEA0E024FEA890940
:1011B80049EA9A7A82EA0C0221EA08090B9289EA3A
:1011C8000302349227EA0B0624EA010286EA0E0695
:1011D80082EA0802359636922AEA070625EA0402C8
:1011E8004A4086EA0B062EEA0C0E3796389228EA11
:1011F800030623EA05028EEA0A033B93019B103398
:10120800624001933A92404B019A2CEA0A0989EA12
:1012180007019342399186EA05067FF4C7A90C9B1A
:1012280003600D9B43600E9B83600F9BC360109B04
:101238000361119B4361129B8361139BC361149BE0
:101248000362159B4362169B8362179BC362189BBC
:101258000363199B43631A9B83631B9BC3631C9B98
:1012680003641D9B43641E9B83641F9BC364209B74
:101278000365219B4365229B8365239BC365249B50
:101288000366259B4366269B8366279BC366289B2C
:101298000367299B43672A9B83672B9BC3672C9B08
:1012A800C0F880302D9BC0F884302E9BC0F8883061
:1012B8002F9BC0F88C30309BC0F89030319BC0F821
:1012C8009430329BC0F89830339BC0F89C300B9B0D
:1012D800C0F8A030349BC0F8A430359BC0F8A830C3
:1012E800369BC0F8AC30379BC0F8B030389BC0F89C
:1012F800B4303A9BC0F8BC303B9BC0F8B810C0E98A
:1013080030363FB0BDE8F08FB83F000810B5C822AE
:101318000446002102F002FD0023C4F8C83010BDC5
:101328002DE9F04F85B01C4612F007084FF0000376
:10133800CDE902330E9E07468946154621D06EB187
:1013480002AA14F8013B02F8083008F10108B8F1C4
:10135800080F06F1FF3605F10105F0D1A5EB0808E5
:1013680028F0070802A8FFF775F807EB080C57F8EC
:101378000820DCF8043042404B4047F80820CCF8FD
:101388000430A5B1A9EB050BB34510D825F0070823
:101398002BF00703A246B844234453450AD13846E4
:1013A800FFF786F82E445C44A6EB090600254FEAB1
:1013B800D90B29E050460193FFF74CF8D8E90032E1
:1013C800584048F8080B4A40019B48F8042C0AF199
:1013D800080AE2E7A7F108084FF0000A04EBCA0080
:1013E800FFF738F858F8082FD8F804300AF1010A3E
:1013F80042404B40D345C8E90023EFD838464C4417
:10140800A6EB0906FFF754F84E45E3D225F0070886
:1014180026F00709B84404EB090AA2451FD1B6EB28
:10142800090205EB090416D00023514602A824F04E
:101438000704CDE90233FEF7C3FE02A8FFF70AF856
:1014480007EB040C3A59DCF80430424059403A5151
:10145800CCF804107419204605B0BDE8F08F20467A
:10146800FEF7F8FFD8E90023424048F8082B4B4024
:1014780048F8043C0834D0E7F0B5D70822F007054F
:1014880002F00702D2000544A2F12004C2F12006AE
:1014980023FA06F603FA04F403FA02F250F8373096
:1014A80034436E685340083940F837307440084474
:1014B8006C60436803F100434360F0BD2DE9F04FD1
:1014C80085B004460E9D15F007090E461746984646
:1014D80015D025F007031344D3E9002302A8FEF72B
:1014E800D2FF66B102AB013E13F8093004F8013BA4
:1014F80009F10109B9F1080F05F10105F1D18DB123
:10150800A8EB050BB3450DD825F0070A2BF007010A
:10151800BA44A1462144494507D12E445C44A6EB70
:10152800080600254FEAD80B1DE04846FAE80223D2
:10153800019109F10809FEF7A6FF0199EBE7384682
:10154800FEF7B6FFA7F1080A4FF0000904EBC9003F
:10155800FAE9022309F10109FEF795FFCB45F5D811
:101568004444A6EB08064645E9D2EEB115B938461B
:10157800FEF79EFF25F0070926F00708B94404EB9B
:10158800080A544514D1A6EB0809A84428F007080E
:101598004744D7E9002302A8FEF775FF4A4602A987
:1015A8002046FEF70DFE3544284605B0BDE8F08F0D
:1015B8002046F9E80223FEF766FF0834E1E7FFF763
:1015C800A5BE13B500920B46D0F8C8208821044662
:1015D800FFF7A6FEC4F8C80002B010BD10B51F235F
:1015E8000446D0F8C8208821FFF746FF0023C4F836
:1015F800C83010BD13B5D2F8C830009388231446FC
:10160800FFF75CFFC4F8C80002B010BD38B502F09F
:10161800D7FB044602F0D4FB054602F0D1FB830752
:1016280083EAC53383EA040038BD2DE9F04F99B049
:10163800CDE9011203904822002106A802F06EFBB2
:10164800DDE9016706AB00939A464FF0000B0BF1FA
:10165800010BB1465546B84654465946032904F18C
:10166800080408F1080809F108093AD1BBF1030F89
:101678000AF1200A07F1080706F10806E7D1019BDD
:10168800A3F10801029BA3F10802039BA3F1080040
:10169800002351F8085F52F8087F4C685668DDF857
:1016A80000C03D4040F8085F344044600024A34235
:1016B80009D0D0E900650195DCE900576E40019D2D
:1016C8007D40C0E900650134032C0CF1080CEED113
:1016D800009C01331834032B0094DAD119B0BDE80B
:1016E800F08F0591FFF792FF0490FFF78FFF049B9F
:1016F80020606360D8E90010D6E9002302EA010CF3
:101708001840D9F800103A68D9F80430C5E906C07D
:101718000A4079680B40216882EA0C024A406168F5
:1017280043404B400599C5E906230131183595E733
:10173800F8B51D46D1E90063DB43F643C0E9006311
:10174800D1E90267C0E90267D1E904670446C0E944
:1017580004670146FFF769FFA4F10802A5F1080331
:10176800103452F8080F53F8086F51685D687040DC
:1017780069409442C2E90001F3D1F8BD2DE9F04F68
:10178800ADF2646D30AB1F9336AB0E933CAB0D934B
:1017980042AB0C9348AB0B934EAB0A9354AB0090FF
:1017A8001E93DDE90A565AABDDE90C7C1D931846F9
:1017B8001E9CDDF838E0DDF87C80009B0022D3E930
:1017C80000ABE8E802ABD3E902ABEEE802ABD3E941
:1017D80004ABECE802ABD3E906ABE7E802ABD3E92C
:1017E80008ABE6E802ABD3E90AABE5E802ABD3E91C
:1017F8000CABE4E802ABD3E90EABE0E802ABD3E90B
:1018080010AB60A91144C1E900ABD3E912AB66A9DA
:101818001144C1E900ABD3E914AB6CA91144C1E987
:1018280000ABD3E916AB72A91144C1E900ABD3E907
:1018380018AB78A91144C1E900ABD3E91AAB7EA96A
:101848001144C1E900ABD3E91CAB84A91144C1E937
:1018580000ABD3E91EAB8AA91144C1E900ABD3E9B7
:1018680020AB90A91144C1E900ABD3E922AB96A9FA
:101878001144C1E900ABD3E924AB0DF5CC611144A7
:1018880041E9FCABD3E926AB0DF5CC61114441E944
:10189800F6ABD3E928AB0DF5CC61114441E9F0ABC7
:1018A800D3E92AAB0DF5CC61114441E9EAABD3E9A0
:1018B8002CAB0DF5CC61114441E9E4ABD3E92EAB77
:1018C8000DF5CC61114441E9DEABD3E930AB0DF540
:1018D800CC6111440832182A41E9D8AB03F1C80396
:1018E8007FF46DAF0E4B0593002320936CAB0193EF
:1018F8008AAB0393A8AB029378AB07939CAB069390
:10190800C0AB04931E9B0893029B0993039B0F9300
:10191800019B1093DDF87CB00A9B1193002301E032
:10192800B83F0008119AD2E9001E08321192109AA5
:10193800D2E900C7083210920F9AD2E9006408323F
:101948000F92099AD2E9005008320992DBF8002078
:101958005140DBF804208EEA02027A40624042409D
:101968001392089A12681692089A81EA0C01526832
:1019780017927140694036AA1291D118D258486816
:10198800169981EA020C179A72A9504072AA1A4451
:10199800C958546890AA1A448CEA010C90A960406E
:1019A800C9585468AEAA1A446040546880EA0402D0
:1019B8001492079A126818928CEA010C079AAEA939
:1019C8005268C95819923CAA8CEA010CD1183CA853
:1019D8004D68C0585AA95AAA1A44CE585168189A3C
:1019E80046405640199A4D40554096AAD118D258AB
:1019F80049685640B4AA4D40D118D2584968564053
:101A0800069A12681A92069A52681B9260A842AA0D
:101A18004D40D418C11864684968C058D2584C4021
:101A28007EA94240C818C958406882EA010A1A9A31
:101A38008AEA020A1B9A4440BAA95440CA18C958EB
:101A480052685440049A12681C92049A48A8526832
:101A580021928AEA0101C2180DF5CC7A15910AEB98
:101A68000301C05857685AF803204968424084A8BF
:101A78004F40C118C05849684F40A2A94240C818F1
:101A8800C95840684A401C994A40219947404F40EC
:101A980014991498490041EADC7179404FEA4C09DD
:101AA800229149EAD079E4A9E4A889EA020919440B
:101AB80040F80390229848604FEA4608129948EA8D
:101AC800D57888EA01086800139940EAD670414041
:101AD8002391EAA8EAA9194440F8038023984860AA
:101AE8001598610041EAD0714FEA400E14984EEA09
:101AF800D47E4140F0A88EEA0C0C00EB030E40F8AF
:101B080003C0CEF804104FEA470E4EEAD27E5200C8
:101B180042EAD7725640F6AA1A44F6A88EEA050792
:101B2800C6505760139A1298520042EAD072450084
:101B3800139845EAD07515985440FCAA45401A44B4
:101B4800FCA8C5505460DBF80020229882EA0909F5
:101B5800DBF804204BF8089B4240C6A800EB030EB4
:101B680040F803904BF8042CCEF80420169A2398DA
:101B780082EA0808179A5040089A42F8088B42F8F7
:101B8800040C0892CCAA02EB030E4FEA185242EA60
:101B98000032000D40EA08300DF54C7848F8032073
:101BA800189ACEF8040082EA0C00199A5140079A54
:101BB80042F8080B42F8041C0792D2AA02EB030869
:101BC800420D42EAC122490D41EAC021D2A8C250C1
:101BD8001A9AC8F8041056401B9A5740069A42F8B9
:101BE800086B790541EAD62142F8047C069276050D
:101BF800D8AA46EAD726D650D0181C9A4160554034
:101C0800219A5440049A42F8085BA10341EA95419D
:101C1800049242F8044CAD03DEAA45EA9445D55037
:101C2800D0180833182B41607FF47CAEC6ABD2AA1B
:101C3800CCA90DF58160FFF77BFD0599DDF8082437
:101C4800DDF80C34D1E9000142404B40CDF80824BE
:101C5800CDF80C34D8AACCABD2A90DF58460FFF727
:101C680067FDD2ABDEAAD8A90DF58760FFF760FD46
:101C7800D8ABC6AADEA90DF58A60FFF759FDDEAB21
:101C8800CCAAC6A90DF58D60FFF752FDF6AB1A93E5
:101C9800C6AB1B93FCAB1893CCAB1993E4AB169370
:101CA800D2AB1793EAAB1493D8AB1593F0AB1C9354
:101CB800DEAB13930C9B18330993DEAB0493D8ABBC
:101CC8000693C6ABFCAC08930C9B0794504690A9AE
:101CD800B4AAF0AD0DF56A7E0DF552780DF564796C
:101CE8000DF54C7A0DF5767CDCE900761C686740CA
:101CF8005C6843F8087B84EA060B4FEA0B76089C7D
:101D080043F804BC46EA17163F0747EA1B17C4E91D
:101D1800007608340894079CD4E9007608340794C0
:101D280004686740446840F8087B84EA060B019C15
:101D380040F804BC24680F944FEA0B5646EA17365D
:101D4800019C3F0547EA1B3764681094CAE900768E
:101D5800D9E900760F9C6740109C84EA060B019C29
:101D68004FEACB0644F8087B46EA5776FF0047EA75
:101D78005B770194C8E90076DEE9007644F804BC94
:101D88000C6867404C6841F8087B66404FEAD74BBF
:101D9800069C41F8046C4BEA463BF60C46EA47368B
:101DA800C4E900B6D5E9007608340694146867409B
:101DB800546842F8087B66404FEAD70B049C42F807
:101DC800046C4BEA467BF60846EA4776C4E900B657
:101DD80008340494099C9C420CF1080C0AF1080A86
:101DE80009F1080908F108080EF1080E05F10805BF
:101DF8007FF47AAFC6ABD2AACCA90DF59060FFF7F5
:101E080097FCCCABD8AAD2A90DF59360FFF790FC4C
:101E1800D2ABDEAAD8A90DF59660FFF789FCD8AB3E
:101E2800C6AADEA90DF59960FFF782FCDEABCCAA45
:101E3800C6A90DF59C60FFF77BFC0E9B1D98183317
:101E48000893DEAB0193D8AB0493C6ABF0AC079311
:101E58000E9B06947EA9A2AAE4AD0DF57C7E0DF535
:101E680052780DF576790DF54C7A0DF56A7CDCE93A
:101E780000761C6867405C6843F8087B84EA060BB8
:101E88004FEA4B06079C43F804BC46EAD7767F0026
:101E980047EADB77C4E9007608340794069CD4E95E
:101EA80000760834069404686740446840F8087B64
:101EB80084EA060B4FEA8B1646EA9766BF0147EAA3
:101EC8009B67CAE90076D9E900760C6840F804BC3B
:101ED80067404C6841F8087B84EA060B4FEA4B667A
:101EE80046EAD7167F0647EADB17C8E90076DEE937
:101EF8000076146841F804BC6740546842F8087BCF
:101F080084EA060B4FEA0B26049C42F804BC46EA16
:101F180017663F0247EA1B67C4E900760834049451
:101F2800029C24680994029CD5E9007664680F94A1
:101F3800099C67400F9C84EA060B029C44F8087BC6
:101F48004FEA8B4646EA9736029444F804BCBF042D
:101F5800019C47EA9B37C4E9007608340194089C41
:101F68009C420CF1080C0AF1080A09F1080908F169
:101F780008080EF1080E05F108057FF478AFC6AB26
:101F8800D2AACCA90DF59F60FFF7D2FBCCABD8AA9B
:101F9800D2A90DF5A260FFF7CBFBD2ABDEAAD8A978
:101FA8000DF5A560FFF7C4FBD8ABC6AADEA90DF5F1
:101FB800A860FFF7BDFBDEABCCAAC6A90DF5AB60E8
:101FC800FFF7B6FB0B9B0A9C18330893DEAB019313
:101FD800D8AB0293CCAB0493C6ABE4AD07930B9B91
:101FE800069572A896A9BAAA0DF5767C0DF57078B3
:101FF8000DF552790DF56A7A0DF57C7EDEE90076ED
:102008001D686F405D6843F8087B85EA060B4FEA58
:10201800CB66079D43F804BC46EA5716FF0647EA15
:102028005B17C5E9007608350795069DD5E9007662
:102038000835069525686F40656844F8087B6E404A
:102048004FEA177B049D44F8046C4BEA061B360FD5
:1020580046EA0716C5E900B6DAE9007608350495B8
:1020680005686F40456840F8087B85EA060B4FEA2B
:102078008B2646EA9756BF0247EA9B57C9E900767E
:10208800D8E9007640F804BC0D686F404D6841F807
:10209800087B85EA060B4FEACB36029D41F804BC63
:1020A80046EA5746FF0347EA5B47C5E90076DCE99D
:1020B80000760835029515686F40556842F8087B28
:1020C8006E404FEA172B019D42F8046C4BEA066BF1
:1020D800360A46EA0766C5E900B608350195089D3F
:1020E8009D420EF1080E0AF1080A09F1080908F1E3
:1020F80008080CF1080C81D1C6ABD2AACCA90DF501
:10210800AE60FFF715FBCCABD8AAD2A90DF5B1602C
:10211800FFF70EFBD2ABDEAAD8A90DF5B460FFF726
:1021280007FBD8ABC6AADEA90DF5B760FFF700FB21
:10213800DEABCCAAC6A90DF5BA60FFF7F9FA0D9B7C
:1021480018330793DEAB0193D8AB0293C6ABF6AC5A
:1021580006930D9B049460A884A9AEAAEAAD0DF578
:10216800647E0DF552780DF57C790DF54C7A0DF5F8
:10217800707CDCE900761C6867405C6843F8087B83
:1021880066404FEA970B069C43F8046C4BEA867B43
:10219800B60846EA8776C4E900B608340694049C73
:1021A800D4E900760834049404686740446840F829
:1021B800087B66404FEA572B4BEAC65B40F8046C35
:1021C800760A46EAC756CAE900B6D9E900760C6825
:1021D80067404C6841F8087B6640039C41F8046CF2
:1021E800246808944FEA576B4BEAC61B039C760E8B
:1021F80046EAC716C8E900B664680994DEE90076BD
:10220800089C6740099C6640039C44F8087B4FEA99
:10221800D75B4BEA462B44F8046C0394F60D029CFA
:1022280046EA4726C4E900B6D5E9007608340294A0
:1022380014686740546842F8087B84EA060B4FEA42
:102248008B06019C42F804BC46EA9776BF0047EA31
:102258009B77C4E9007608340194079C9C420CF1F2
:10226800080C0AF1080A09F1080908F108080EF132
:10227800080E05F108057FF47CAFC6ABD2AACCA93D
:102288000DF5BD600DF5C065FFF752FA0DF5C36495
:10229800CCABD8AAD2A92846FFF74AFAD2ABDEAA15
:1022A800D8A92046FFF744FAD8ABC6AADEA90DF58F
:1022B800C660FFF73DFADEABCCAAC6A90DF5C9602A
:1022C800FFF736FA0DF5816309930DF590630393D3
:1022D8000DF59F6301930DF5AE6304930DF5BD6392
:1022E80002930DF5936308930DF5A56307930DF518
:1022F800C9630693029B0F93049B1093019B119350
:10230800039B12930DF5B76B002326952194099A28
:1023180012682792099A52682892129AD2E9001EE6
:1023280008321292119AD2E900C608321192109A14
:10233800D2E90075083210920F9AD2E900400832AB
:102348000F92279A5140289A81EA0C018EEA0202DC
:102358007940724082EA050681EA0402229286EAFE
:1023680000022392089A12682992089A52682A92BF
:102378000DF584621A440DF58461CF585168299A85
:1023880057402A9A51400DF5A262D018D258406899
:1023980057400DF5B1624140D018D25840685740B7
:1023A800269A4140D018D258406887EA020A81EA42
:1023B80000022492079A12682B92079A0DF58760FB
:1023C80052682C920DF58762C458D1180DF59660A5
:1023D8000DF596621A44C55850682B9A49686540AD
:1023E80055402C9A414051400DF5B462D018D2584E
:1023F80040685540219A4140D018D258406855400D
:1024080081EA000225920DF599600DF58A62D418CB
:10241800C118D2586468C05849684C400DF5A86185
:102428004240C818C958406882EA0108DBF8002011
:1024380088EA0208DBF8042044400DF5C6615440E0
:10244800CA18C95852685440069A12682D92069ABA
:1024580052682E920DF58D621A4488EA0108566872
:102468000DF59C610DF58D600DF59C621944C05801
:10247800D258496842400DF5AB604E40C118C0586B
:1024880049684E400DF5BA614240C818C9584068BD
:102498004A402D994A402E9946404E4024994FEA89
:1024A8004A0E4FEA41094EEAD17EE4A98EEA020EAD
:1024B80041F803E0C81849EADA79259989EA060952
:1024C8004FEA450CC0F804904CEAD17C48002299A8
:1024D8008CEA010C239940EAD57041402F91EAA972
:1024E800CF1841F803C02F9979604FEA480747EAA7
:1024F800D477249887EA0A0761000DF5707A41EAD3
:10250800D8714AF8037041400AEB03004FEA460AC3
:102518004AEAD27A520042EAD6725540259A416078
:10252800F6AE8AEA02022398F55006EB030A2492D3
:10253800CAF804204FEA400A22982F9A4AEAD07A29
:102548004600239846EAD076279880EA0E0E289807
:1025580080EA0909099840F808EB86EA0806099014
:102568000DF57C7840F8049CC6A848F8036040F84C
:1025780003E08AEA040408EB030A00EB030829983D
:10258800DDF820E0C8F8049080EA0C0C2A984EF890
:1025980008CB42404EF8042CCDF820E0100D0DF584
:1025A8004C7E0EEB030840EA0C304FEA1C5E0DF53A
:1025B8004C7C4EEA023E4CF803E0C8F804002B9825
:1025C800CAF8044047402C98249A4140079840F89C
:1025D800087B40F8041C0790D2A800EB030C780D88
:1025E80040EAC120490D41EAC721D2AFF850CCF8E2
:1025F8000410DBF800104D40DBF804104BF8085BC2
:102608004A40D8A9C818510541EAD5216D0545EABF
:10261800D2254BF8042CD8AAD5502D9A41605640A3
:102628002E9A5440069A42F8086B42F8044C0692D7
:10263800DEAAD118A20342EA9642DEA8B60346EA09
:102648009444C4500833182B4A607FF460AEC6AB7C
:102658003A46CCA930A8FFF76BF80599DDE9302395
:10266800D1E9020142404B40CDE930233946CCAB99
:10267800D8AA36A8FFF75CF83B46DEAAD8A93CA83A
:10268800FFF756F8D8ABC6AADEA942A8FFF750F85C
:102698000DF58D64DEABCCAAC6A948A8FFF748F8AB
:1026A8000F94DEAC0694D8AC0794FCAC0894219A3D
:1026B800C6AC0DF58A630DF59C600DF5B161F0AD02
:1026C8000DF56A7EB8460DF564790DF54C7A0994D6
:1026D8000DF5767CDCE900761C6867405C6843F899
:1026E800087B84EA060B4FEA0B76099C43F804BC86
:1026F80046EA17163F0747EA1B17C4E9007608346D
:102708000994089CD4E90076083408940468674062
:10271800446840F8087B84EA060B019C40F804BC36
:10272800246810944FEA0B5646EA1736019C3F0579
:1027380047EA1B3764681194CAE90076D9E900763C
:10274800109C6740119C84EA060B019C4FEACB065B
:1027580044F8087B46EA5776FF0047EA5B7701941E
:10276800C8E90076DEE9007644F804BC0C686740E6
:102778004C6841F8087B66404FEAD74B079C41F804
:10278800046C4BEA463BF60C46EA4736C4E900B609
:10279800D5E900760834079414686740546842F80D
:1027A800087B66404FEAD70B069C42F8046C4BEA5C
:1027B800467BF60846EA4776C4E900B6083406942C
:1027C8000F9C9C420CF1080C0AF1080A09F108094F
:1027D80008F108080EF1080E05F108057FF47AAF34
:1027E800C6ABD2AACCA94EA8FEF7A2FFCCABD8AAFA
:1027F800D2A954A8FEF79CFFD2ABDEAAD8A95AA842
:10280800FEF796FFD8ABC6AADEA960A8FEF790FF30
:10281800DEACDEABCCAAC6A966A8FEF789FF019498
:10282800D8AC0694F0AC0794C6AC0DF584630DF5EE
:1028380096600DF5A8610DF5BA62E4AD0DF57C7EE4
:102848000DF552780DF576790DF54C7A08940DF55D
:102858006A7CDCE900761C6867405C6843F8087BA2
:1028680084EA060B4FEA4B06089C43F804BC46EA88
:10287800D7767F0047EADB77C4E900760834089406
:10288800079CD4E9007608340794046867404468D4
:1028980040F8087B84EA060B4FEA8B1646EA9766EF
:1028A800BF0147EA9B67CAE90076D9E900760C6858
:1028B80040F804BC67404C6841F8087B84EA060B82
:1028C8004FEA4B6646EAD7167F0647EADB17C8E9A0
:1028D8000076DEE90076146841F804BC6740546865
:1028E80042F8087B84EA060B4FEA0B26069C42F85E
:1028F80004BC46EA17663F0247EA1B67C4E900764C
:1029080008340694029C24680994029CD5E9007650
:1029180064680F94099C67400F9C84EA060B029C2C
:1029280044F8087B4FEA8B4646EA9736029444F807
:1029380004BCBF04019C47EA9B37C4E9007608340D
:1029480001940DF587649C420CF1080C0AF1080A01
:1029580009F1080908F108080EF1080E05F1080543
:102968007FF477AFC6ABD2AACCA96CA8FEF7E0FE7D
:10297800CCABD8AAD2A972A8FEF7DAFED2ABDEAAEF
:10298800D8A978A8FEF7D4FED8ABC6AADEA97EA837
:10299800FEF7CEFEDEACDEABCCAAC6A984A8FEF755
:1029A800C7FE0194D8AC0294E4AC0694C6AC0DF50D
:1029B8008D630DF5A2600DF5B4610DF5C662F6AD37
:1029C8000DF5707E0DF552780DF56A790DF54C7A96
:1029D80007940DF57C7CDCE900761C6867405C6830
:1029E80043F8087B84EA060B4FEACB66079C43F85A
:1029F80004BC46EA5716FF0647EA5B17C4E90076A7
:102A080008340794039C24680894039C6468099418
:102A1800069CD4E9007608340694089C6740099C13
:102A28006640039C44F8087B4FEA177B44F8046C23
:102A38004BEA061B360F46EA0716CAE900B6D9E97B
:102A48000076039404686740446840F8087B84EA89
:102A5800060B4FEA8B2646EA9756BF0247EA9B5772
:102A6800C8E90076DEE900760C6840F804BC6740E7
:102A78004C6841F8087B84EA060B4FEACB36029C87
:102A880041F804BC46EA5746FF0347EA5B47C4E9F6
:102A98000076D5E9007608340294146867405468D3
:102AA80042F8087B66404FEA172B019C42F8046CF9
:102AB8004BEA066B360A46EA0766C4E900B60834EC
:102AC80001940DF590649C420CF1080C0AF1080A77
:102AD80009F1080908F108080EF1080E05F10805C2
:102AE8007FF479AFC6ABD2AACCA98AA8FEF720FE9C
:102AF800CCABD8AAD2A990A8FEF71AFED2ABDEAA10
:102B0800D8A996A8FEF714FED8ABC6AADEA99CA839
:102B1800FEF70EFEDEABCCAAC6A9A2A8FEF708FEF9
:102B28000DF587630DF599600DF5AB610DF5C06284
:102B38000DF58A6C1C9C5D68D4E9006708341C9408
:102B48001C68664043F8086B7D40B7081B9C43F837
:102B5800045C47EA8577AD0845EA8675C4E90075DF
:102B680008341B941A9C4568D4E9006708341A9401
:102B78000468664040F8086B7D40770A199C40F865
:102B8800045C47EAC5576D0A45EAC655C4E90075AD
:102B980008341994189C4D68D4E9006708341894CF
:102BA8000C68664041F8086B7D40770E47EAC51708
:102BB80041F8045C179C6D0E45EAC615C4E900751A
:102BC80008341794049C24680194049C6568169C36
:102BD800D4E9006708341694019C6640049C44F8C4
:102BE800086B7D40F70D44F8045C47EA45270494D8
:102BF800ED0D159C45EA4625C4E900750834159481
:102C0800149C1668D4E900750834149454687E40FE
:102C180084EA0507BD0042F8086B139C42F8047C5F
:102C280045EA9675B60046EA9776C4E900659C457C
:102C380004F1080413947FF47DAFC6ABD2AACCA9E3
:102C4800A8A8FEF775FDCCABD8AAD2A9AEA8FEF706
:102C58006FFDD2ABDEAAD8A9B4A8FEF769FDD8AB40
:102C6800C6AADEA9BAA8FEF763FDDEABCCAAC6A940
:102C7800C0A8FEF75DFD209B02332093059B10330F
:102C88000593209B182B7EF431AE00211F98F0E8A5
:102C980002231F900098C0E900230E98F0E8022351
:102CA8000E900098C0E902230D98F0E802230D90D9
:102CB8000098C0E904230C98F0E802230C900098CF
:102CC800C0E906230B98F0E802230B900098C0E9AE
:102CD80008230A98F0E802230A900098C0E90A231A
:102CE8001E98F0E802231E900098C0E90C231D9856
:102CF800F0E802231D900098C0E90E2360AB0B4456
:102D0800D3E90023C0E9102366AB0B44D3E90023C1
:102D1800C0E912236CAB0B44D3E90023C0E91423A8
:102D280072AB0B44D3E90023C0E9162378AB0B44FC
:102D3800D3E90023C0E918237EAB0B44D3E9002371
:102D4800C0E91A2384AB0B44D3E90023C0E91C2350
:102D58008AAB0B44D3E90023C0E91E2390AB0B4494
:102D6800D3E90023C0E9202396AB0B44D3E9002321
:102D7800C0E922230DF5CC630B4453E9FC23C0E9D9
:102D880024230DF5CC630B4453E9F623C0E926232D
:102D9800A8AB0B44D3E90023C0E92823AEAB0B440E
:102DA800D3E90023C0E92A230DF5CC630B4453E98A
:102DB800E423C0E92C230DF5CC630B4453E9DE234F
:102DC800C0E92E230DF5CC630B4453E9D823083111
:102DD800C0E930230346C833182900937FF456AF5F
:102DE8000DF2646DBDE8F08F2DE9F04F85B09A467D
:102DF8000E9B83460C46904613B90AFB01F30E93CB
:102E08004FEADA03029336E04046FEF7B7FC0022A9
:102E1800174608EBC2003E46002503680393436843
:102E280099460BEB06030193083000230399C3F17D
:102E3800200EA3F1200CD94009FA0EFE41EA0E013A
:102E480029FA0CFC41EA0C01DDF804C008330CF83F
:102E5800011B402BCE46CDF804C0E7D1029B0135BB
:102E6800AB4206F10806D8D80E9B19324B2A1F44EC
:102E7800CFD1D344013C002CC6D105B0BDE8F08FBA
:102E88002DE9F04FADF51D7D002706460C46019350
:102E980039469DF898320593154607A84FF41572E0
:102EA800069700F03BFF4FF416723946304600F0A3
:102EB80035FF24F00703DDF804B00393A3454ED291
:102EC800DDF80C900027B144013C06AB5A46294670
:102ED80003EBC700FDF774F906AA059B02F80B304F
:102EE800135D4FEAC70863F07F03135506EB08012B
:102EF80066E0EB190293002398469E46029810F864
:102F0800019B0290A3F1200AC3F1200009FA0AFAF2
:102F180029FA00F009FA03F908334AEA0000402BBD
:102F280049EA080840EA0E0EE8D1D2E9000380EA2F
:102F3800080042F8080B83EA0E0342F8043C0837FD
:102F4800049B9F42D5D1019B19314B299C4408D140
:102F58003046FEF713FCABEB040B2544AEE700212B
:102F68008C46039B634406EBC10204936746E7E77C
:102F780006AB4344029300239A469E46029A12F8EF
:102F880001CB0292C3F12000A3F120020CFA02F255
:102F98002CFA00F00CFA03FC08330243402B4CEAED
:102FA8000A0A42EA0E0EE9D1D1E9002382EA0A02AE
:102FB80041F8082B83EA0E0341F8043C08F108089D
:102FC8008945D5D1019B19374B2F1D4409F1C809F3
:102FD8007FF47BAF0DF51D7DBDE8F08F07B5134677
:102FE8001F2200920A468821FFF74AFF03B05DF8C6
:102FF80004FB07B500938823FFF7F6FE03B05DF8DE
:1030080004FB2DE9F041ADF57C7D0D4604461146E3
:1030180088271A4666A8FFF7E1FFB5FBF7F62B46A7
:10302800314666AA20467E43FFF7E3FFB5EB060864
:1030380012D0002366AA01216846FFF7DAFF34445C
:1030480000266B4607FB0631204642460136FDF74F
:10305800B7F8032E2C44F4D10DF57C7DBDE8F08142
:103068000346014400208B4200D1704713F8012B1E
:103078005040082210F0800F4FEA400018BF80F03F
:103088004D00013AC0B2F5D1EDE730B50022044653
:1030980001238B4201D3002030BD14F8015F15B91C
:1030A8009D1A85541A460133DBB2F2E710B502784F
:1030B8000024034604701046884200D202B910BDAD
:1030C8001A5C1C541044C0B2F6E7704738B50C4D72
:1030D8002B687F2B04DD612000F07CF9012038BDCE
:1030E800B1F5007F01D36220F6E70C2404FB0354FA
:1030F80001332071C4E902122B600020EFE700BF02
:103108005004001070B5ADF5007D0C460025114641
:103118008DF8010022460DF103008DF802408DF86C
:103128000050FDF74DF8A11CC9B20DF10100FFF7E1
:1031380097FF0DEB0403261D611DD870C9B26846C0
:103148000DF80650FFF7A1FF6C4614F8010B013586
:1031580000F040F9AE42F8DA0DF5007D70BD0000D0
:103168002DE9F047ADF5027D002502AE8DF8075038
:10317800344600F01DF906F8010B60B905238DF8F7
:1031880007300DF1070205216520FFF7BBFF0DF59C
:10319800027DBDE8F0870135042DEAD12946204695
:1031A800FFF784FF264F61783A68804600230C2099
:1031B8005FFA83F9914502DB07D10723DFE700FBBC
:1031C8000976013336798E42F2D1E37805334345E7
:1031D80002DA0B23D3E7354600F0EAF8605508B960
:1031E8000C23CCE7E3786E1C0433B342F3DA00F027
:1031F800DFF8A05508B10D23C1E7C8F1010151FA64
:1032080086F1C9B25FFA86FA04EB0800FFF74EFFB1
:10321800AAF10201C9B20DF10900FFF721FF635DB0
:10322800834201D00E23AAE70C2303FB0977E27837
:10323800FD68A17860786B44A8478DF80700A0E77F
:103248005004001030B51F4AD2F8883043F4700398
:10325800C2F8883093B003224FF4A023CDE90623A7
:1032680002214FF48003CDE90C130C20C423CDE9CF
:103278000E0304240723012506A8CDE91043099568
:1032880000F0C0F8044600B1FEE70146CDE90300AE
:103298000F23059001A8CDE9013500F053FA0A4B38
:1032A80000945A6B094842F040025A635B6B03F082
:1032B80040030093009B064B0360447100F0C6FC7A
:1032C80013B030BD00ED00E000380240540A001091
:1032D8000008065030B5022389B04FF4C062CDE92A
:1032E80003230122CDE90523154C164800250723A1
:1032F80001950793236B13432363236B13400193B7
:1033080003A9019B00F0B6FA0F48104902954FF443
:103318006133C0E90313C0E905550C23C561456253
:103328000362636C43F010036364636C03F010037F
:1033380002930C30029B00F089FB09B030BD00BF3E
:103348000038024000000240540A001000100140FA
:103358007FB50D4B0D48002100911A6B42F0010218
:103368001A631B6B039103F001030093009B4FF456
:1033780080520123CDE9012301A90223049300F01F
:1033880079FA07B05DF804FB0038024000000240FB
:10339800024801224FF4805100F052BB0000024065
:1033A800024800224FF4805100F04ABB000002405E
:1033B80013B5074C41F2883301220DF1070120466D
:1033C80000F0F7FB0028F5D19DF8070002B010BD0A
:1033D800600A001007B541F288338DF80700012212
:1033E8000DF10701024800F09FFB03B05DF804FBF4
:1033F800600A0010024B1868421C1A60704700BF30
:10340800F00A0010036873B5DE0701463BD40B6869
:103418009D0700F18B800B68180700F1D6800B68B8
:103428005A072AD500230193914B924C1A6C42F00B
:1034380080521A641B6C03F080530193019B23682C
:1034480043F480732360FFF7D5FF05462368D8054A
:1034580040F1DF808B68864C012B40F0E180236FC0
:1034680043F001032367FFF7C5FF814D044641F28E
:1034780088362B6F9A0740F1F4808A69002A40F059
:10348800FF80002015E07A4B9A6802F00C02042AAB
:1034980007D09A6802F00C02082A0CD15A68540224
:1034A80009D5734B1B689803B1D54B68002BAED177
:1034B800012002B070BD4A68B2F5803F12D11A6887
:1034C80042F480321A60FFF795FF694D6A4E044650
:1034D8002B689A039BD4FFF78DFF001BB042F7D9E6
:1034E8000320E6E7624CB2F5A02F236807D143F426
:1034F80080232360236843F480332360E3E723F4C5
:1035080080332360236823F480232360002ADAD1E0
:10351800FFF770FF584E054623689B037FF577AF8A
:10352800FFF768FF401BB042F6D9D9E7504B9A68BD
:1035380012F00C0F07D09A6802F00C02082A16D174
:103548005B68580213D44A4803689A0702D5CB68C7
:10355800012BADD10468F82393FAA3F3B3FA83F2ED
:103568000B69934024F0F8021343036053E7CA68D9
:10357800424BDAB101221A60FFF73CFF3C4C05468A
:1035880023689B070CD52068F82393FAA3F3B3FAB2
:1035980083F20B69934020F0F802134323603AE763
:1035A800FFF728FF401B0228EAD999E71A60FFF7BE
:1035B80021FF2F4D04462B689E077FF52CAFFFF7A0
:1035C80019FF001B0228F6D98AE74A692B4B82B1FA
:1035D8000122C3F8802EFFF70DFF254D04466B6FBF
:1035E8009B073FF51CAFFFF705FF001B0228F6D924
:1035F80076E7C3F8802EFFF7FDFE1D4D04466B6F7E
:103608009E077FF50CAFFFF7F5FE001B0228F6D9E1
:1036180066E7FFF7EFFE401B02287FF617AF5FE76C
:10362800052B04D1236F43F00403236717E7226FA8
:1036380022F001022267226F22F004022267002B87
:103648007FF411AFFFF7D6FE41F288360546236FA7
:103658009B077FF512AFFFF7CDFE401BB042F6D9AE
:103668003EE7FFF7C7FE001BB0427FF602AF37E721
:10367800003802400070004000E1F50500004742B4
:103688002D4CA36803F00C03082B3FF411AF2B4B10
:10369800022A4FF000021A6640D1FFF7ABFE284E0F
:1036A80005462368980133D447F6C07696FAA6F6FD
:1036B8004FF44032B6FA86F692FAA2F24FF07060F2
:1036C800B2FA82F590FAA0F0D1E9073213434A6AB8
:1036D800B24013438A6A5208013AAA401343CA6A9D
:1036E800174DB0FA80F002FA00F003436360134B01
:1036F800114C01221A66FFF77DFE014623689A01E4
:103708003FF5BFAEFFF776FE401AA842F6D9E7E6C6
:10371800FFF770FE401BB042C3D9E1E6FFF76AFE2F
:10372800074D014623689B017FF5ABAEFFF762FEAC
:10373800401AA842F6D9D3E60038024000004742B2
:1037480080841E00F8B5494B1A6802F00F028A42BD
:1037580004461AD32268900720D4D20726D4434BB4
:103768001A6802F00F028A4270D82068430775D49D
:1037780010F0080011D03E4A2169936823F4604391
:1037880043EAC1039360002007E0CAB21A701B68BD
:1037980003F00F038B42DDD00120F8BD3448A56843
:1037A800836823F0F0032B438360D6E76268304BCD
:1037B800012A1DD11B6813F4003FEDD02C4DAB68D6
:1037C80023F003031343AB60FFF714FE6368012B78
:1037D800064641F2883715D1AB6803F00C03042B79
:1037E800BDD0FFF707FE801BB842F5D90320D4E708
:1037F800901E01281B6802D813F0007FDDE713F044
:10380800020FDAE7022B0AD1AB6803F00C03082B8E
:10381800A5D0FFF7EFFD801BB842F5D9E6E7032BEB
:103828000FD1AB6803F00C030C2B98D0FFF7E2FD27
:10383800801BB842F5D9D9E7FFF7DCFD801BB842F9
:10384800D4D8AB6813F00C0FF6D188E7CAB21A7057
:103858001B6803F00F038B429ED186E70449E36897
:103868008A6822F4E0521A438A6081E7003C0240E9
:10387800003802402DE9F74FDFF8B4816D4ADFF8D0
:10388800B89100230C6801279F4007EA040537EA2E
:10389800040440F0B9804C6824F0100ABAF1020F11
:1038A80016D14FEAD30E00EB8E0E03F0070BDEF8AD
:1038B80020604FEA8B0B4FF00F0C0CFA0BFC26EA3A
:1038C8000C0C0E6906FA0BF646EA0C06CEF82060D8
:1038D800D0F800B04FEA430E4FF0030C0CFA0EFC80
:1038E8002BEA0C0B6FEA0C0604F0030C0CFA0EFC26
:1038F8000AF1FF3A4CEA0B0CBAF1010FC0F800C00C
:1039080016D8D0F808C0D1F80CA006EA0C0C0AFAB0
:103918000EFA4AEA0C0CC0F808C0D0F804C02CEA29
:103928000707C4F3001C0CFA03FC4CEA07074760BE
:10393800C76837408E6806FA0EF63E43C660E60052
:1039480062D500260196D8F8447047F48047C8F835
:103958004470D8F8447007F480470197019F23F01A
:10396800030707F1804707F59C3703F0030ED7F8E4
:1039780008A04FEA8E0E4FF00F0C0CFA0EFC2AEA44
:103988000C0CDFF8B8A050451DD006F1804606F5AE
:103998000136B0423FD006F58066B0423DD006F50C
:1039A8008066B0423BD006F58066B04239D04845C3
:1039B80039D006F50066B04237D006F58066B042C9
:1039C8000CBF0726082606FA0EF646EA0C06BE6065
:1039D8001668EF4314F4803F0CBF3E402E43166038
:1039E800566814F4003F0CBF3E402E43566096685C
:1039F80014F4801F0CBF3E402E439660D668A40284
:103A080054BF3E402E43D6600133102B7FF43AAFAB
:103A180003B0BDE8F08F0126D5E70226D3E70326D9
:103A2800D1E70426CFE70526CDE70626CBE700BF7A
:103A380000380240003C01400014024000000240EF
:103A48000AB1816170470904FBE7000070B50028DE
:103A580066D090F8393003F0FF020BB980F83820AF
:103A68000168C2680569C469242380F83930CB68C5
:103A780023F40053CB600B6923F4405313430B61C9
:103A88008368CA682B43456922F416422B4322F007
:103A98000C0223431343CB604B69826923F44073C0
:103AA8001343B4F5004F4B611E4A43684FF0640559
:103AB80028D15B00B2FBF3F2B2FBF5F605FB162248
:103AC800D3003233B3FBF5F303F007025B0002EBDC
:103AD800061203F4F87313448B600B6923F49043C4
:103AE8000B614B6923F02A034B61CB6843F4005305
:103AF800CB6020220023C36380F8392080F83A2065
:103B0800184670BD9B00B2FBF3F2B2FBF5F605FB5D
:103B180016231B013233B3FBF5F303EB0613DBE784
:103B28000120EEE7906EFB0A90F83930202B3ED149
:103B380000293AD0002A38D090F83830012B36D0F6
:103B4800012380F838300023C363212380F83930FB
:103B580003688284C284C28C92B252B91A6852062F
:103B6800FCD5202380F83930002380F838301846F7
:103B78007047C28C013A92B2C2848268B2F5805F03
:103B88000CD11A681206FCD50A88C2F308025A60DA
:103B980002690AB90231DEE70131DCE71A68120668
:103BA800FCD511F8012B5A60D5E701207047022097
:103BB800704710B590F83A30202B44D1002940D0F6
:103BC800002A3ED090F83830012B3CD0012380F8F1
:103BD80038300023C363222380F83A308285C285B7
:103BE800C38D9BB233B9202280F83A2080F8383050
:103BF800184610BDC38D0268013B9BB2C38583681C
:103C0800B3F5805F11D113689C06FCD5036952682F
:103C180033B90B46C2F3080223F8022B1946DFE733
:103C28000B46D2B223F8012BF8E713689B06FCD5A4
:103C3800046952684B1C0CB90A70EFE702F07F0266
:103C4800FAE70120D5E70220D3E7704710B504460C
:103C5800A8B10379012B14D0437903F0FF0213B9FB
:103C68000271FFF7F2FF226802236371136843F0C1
:103C780004031360002001236371207110BD01202B
:103C8800FCE70220FAE70000002103E00B4B5B5839
:103C9800435004310A480B4B42189A42F6D30A4A59
:103CA80002E0002313600432084B9A42F9D3AFF3C1
:103CB800008000F00FF8FCF79BFBFEE78840000847
:103CC800000000103404001034040010F80A00103A
:103CD800FEE7000070B50D4E0D4D761BB61006D0F0
:103CE800002455F8043B01349847A642F9D1094EFF
:103CF800094D761B00F0F0F8B61006D0002455F8F0
:103D0800043B01349847A642F9D170BD7C400008B5
:103D18007C400008844000087C400008830730B5D8
:103D280048D0541E002A3FD0CAB2034601E0013CE5
:103D38003AD303F8012B9D07F9D1032C2DD9CDB225
:103D480045EA05250F2C45EA054536D9A4F11002A8
:103D580022F00F0C03F1200EE6444FEA121C03F187
:103D6800100242E9045542E9025510327245F8D171
:103D78000CF1010214F00C0F03EB021204F00F0C0B
:103D880013D0ACF1040323F003030433134442F8C3
:103D9800045B9342FBD10CF003042CB1CAB21C445F
:103DA80003F8012B9C42FBD130BD64461346002C1E
:103DB800F4D1F9E703461446BFE71A46A446E0E7FC
:103DC8000A4A0B4910B414680A4AD4E92A0300FBCA
:103DD80002F201FB0322A0FB0101431C42EB01009C
:103DE800C4E92A3020F0004010BC704700000010E1
:103DF8002D7F954C2DF45158024B13B1024800F019
:103E080005B8704700000000213E00080023014665
:103E18001A46184600F01AB838B5084B084D5B1B0F
:103E28009C1007D0043B1D44013C55F804399847C1
:103E3800002CF9D1BDE8384000F054B8884000089B
:103E480084400008704700BF704700BF2DE9F04765
:103E5800DFF87CA00646DAF8000098460F4691463F
:103E6800FFF7F0FF1B4B1B68D3F8484124B3656884
:103E78001F2D26DC5EB96B1C0235DAF80000636082
:103E880044F82570FFF7E0FF0020BDE8F08704EB59
:103E980085010123C1F88890D4F88821AB401A43E2
:103EA800022EC4F88821C1F80881E4D1D4F88C2105
:103EB8001343C4F88C31DEE703F5A674C3F8484110
:103EC800D5E7DAF80000FFF7BFFF4FF0FF30DCE777
:103ED8003004001078400008F8B500BFF8BC08BCF2
:103EE8009E467047F8B500BFF8BC08BC9E467047B0
:103EF80001000000000000008280000000000000B7
:103F08008A8000000000008000800080000000809F
:103F18008B8000000000000001000080000000000D
:103F2800818000800000008009800000000000807F
:103F38008A00000000000000880000000000000067
:103F480009800080000000000A00008000000000D6
:103F58008B800080000000008B00000000000080C3
:103F680089800000000000800380000000000080BD
:103F78000280000000000080800000000000008037
:103F88000A800000000000000A0000800000008095
:103F98008180008000000080808000000000008098
:103FA8000100008000000000088000800000008000
:103FB80001000000000000008280000000000000F6
:103FC8008A800000000000800080008000000080DF
:103FD8008B8000000000000001000080000000004D
:103FE80081800080000000800980000000000080BF
:103FF8008A000000000000008800000000000000A7
:1040080009800080000000000A0000800000000015
:104018008B800080000000008B0000000000008002
:1040280089800000000000800380000000000080FC
:104038000280000000000080800000000000008076
:104048000A800000000000000A00008000000080D4
:1040580081800080000000808080000000000080D7
:10406800010000800000000008800080000000803F
:04407800080000102C
:08407C00013E0008AD0100083F
:0440840089010008A6
:10408800080000100000000000000000F40200100A
:104098005C030010C40300100000000000000000D2
:1040A8000000000000000000000000000000000008
:1040B80000000000000000000000000000000000F8
:1040C80000000000000000000000000000000000E8
:1040D80000000000000000000000000000000000D8
:1040E80000000000000000000000000000000000C8
:1040F80000000000000000000000000000000000B8
:1041080000000000000000000000000000000000A7
:104118000000000000000000000000000000000097
:104128000000000000000000000000000000000087
:1041380001000000000000000E33CDAB34126DE624
:10414800ECDE05000B00000000000000000000008D
:104158000000000000000000000000000000000057
:104168000000000000000000000000000000000047
:104178000000000000000000000000000000000037
:104188000000000000000000000000000000000027
:0444B800F40A0010F2
:0400000508003C9122
:00000001FF
